:100000000C943E000C9448000C9448000C9448005A
:100010000C9448000C9448000C9448000C94480040
:100020000C9448000C9448000C9448000C94480030
:100030000C9448000C9448000C9448000C94480020
:100040000C9448000C9448000C9448000C94480010
:100050000C9448000C9448000C9448000C94480000
:100060000C9448000C9448000C9448000C944800F0
:100070000C9448000C9448000C94480011241FBEB6
:10008000CFEFD0E1DEBFCDBF0E9468000C946C00C2
:100090000C940000272F382F492F55272093CD008F
:1000A0006093CC0088E18093C9008EE08093CA0001
:1000B0000895982F8091C80085FFFCCF9093CE00C3
:1000C00008958091C80087FFFCCF8091CE000895ED
:0C00D00081E090E008950895F894FFCFBF
:00000001FF
