:100000000C943E000C9450000C9450000C94500042
:100010000C9450000C9450000C9450000C94500020
:100020000C9450000C9450000C9450000C94500010
:100030000C9450000C9450000C9450000C94500000
:100040000C9450000C9450000C9484000C945000BC
:100050000C9450000C9450000C9450000C945000E0
:100060000C9450000C9450000C9450000C945000D0
:100070000C9450000C9450000C94500011241FBE9E
:10008000CFEFD0E1DEBFCDBF11E0A0E0B1E001C015
:100090001D92A130B107E1F70E94D1000C940E012E
:1000A0000C940000272F382F492F55272093CD007F
:1000B0006093CC0088E18093C9008EE08093CA00F1
:1000C0000895982F8091C80085FFFCCF9093CE00B3
:1000D00008958091C80087FFFCCF8091CE000895DD
:1000E000DF93CF930F92CDB7DEB7198285B19FEF23
:1000F00095B98BB18BB984B194B98AB11AB889B169
:100100008983898185B9FBCF1F920F920FB60F9219
:1001100011248F9380910001882321F481E0809342
:10012000000102C0109200018F910F900FBE0F903E
:100130001F90189584B7877F84BFE0E6F0E0808148
:100140008861808310820895809124008068809364
:10015000240080E090E060E070E048EE53E00E9410
:10016000F60080910001882319F08130E1F706C084
:1001700080912300806880932300FACF8091230030
:100180008F7780932300FACF60E072EC81E090E0FB
:100190000E9452000E9469008823E1F30E946100DE
:1001A000F9CF84B7877F84BFE0E6F0E08081886183
:1001B0008083108278940E94C40080E090E00895CB
:1001C000DF93CF93CDB7DEB7CF91DF910895DF9363
:1001D000CF93CDB7DEB780E0CF91DF910895DF9365
:1001E000CF93CDB7DEB7CF91DF910895009749F453
:1001F00084B5816084BD81E085BB80936E0016BCB0
:1002000008958130910541F0029731F44093B10097
:1002100081E087BB8093700008950895F894FFCF24
:00000001FF
