:100000000C9400010C941D010C941D010C941D0115
:100010000C941D010C941D010C941D010C941D01E8
:100020000C941D010C941D010C941D010C941D01D8
:100030000C941D010C941D010C941D010C941D01C8
:100040000C941D010C941D010C94560D0C941D0173
:100050000C941D010C941D010C941D010C941D01A8
:100060000C941D010C941D010C941D010C941D0198
:100070000C941D010C941D010C941D010763423664
:10008000B79BD8A71A39685618AEBAAB558C1D3C29
:10009000B7CC5763BD6DEDFD753EF6177231BF00ED
:1000A0000000803F08000000BE922449123EABAA27
:1000B000AA2ABECDCCCC4C3E00000080BEABAAAA82
:1000C000AA3E00000000BF000000803F00000000CA
:1000D00000084178D3BB4387D1133D190E3CC3BD03
:1000E0004282AD2B3E68EC8276BED98FE1A93E4CB0
:1000F00080EFFFBE01C4FF7F3F00000000006E6183
:100100006E00696E660000407A10F35A00A0724ECD
:1001100018090010A5D4E80000E87648170000E4AC
:100120000B54020000CA9A3B000000E1F5050000F4
:1001300080969800000040420F000000A086010059
:100140000000102700000000E80300000000640029
:10015000000000000A000000000001000000000094
:100160002C76D888DC674F0823DFC1DFAE59E1B1B8
:10017000B796E5E3E453C63AE651997696E8E6C2C7
:100180008426EB898C9B62ED407C6FFCEFBC9C9FCE
:1001900040F2BAA56FA5F490055A2AF75C936B6CF0
:1001A000F9676DC11BFCE0E40D47FEF520E6B500E4
:1001B000D0ED902E0300943577050080841E080052
:1001C00000204E0A000000C80C333333330F986E02
:1001D00012831141EF8D2114893BE65516CFFEE6BF
:1001E000DB18D1844B381BF77C1D901DA4BBE42485
:1001F000203284725E228100C9F124ECA1E53D2702
:1002000011241FBECFEFD0E1DEBFCDBF12E0A0E0D2
:10021000B1E0EEE8F1E302C005900D92A43CB10715
:10022000D9F713E0A4ECB2E001C01D92A137B107E9
:10023000E1F70E94760E0C94C5180C940000A1E121
:10024000B0E0E5E2F1E00C94DD163C017F876E87BB
:100250006A01FC0117821682838181FD03C06FEF62
:100260007FEF6FC39E012F5F3F4F398B288BF301C8
:100270002381EE85FF8523FD859123FF8191FF87F3
:10028000EE87882309F45AC3853251F4EE85FF8541
:1002900023FD859123FF8191FF87EE87853229F425
:1002A00090E0B3010E940218E2CF982F10E088245A
:1002B00099241032B0F49B3269F09C3228F49032C9
:1002C00051F0933271F40BC09D3239F0903349F400
:1002D000116028C01260146025C0186023C010612E
:1002E00021C017FD2AC0892F80538A3078F416FF69
:1002F00006C0FAE09F9E902C1124980E13C03AE09D
:10030000839E802C1124880E10620CC09E3221F432
:1003100016FD14C3106406C09C3611F4106802C0A8
:10032000983659F4EE85FF8523FD959123FF919131
:10033000FF87EE87992309F0BCCF892F855483303E
:1003400020F4812F8061905E07C0892F855683300D
:1003500008F09FC1812F8F7E86FD02C076E0972E28
:100360006FE3F62EF822953619F4F0E4FF2A07C061
:10037000963619F420E8F22A02C091109A94F7FEFA
:100380000AC03BE3391518F45CE3B52E02C0B92C62
:10039000B39427E009C047E0491520F4BB2447E0A7
:1003A000942EF7CF292DBB24C60104969D878C87F8
:1003B000F6016081718182819381AE014F5F5F4F51
:1003C0000B2D0E9414176C010981202E332400FF8D
:1003D00004C003FD02C01DE209C0F1FE02C01BE221
:1003E00005C0F2FC02C010E001C010E2C1018C7037
:1003F0009070892BB9F1112311F483E001C084E0DE
:10040000881510F088240AC0881AF3FC07C080E21F
:1004100090E0B3010E9402188A94C9F7112329F0D1
:10042000812F90E0B3010E94021823FE03C00EEF5B
:1004300010E00EC002E011E00BC0E114F10409F07D
:10044000805290E0B3010E9402180F5F1F4F05C059
:10045000EF2CFF24F0E1EF22FF24F80184918823A0
:1004600061F714C1F7FE12C0BC0C24FE04C08A81DF
:10047000813309F4BA941B141CF0BB24B3942DC02F
:10048000F8E0FB1550F538E0B32E27C0F6FC25C088
:10049000892D90E08C159D054CF02CEFC2162FEFA6
:1004A000D20624F030E8F32A01C09A94992049F04A
:1004B000E2E0F0E0EC0FFD1FE90DF11D80818033DB
:1004C000A1F3F7FE0AC0B92CB394892D90E0C816A9
:1004D000D90614F0992401C09C18F7FC03C025E04C
:1004E00030E009C01C141D041CF021E030E003C002
:1004F00096012F5F3F4F112311F02F5F3F4F99203F
:1005000029F0892D90E00196280F391F882D90E061
:100510002817390714F0882401C0821A4F2C55245B
:10052000C20189709070892B39F008C080E290E098
:10053000B3010E9402188A948820C1F7112329F080
:10054000812F90E0B3010E94021843FE07C008C04B
:1005500080E390E0B3010E9402188A948820C1F7DA
:10056000F7FE46C08601D7FE02C000E010E076012B
:100570000894E11CF11CE01AF10A41E050E04C0F34
:100580005D1FE40EF51E26014B185108892D90E0E1
:10059000AA24BB24A81AB90A5FEF0F3F150729F454
:1005A0008EE290E0B3010E940218C016D10634F02A
:1005B000401651061CF4F701808101C080E3015010
:1005C00010400894E11CF11C0A151B052CF090E06A
:1005D000B3010E940218E0CF0C151D0539F49A8171
:1005E000963318F4953311F424FE81E390E04BC068
:1005F0008A81813309F00F7E90E0B3010E940218D6
:100600009920A1F08EE290E0B3010E94021812E05E
:10061000E1E0F0E0EC0FFD1FE10FF11D1F5F8081B5
:1006200090E0B3010E9402189A9491F744FC03C031
:1006300085E690E002C085E490E0B3010E940218D4
:10064000D7FC05C0C114D10441F404FF06C0D09406
:10065000C194D108D3948DE201C08BE290E0B30144
:100660000E94021880E305C08F5F26EF3FEFC20EA5
:10067000D31E3AE0C316D104BCF790E0B3010E9448
:100680000218C601C096B3010E940218CC84DD8412
:1006900052C1933631F0933799F0933509F059C030
:1006A00023C0F601808189835E010894A11CB11CDE
:1006B00022E030E0C20ED31E21E0E22EF12C12C067
:1006C000F601A080B18016FD03C06FEF7FEF02C07E
:1006D000692D70E022E030E0C20ED31EC5010E94F9
:1006E000F7177C011F7713C0F601A080B18016FDBB
:1006F00003C06FEF7FEF02C0692D70E022E030E0B1
:10070000C20ED31EC5010E94EC177C01106813FFB6
:1007100007C01BC080E290E0B3010E9402188A94D7
:10072000882D90E0E816F906A8F30FC0F50117FD33
:10073000859117FF81915F0190E0B3010E9402183B
:1007400081108A940894E108F108E114F10471F72A
:10075000F2C0943611F0993689F517FF08C0F601FA
:10076000208131814281538184E090E00AC0F6010A
:10077000808191819C01442737FD4095542F82E070
:1007800090E0C80ED91E9FE6F92EF12257FF09C04E
:1007900050954095309521953F4F4F4F5F4F90E8D2
:1007A000F92ACA01B901AE014F5F5F4F2AE030E07C
:1007B0000E946718E82EE889EE1A41C0953721F4A7
:1007C0001F7E2AE030E01CC0197F9F3661F0903711
:1007D00020F4983509F0B2C00FC0903739F098373F
:1007E00009F0ACC004C028E030E00AC0106114FD7C
:1007F000146020E130E004C014FD166020E132E016
:1008000017FF08C0F601608171818281938144E005
:1008100050E008C0F60180819181BC0180E090E049
:1008200042E050E0C40ED51EAE014F5F5F4F0E9404
:100830006718E82E5889E51A8FE7F82EF122F6FEA0
:100840000BC08EEFF822E91438F4F4FE07C0F2FC76
:1008500005C09FEEF92202C01E2D01C0192DF4FE25
:100860000DC0FE01EE0DF11D8081803319F4E9EE1B
:10087000FE2208C01F5FF2FE05C003C08F2D8678E0
:1008800009F01F5F0F2DF3FC14C0F0FE0FC0181508
:1008900010F09E2C0BC09E2C980C911A182D06C09F
:1008A00080E290E0B3010E9402181F5F1815C0F3A8
:1008B00004C0181510F4811A01C0882404FF0FC069
:1008C00080E390E0B3010E94021802FF1DC001FD09
:1008D00003C088E790E00EC088E590E00BC0802F51
:1008E000867891F001FF02C08BE201C080E2F7FC44
:1008F0008DE290E0B3010E94021806C080E390E010
:10090000B3010E9402189A94E914C0F3EA94E1E05A
:10091000F0E0EC0FFD1FEE0DF11D808190E0B301C2
:100920000E940218EE2091F706C080E290E0B30129
:100930000E9402188A948820C1F799CCF30166813D
:100940007781CB016196E2E10C94F9168064809383
:100950007C00EAE7F0E080818760808380818068A6
:10096000808380818064808380E480937B0011B8E1
:100970000895807480937C00089520917C00877096
:100980009070287F282B20937C0080917A008064CF
:1009900080937A0080917A0084FFFCCF80917A0066
:1009A000806180937A002091780030917900C901AC
:1009B0000895806480937C0008956F927F928F9257
:1009C0009F92AF92BF92CF92DF92EF92FF920F93DE
:1009D0001F935B016C01E0905F02F0906002009158
:1009E000610210916202A80197010E94EF146090C9
:1009F0006302709064028090650290906602882382
:100A000074F0C601B501A80197010E943B13A4012F
:100A100093010E945615AC01CB01DA010FC0C80149
:100A2000B701A60195010E943B13A40193010E9406
:100A300056159B01AC01DA01C901B058BC01CD01CA
:100A40001F910F91FF90EF90DF90CF90BF90AF90EC
:100A50009F908F907F906F900895209167023091C2
:100A600068024091690250916A020E9456150895E9
:100A70001F93182F5F9886E00E948C0A812F829521
:100A8000880F880F807C0E948C0A182F80E00E94BB
:100A90008C0A5F9A512F40E0282F30E0242B352B11
:100AA000C9011F9108952F923F924F925F926F92CA
:100AB0007F928F929F92AF92BF92CF92DF92EF92EE
:100AC000FF920F931F9380E090E00E9438057C0115
:100AD00081E090E00E9438055C0182E090E00E9495
:100AE00038053C012090670230906802409069020E
:100AF00050906A0200E010E0C801B7010E943D1466
:100B0000A20191010E945615162F072FF82EE92EEB
:100B1000CC24DD24C601B5010E943D14A20191013F
:100B20000E945615D62EC72EB82EA92E8824992499
:100B3000C401B3010E943D14A20191010E94561507
:100B4000562E472E382E292E212F302F4F2D5E2D39
:100B5000B901CA010E94DD043B014C012D2D3C2D41
:100B60004B2D5A2DB901CA010E94DD045B016C01B5
:100B7000252D342D432D522DB901CA010E94DD04CB
:100B80007B018C0100D000D000D080E091E0EDB777
:100B9000FEB79283818363827482858296820E94EB
:100BA0002E188EE091E0EDB7FEB792838183A38289
:100BB000B482C582D6820E942E188CE191E0EDB7F6
:100BC000FEB792838183E382F482058316830E94B9
:100BD0002E188DB79EB706960FB6F8949EBF0FBE1F
:100BE0008DBF1F910F91FF90EF90DF90CF90BF903E
:100BF000AF909F908F907F906F905F904F903F90BD
:100C00002F900895EF92FF920F931F93482FCB01DF
:100C100020E16030720714F08FEF9FE07C01002725
:100C2000F7FC0095102F80912B008F7E80932B0076
:100C3000842F80630E948C0AD801C70124E0B695F6
:100C4000A795979587952A95D1F70E948C0A8FE0F2
:100C500090E0A0E0B0E0E822F9220A231B238E2DC9
:100C60008295807F0E948C0A80912B008061809306
:100C70002B0080912B008F7E80932B0080912B0086
:100C8000806180932B001F910F91FF90EF9008954A
:100C900081E090E00895009719F00197E1F40EC00B
:100CA000809128008F7D8093280080E20E948C0A2A
:100CB0008091280080628093280008958091280008
:100CC0008F7E8093280080E20E948C0A8091280009
:100CD0008061809328000895809128008F7D809303
:100CE000280088E80E948C0A809128008062809306
:100CF0002800809128008F7E8093280088E80E9439
:100D00008C0A809128008061809328000895FF92CA
:100D10000F931F93009729F0019769F140E050E08D
:100D200055C0809128008F7D8093280080E60E9426
:100D30008C0A80E00E948C0A182F80E00E948C0AA6
:100D4000082F80E00E948C0AF82E80E00E948C0A16
:100D5000512F552740E0302F332720E0422B532BD3
:100D600090E0482B592B9F2D80E0482B592B8091E8
:100D70002800806229C0809128008F7E80932800FF
:100D800080E60E948C0A80E00E948C0A182F80E086
:100D90000E948C0A082F80E00E948C0AF82E80E0C6
:100DA0000E948C0A512F552740E0302F332720E036
:100DB000422B532B90E0482B592B9F2D80E0482B42
:100DC000592B80912800806180932800CA011F91CF
:100DD0000F91FF9008950F931F93809127008062D9
:100DE0008093270080912800806280932800809162
:100DF0002700806180932700809128008061809384
:100E000028008091C8029091C902892B79F480E072
:100E100090E00E944B0681E090E00E944B0681E04A
:100E200090E09093C9028093C8025DC080E090E09A
:100E30000E9487069093C5028093C40281E090E0EF
:100E40000E9487069093C7028093C60200D000D00C
:100E500000D00DB71EB70F5F1F4F8AE291E0EDB7CC
:100E6000FEB7928381836091C4027091C502882786
:100E700077FD8095982F0E943F142CE53FE842E4CF
:100E80005EE30E94F314F801628373838483958385
:100E90000E942E180DB71EB70F5F1F4F83E491E01D
:100EA000EDB7FEB7928381836091C6027091C7024D
:100EB000882777FD8095982F0E943F142FE832EC09
:100EC00045EF5DE30E94F314F8016283738384832A
:100ED00095830E942E188DB79EB706960FB6F8948C
:100EE0009EBF0FBE8DBF1F910F910895AA2797FD3A
:100EF000A095BA2FBC01CD010E943F1422E23EE82A
:100F000045EB5EEB0E94F31420E030E840E953E447
:100F10000E943C130E940C14CB01089590E00E94A3
:100F2000BD04AA2797FDA095BA2FBC01CD010E9450
:100F30003F1422E23EE845EB5EEB0E94F31420E012
:100F400030E840E953E40E943C130E940C14CB01AA
:100F50000895CF92DF92EF92FF920F931F93DF934A
:100F6000CF93CDB7DEB72A970FB6F894DEBF0FBE8A
:100F7000CDBF49835A836B837C838D83EE82FF824E
:100F8000088719872A87842F0E948E078E810E94E6
:100F90008E077C0100D08CE591E0EDB7FEB792831F
:100FA00081830E942E1800D0CDB6DEB60894C11CF5
:100FB000D11C8CE691E0EDB7FEB7928381830027C8
:100FC000F7FC0095102FC801B7010E943F1422E2E0
:100FD0003EE845EB5EEB0E94F31420E030E840E988
:100FE00053E40E943C130E940C14F6017383628345
:100FF0000E942E180F900F900F900F902A960FB608
:10100000F894DEBF0FBECDBFCF91DF911F910F913E
:10101000FF90EF90DF90CF900895DF93CF9300D0B3
:1010200000D00F92CDB7DEB749835A836B837C83A0
:101030008D83822F90E00E94A6040F900F900F9056
:101040000F900F90CF91DF9108954F925F926F9222
:101050007F928F929F92AF92BF92CF92DF92EF9248
:10106000FF920F931F934A015B01280139018834D5
:1010700021F08C3409F06AC035C040933A03509394
:101080003B0360933C0370933D0300933E03109336
:101090003F03209340033093410340934203509316
:1010A00043036093440370934503C701B601A50150
:1010B00094010E94A4136093E2027093E302809370
:1010C000E4029093E502C301B201A50194010E94DC
:1010D000A4136093E6027093E7028093E802909372
:1010E000E90234C04093460350934703609348039A
:1010F0007093490300934A0310934B0320934C03CE
:1011000030934D03C0924E03D0924F03E0925003B0
:10111000F0925103C701B601A50194010E94A413E6
:101120006093EA027093EB028093EC029093ED02DD
:10113000C301B201A50194010E94A4136093EE02C1
:101140007093EF028093F0029093F1021F910F9140
:10115000FF90EF90DF90CF90BF90AF909F908F90D7
:101160007F906F905F904F9008952F923F924F9293
:101170005F926F927F928F929F92AF92BF92CF9227
:10118000DF92EF92FF920F931F93DF93CF93CDB730
:10119000DEB72C970FB6F894DEBF0FBECDBF461B4F
:1011A000570B8A01222717FD2095322F09831A83B6
:1011B0002B833C838C3409F0ABC0A090EA02B09042
:1011C000EB02C090EC02D090ED022090CA02309069
:1011D000CB024090CC025090CD026091DA02709127
:1011E000DB028091DC029091DD020E943F146D834E
:1011F0007E838F8398876091EE027091EF028091D9
:10120000F0029091F10220E030E040E85FE30E94BC
:101210003C13A60195010E943C137B018C0169815E
:101220007A818B819C810E943F149B01AC01C80193
:10123000B7010E94F3143B014C01C601B50120E047
:1012400030E040E050EC0E94F31420E030E040E851
:101250005FE30E943B137B018C01C201B1010E943C
:101260003F149B01AC01C801B7010E94F3149B011C
:10127000AC01C401B3010E943C137B018C0160915D
:10128000CE027091CF028091D0029091D1020E9443
:101290003F149B01AC01C601B5010E94F3149B01F0
:1012A000AC01C801B7010E943C1320914603309164
:1012B000470340914803509149030E94F3149B0156
:1012C000AC016D817E818F8198850E943C130E94C4
:1012D0000C149B01AC016093DA027093DB028093E3
:1012E000DC029093DD022092CE023092CF02409237
:1012F000D0025092D10289819A81AB81BC818093C6
:10130000CA029093CB02A093CC02B093CD02AAC0A4
:10131000A090E202B090E302C090E402D090E50217
:101320002090D2023090D3024090D4025090D50247
:101330006091DE027091DF028091E0029091E10203
:101340000E943F1469877A878B879C876091E602A9
:101350007091E7028091E8029091E90220E030E08C
:1013600040E85FE30E943C13A60195010E943C13F4
:101370007B018C0169817A818B819C810E943F1461
:101380009B01AC01C801B7010E94F3143B014C0161
:10139000C601B50120E030E040E050EC0E94F314BB
:1013A00020E030E040E85FE30E943B137B018C01CA
:1013B000C201B1010E943F149B01AC01C801B701F9
:1013C0000E94F3149B01AC01C401B3010E943C13C1
:1013D0007B018C016091D6027091D7028091D80276
:1013E0009091D9020E943F149B01AC01C601B50146
:1013F0000E94F3149B01AC01C801B7010E943C1389
:1014000020913A0330913B0340913C0350913D03BE
:101410000E94F3149B01AC0169857A858B859C85BC
:101420000E943C130E940C149B01AC016093DE02ED
:101430007093DF028093E0029093E1022092D60243
:101440003092D7024092D8025092D90289819A8173
:10145000AB81BC818093D2029093D302A093D4023B
:10146000B093D502213A9FE0390790E0490790E018
:1014700059072CF020EA3FE040E050E00CC0203655
:10148000A0EF3A07AFEF4A07AFEF5A0724F420E680
:1014900030EF4FEF5FEFC9012C960FB6F894DEBF27
:1014A0000FBECDBFCF91DF911F910F91FF90EF90B5
:1014B000DF90CF90BF90AF909F908F907F906F9074
:1014C0005F904F903F902F90089580912A00806800
:1014D00080932A0080912B00806880932B0080915C
:1014E0002400806280932400809124008F7B80936D
:1014F000240080912400806880932400809124003F
:1015000080618093240080912A00806180932A006A
:1015100080E58CBD1DBC08958EBD0DB407FEFDCFCA
:101520008EB508959B01AC0194E0220F331F441F38
:10153000551F9A95D1F760E070E489E191E00E942F
:10154000BB1621503040832F992787FD9A958093B1
:10155000CD002093CC0088E18093C90086E0809381
:10156000CA000895982F8091C80085FFFCCF909302
:10157000CE0008958091C80087FFFCCF8091CE00F7
:101580000895883439F08C3481F060E070E080E0B8
:1015900090E01DC080E090E00E94A60480E090E012
:1015A0000E94D90480E090E00AC081E090E00E94AF
:1015B000A60481E090E00E94D90481E090E00E94BE
:1015C000BD04A0E0B0E0BC01CD010E943D1420E0CC
:1015D00030E84FEF53E40E943B1320E030E04DE44D
:1015E00053E40E94A41320E030E04AE754E40E9450
:1015F000F31408958CE40E94C10A88E40E94C10A91
:101600000895EF92FF920F931F939A01AB018834D4
:10161000D9F460E070E084EB92E40E943B1320E098
:1016200030E84AEC53E40E94F31420E030E044EB4D
:1016300052E40E94A4137B018C016091810270919D
:101640008202655971401FC08C3419F065E872E060
:1016500028C060E070E084EB92E40E943B1320E03D
:1016600030E043EC53E40E94F31420E030E044EB1C
:1016700052E40E94A4137B018C016091830270915B
:10168000840266587140882777FD8095982F0E94C4
:101690003F149B01AC01C801B7010E943C130E949A
:1016A0000C14CB011F910F91FF90EF900895AF9212
:1016B000BF92CF92DF92EF92FF920F931F93A09071
:1016C0009302B0909402C0909502D0909602E09060
:1016D0009102F0909202AA2797FDA095BA2FBC0123
:1016E000CD010E943F14A60195010E94F3145B01F5
:1016F0006C010027F7FC0095102FC801B7010E946C
:101700003F149B01AC01C601B5010E943C130E942D
:101710000C14CB011F910F91FF90EF90DF90CF90B1
:10172000BF90AF900895AF92BF92CF92DF92EF92A9
:10173000FF920F931F93A0909902B0909A02C090CD
:101740009B02D0909C02E0909702F0909802AA270A
:1017500097FDA095BA2FBC01CD010E943F14A601B0
:1017600095010E94F3145B016C010027F7FC0095C2
:10177000102FC801B7010E943F149B01AC01C601A4
:10178000B5010E943C130E940C14CB011F910F91D4
:10179000FF90EF90DF90CF90BF90AF900895CF93E0
:1017A000DF93EB01883421F08C3409F046C021C06E
:1017B00083E090E00E94BD04AC0188E4BE010E9479
:1017C000B508EC0197FD08C082E090E0BE010E94E0
:1017D000020683E090E02DC082E090E060E070E0DF
:1017E0000E940206662777276C1B7D0B83E090E042
:1017F00022C082E090E00E94BD04AC018CE4BE01F6
:101800000E94B508EC0197FD0AC080E090E060E01E
:1018100070E00E94020681E090E0BE010CC06627E5
:101820007727681B790B80E090E00E94020681E038
:1018300090E060E070E00E940206DF91CF91089591
:10184000AF92BF92CF92DF92EF92FF920F931F93CE
:10185000DF93CF9300D0CDB7DEB727E030E03A83F7
:101860002983209840988091230080FD03C03A830B
:10187000298319C08091230081FD03C086E090E098
:1018800010C08091230082FD03C085E090E009C074
:101890008091230083FD03C084E090E002C088E0D3
:1018A00090E09A83898389819A818630910509F431
:1018B00060C0873091053CF48430910561F0059754
:1018C00009F0E7C051C08730910509F459C0089765
:1018D00009F0DFC08EC083E090E00E94BD049093C9
:1018E00082028093810282E090E00E94BD04909386
:1018F000840280938302609193027091940280919C
:10190000950290919602E0909102F090920220E070
:1019100030E040E251E40E94F3145B016C010027C7
:10192000F7FC0095102FC801B7010E943F149B01DE
:10193000AC01C601B5010E943C130E940C147093C7
:101940005303609352036091990270919A028091BF
:101950009B0290919C02E0909702F090980220E008
:1019600030E040E251E47DC080E090E064EB70E064
:1019700004C080E090E060E070E00E94E71289C05F
:1019800060919302709194028091950290919602D9
:10199000E0909102F090920220E030E044EB52E4BB
:1019A0000E94F3145B016C010027F7FC0095102FD7
:1019B000C801B7010E943F149B01AC01C601B501EB
:1019C0000E943C130E940C147093530360935203C3
:1019D0006091990270919A0280919B0290919C0271
:1019E000E0909702F090980220E030E040E050E074
:1019F00038C0609193027091940280919502909109
:101A00009602E0909102F090920220E030E044E3F0
:101A100052E40E94F3145B016C010027F7FC00956F
:101A2000102FC801B7010E943F149B01AC01C601F1
:101A3000B5010E943C130E940C14709353036093F1
:101A400052036091990270919A0280919B02909149
:101A50009C02E0909702F090980220E030E044E38E
:101A600052E40E94F3145B016C010027F7FC00951F
:101A7000102FC801B7010E943F149B01AC01C601A1
:101A8000B5010E943C130E940C147093550360939F
:101A900054030F900F90CF91DF911F910F91FF9002
:101AA000EF90DF90CF90BF90AF9008951F920F926C
:101AB0000FB60F921124EF92FF920F931F932F9363
:101AC0003F934F935F936F937F938F939F93AF93C6
:101AD000BF93EF93FF9380915A0390915B03A09182
:101AE0005C03B0915D030196A11DB11D80935A0363
:101AF00090935B03A0935C03B0935D0360915A03E2
:101B000070915B0380915C0390915D03E0906B02A8
:101B1000F0906C0200916D0210916E020E943D14D3
:101B2000A80197010E94EF1488230CF452C0109270
:101B30005A0310925B0310925C0310925D03809134
:101B4000F4029091F502A091F602B091F70201968D
:101B5000A11DB11D8093F4029093F502A093F602AB
:101B6000B093F7028091560390915703A0915803C8
:101B7000B09159030196A11DB11D80935603909316
:101B80005703A0935803B093590381E090E09093DA
:101B90000303809302030E94FA0A80912C03909120
:101BA0002D03892BB1F06091F8027091F9028091B8
:101BB000FA029091FB0220E030E040E85FE30E94EF
:101BC0003C136093F8027093F9028093FA029093A9
:101BD000FB028091560390915703A0915803B09156
:101BE00059030A97A105B10570F0609154037091F3
:101BF000550388E40E94CF0B609152037091530308
:101C00008CE40E94CF0B6091F8027091F9028091F0
:101C1000FA029091FB02209173023091740240917C
:101C20007502509176020E94EF14882334F081E00F
:101C300090E090930903809308036091F8027091FB
:101C4000F9028091FA029091FB0220917702309183
:101C500078024091790250917A020E94EF14882311
:101C600034F081E090E090930B0380930A0360913D
:101C7000F8027091F9028091FA029091FB02209192
:101C80007B0230917C0240917D0250917E020E9445
:101C9000EF148823B4F081E090E090930D038093DB
:101CA0000C0310922D0310922C0380E090E0A0E032
:101CB000B0E08093F8029093F902A093FA02B093F7
:101CC000FB02FF91EF91BF91AF919F918F917F9117
:101CD0006F915F914F913F912F911F910F91FF90C5
:101CE000EF900F900FBE0F901F9018952F923F927C
:101CF0004F925F926F927F928F929F92AF92BF921C
:101D0000CF92DF92EF92FF920F931F93DF93CF93C7
:101D1000CDB7DEB72A970FB6F894DEBF0FBECDBFA2
:101D20000E94291360E072EC81E090E00E94920A28
:101D3000DE011196EEEBF2E085E001900D9281500C
:101D4000E1F7DE011696E9EBF2E085E001900D92F5
:101D50008150E1F749815A816B817C818D8123E03B
:101D60000E940D084E815F81688579858A8524E00F
:101D70000E940D080E94650A80E090E060E070E03B
:101D800040E050E00E94571288E440E050E060EAF2
:101D900071E40AE017ED23E23CE30F2EFDECCF2EB9
:101DA000FCECDF2EFCECEF2EFDE3FF2EF02D0E946D
:101DB00025088CE440E050E060EA71E40AE017EDA9
:101DC00023E23CE30E94250880912B0080618093F0
:101DD0002B00789400D089E791E0EDB7FEB79283AD
:101DE00081830E942E180F900F9085E090E06AE0AA
:101DF00070E00E94E71234EE232E31E0332E25E905
:101E0000822E21E0922E9BEA692E91E0792E8AEBB8
:101E1000482E81E0582E8091020390910303892B74
:101E2000D1F38091F302823009F4E0C0833030F4C2
:101E3000882371F0813009F046C27BC0843009F4F8
:101E40003AC2843008F48BC1853009F03CC237C2F5
:101E500000D086E891E0EDB7FEB7928381830E94BF
:101E60002E18EDB7FEB7928281820E942E186091E3
:101E70009302709194028091950290919602E09065
:101E80009102F090920220E030E044E352E40E949C
:101E9000F3145B016C010027F7FC0095102FC801BB
:101EA000B7010E943F149B01AC01C601B5010E941D
:101EB0003C130E940C14709353036093520360917F
:101EC000990270919A0280919B0290919C02E090FD
:101ED0009702F090980220E030E044E352E40E9440
:101EE000F3145B016C010027F7FC0095102FC8016B
:101EF000B7010E943F149B01AC01C601B5010E94CD
:101F00003C130E940C1470935503609354030F907C
:101F10000F9080E090E060E070E00E94E712F8949B
:101F20008091230080FDEAC1F1E0F093F302789400
:101F3000E5C100D0EDB7FEB7728261820E942E1813
:101F40000F900F9084E00E948E078C0100D000D08B
:101F5000EDB7FEB752824182948383830E942E188C
:101F60000F900F900F900F908091A9029091AA026C
:101F70008017910714F0F2E0EFC060919302709126
:101F800094028091950290919602E0909102F090D7
:101F9000920220E030E044EB52E40E94F3145B0133
:101FA0006C010027F7FC0095102FC801B7010E94B3
:101FB0003F149B01AC01C601B5010E943C130E9475
:101FC0000C147093530360935203609199027091C3
:101FD0009A0280919B0290919C02E0909702F0906F
:101FE000980220E030E040E050E08FC000D08DEB60
:101FF00091E0EDB7FEB7928381830E942E18E1E055
:10200000F0E0F0932D03E0932C038091080390916E
:1020100009030F900F90892BC9F56091930270917D
:1020200094028091950290919602E0909102F09036
:10203000920220E030E044E352E40E94F3145B019A
:102040006C010027F7FC0095102FC801B7010E9412
:102050003F149B01AC01C601B5010E943C130E94D4
:102060000C14709353036093520360919902709122
:102070009A0280919B0290919C02E0909702F090CE
:10208000980220E030E044E352E43FC080910A032C
:1020900090910B03892B09F051C0609193027091CC
:1020A00094028091950290919602E0909102F090B6
:1020B000920220E030E040E751E40E94F3145B011B
:1020C0006C010027F7FC0095102FC801B7010E9492
:1020D0003F149B01AC01C601B5010E943C130E9454
:1020E0000C147093530360935203609199027091A2
:1020F0009A0280919B0290919C02E0909702F0904E
:10210000980220E030E040E751E40E94F3145B01C4
:102110006C010027F7FC0095102FC801B7010E9441
:102120003F149B01AC01C601B5010E943C130E9403
:102130000C147093550360935403E0C080910C031A
:1021400090910D03892B39F480E090E064EB70E00E
:102150000E94E712D3C0F3E0F093F302CFC000D0A7
:1021600086EC91E0EDB7FEB7928381830E942E1832
:1021700060919302709194028091950290919602E1
:10218000E0909102F090920220E030E044E352E4CB
:102190000E94F3145B016C010027F7FC0095102FDF
:1021A000C801B7010E943F149B01AC01C601B501F3
:1021B0000E943C130E940C147093530360935203CB
:1021C0006091990270919A0280919B0290919C0279
:1021D000E0909702F090980220E030E044E352E46F
:1021E0000E94F3145B016C010027F7FC0095102F8F
:1021F000C801B7010E943F149B01AC01C601B501A3
:102200000E943C130E940C14709355036093540376
:102210000F900F908CE40E94C10A7B018C016093A7
:10222000260370932703809328039093290320911A
:10223000A1023091A2024091A3025091A4020E94F7
:10224000EF148823ACF0C801B70120919D023091B2
:102250009E0240919F025091A0020E94A013181666
:102260003CF094E09093F30200D084ED91E01AC02A
:10227000C801B7012091A5023091A6024091A702A2
:102280005091A8020E94EF1488234CF095E090939F
:10229000F30200D0EDB7FEB73282218207C000D032
:1022A00084EF91E0EDB7FEB7928381830E942E18F0
:1022B0000F900F9023C000D08CEF91E0F3CF00D0AF
:1022C0008AE092E0EFCF81E090E02A960FB6F89492
:1022D000DEBF0FBECDBFCF91DF911F910F91FF9059
:1022E000EF90DF90CF90BF90AF909F908F907F90B6
:1022F0006F905F904F903F902F9008951092F20250
:102300008ACD0895089508950895CF93DF93EB0142
:10231000892BC1F477FD09C080E090E060E070E0B7
:102320000E94020681E090E020C081E090E060E041
:1023300070E00E940206662777276C1B7D0B80E009
:1023400090E014C077FD09C083E090E060E070E0A9
:102350000E94020682E090E008C082E090E060E027
:1023600070E00E94020683E090E0BE010E94020637
:10237000DF91CF910895835F9040AA2797FDA095A4
:10238000BA2FBC01CD010E943F1429EE36E24DE880
:1023900050E40E94A4130E940C14CB010895AA27B4
:1023A00097FDA095BA2FBC01CD010E943F1425EEE8
:1023B00030ED4AE050E40E94F31420E030E042EEB9
:1023C00052E40E943C130E940C14CB010895EF923A
:1023D000FF920F931F93DF93CF93CDB7DEB72C9768
:1023E0000FB6F894DEBF0FBECDBF49835A836B830F
:1023F0007C838D839E83EF82F88609871A872B87DB
:102400003C8782E090E00E94BD04182F092F83E0F2
:1024100090E00E94BD049093350380933403812F94
:10242000902F0E94CF11812F902F0E94BB118C0101
:1024300080913403909135030E94CF11909337031C
:102440008093360380913403909135030E94BB1131
:10245000909339038093380300D000D088E192E054
:10246000EDB7FEB792838183148303830E942E18F5
:1024700081E392E0EDB7FEB79283818380913803C8
:1024800090913903948383830E942E180F900F90AC
:102490000F900F902C960FB6F894DEBF0FBECDBFF5
:1024A000CF91DF911F910F91FF90EF9008959C01C4
:1024B000F8948130910569F082309105A9F0009778
:1024C000D9F416BC83E085BD81E080936E0085BBA6
:1024D00013C0109285001092840081E080938100E7
:1024E00080936F0086BB08C01092B20081E0809399
:1024F000B1008093700087BB6130710521F52130F8
:10250000310569F022303105B1F0232BE1F482E08E
:1025100084BD15BC47BD80936E0085BB14C088E0A8
:1025200080938100509389004093880082E08093DB
:102530006F0086BB08C082E08093B0004093B30078
:102540008093700087BB78940895813039F0813092
:1025500018F0823051F407C067BD08957093890068
:102560006093880008956093B30008959B01AC01C7
:1025700084E0220F331F441F551F8A95D1F760E076
:1025800070E489E191E00E94BB1621503040309305
:10259000C5002093C40088E18093C10086E0809349
:1025A000C2000895982F8091C00085FFFCCF9093C2
:1025B000C6000895FC0107C08091C00085FFFCCFD4
:1025C0009093C600319690819923B1F708950F93A7
:1025D0001F93DF93CF93CDB7DEB764970FB6F89410
:1025E000DEBF0FBECDBF2DB73EB7285030400FB66F
:1025F000F8943EBF0FBE2DBFEDB7FEB731968E01EA
:102600000F5F1F4FADB7BEB712961C930E93119775
:102610002BE432E03383228395838483778366833C
:102620000E9443182DB73EB7285F3F4F0FB6F8946E
:102630003EBF0FBE2DBFC8010E94DA1264960FB6CE
:10264000F894DEBF0FBECDBFCF91DF911F910F91E8
:1026500008958BEA92E090936E0380936D0360E09F
:1026600072EC81E090E00E94B61208950E94B20AD6
:1026700080E090E008955058BB27AA270ED075C17E
:1026800066D130F06BD120F031F49F3F11F41EF48D
:102690005BC10EF4E095E7FB51C1E92F77D180F3E0
:1026A000BA17620773078407950718F071F49EF54F
:1026B0008FC10EF4E0950B2EBA2FA02D0B01B9019E
:1026C00090010C01CA01A0011124FF27591B99F0A8
:1026D000593F50F4503E68F11A16F040A22F232FB4
:1026E000342F4427585FF3CF469537952795A79504
:1026F000F0405395C9F77EF41F16BA0B620B730BAB
:10270000840BBAF09150A1F0FF0FBB1F661F771F1B
:10271000881FC2F70EC0BA0F621F731F841F48F4D0
:10272000879577956795B795F7959E3F08F0B3CF56
:102730009395880F08F09927EE0F97958795089540
:10274000D9D008F481E008950CD00FC107D140F032
:10275000FED030F021F45F3F19F0F0C0511139C1C3
:10276000F3C014D198F39923C9F35523B1F3951B02
:10277000550BBB27AA2762177307840738F09F5FA2
:102780005F4F220F331F441FAA1FA9F333D00E2E11
:102790003AF0E0E830D091505040E695001CCAF77E
:1027A00029D0FE2F27D0660F771F881FBB1F261743
:1027B00037074807AB07B0E809F0BB0B802DBF0116
:1027C000FF2793585F4F2AF09E3F510568F0B6C02F
:1027D00000C15F3FECF3983EDCF3869577956795F3
:1027E000B795F7959F5FC9F7880F911D96958795C7
:1027F00097F90895E1E0660F771F881FBB1F6217E6
:1028000073078407BA0720F0621B730B840BBA0BA3
:10281000EE1F88F7E095089504D06894B111D9C0EF
:102820000895BCD088F09F5790F0B92F9927B751E1
:10283000A0F0D1F0660F771F881F991F1AF0BA9584
:10284000C9F712C0B13081F0C3D0B1E00895C0C063
:10285000672F782F8827B85F39F0B93FCCF386957A
:1028600077956795B395D9F73EF4909580957095D7
:1028700061957F4F8F4F9F4F0895E89409C097FB54
:102880003EF490958095709561957F4F8F4F9F4F47
:102890009923A9F0F92F96E9BB279395F69587958B
:1028A00077956795B795F111F8CFFAF4BB0F11F44E
:1028B00060FF1BC06F5F7F4F8F4F9F4F16C08823F5
:1028C00011F096E911C0772321F09EE8872F762F2B
:1028D00005C0662371F096E8862F70E060E02AF06C
:1028E0009A95660F771F881FDAF7880F9695879558
:1028F00097F90895990F0008550FAA0BE0E8FEEF2D
:1029000016161706E807F907C0F012161306E407B3
:10291000F50798F0621B730B840B950B39F40A26AC
:1029200061F0232B242B252B21F408950A2609F48A
:10293000A140A6958FEF811D811D089597F99F678E
:1029400080E870E060E008959FEF80EC0895002437
:102950000A941616170618060906089500240A9404
:1029600012161306140605060895092E0394000C8A
:1029700011F4882352F0BB0F40F4BF2B11F460FF19
:1029800004C06F5F7F4F8F4F9F4F089557FD905842
:10299000440F551F59F05F3F71F04795880F97FB23
:1029A000991F61F09F3F79F08795089512161306DD
:1029B0001406551FF2CF4695F1DF08C0161617060C
:1029C0001806991FF1CF8695710561050894089541
:1029D000E894BB2766277727CB0197F908958ADF0C
:1029E00008F48FEF08950BD0C0CFB1DF28F0B6DF29
:1029F00018F0952309F0A2CFA7CF1124EACFC6DFA4
:102A0000A0F3959FD1F3950F50E0551F629FF00101
:102A1000729FBB27F00DB11D639FAA27F00DB11D5A
:102A2000AA1F649F6627B00DA11D661F829F2227E3
:102A3000B00DA11D621F739FB00DA11D621F839F6A
:102A4000A00D611D221F749F3327A00D611D231F40
:102A5000849F600D211D822F762F6A2F11249F578E
:102A600050408AF0E1F088234AF0EE0FFF1FBB1FB1
:102A7000661F771F881F91505040A9F79E3F510550
:102A800070F05CCFA6CF5F3FECF3983EDCF3869509
:102A900077956795B795F795E7959F5FC1F7FE2BFB
:102AA000880F911D9695879597F90895FA01EE0F75
:102AB000FF1F30962105310599F16115710561F40B
:102AC0008038BFE39B0749F168949038810561F035
:102AD0008038BFEF9B0741F0992342F5FF3FE105A6
:102AE0003105210511F1E8940894E795D901AA234D
:102AF00029F4AB2FBE2FF85FD0F310C0FF5F70F446
:102B0000A695E0F7F73950F019F0FF3A38F49F77BF
:102B10009F930CD00F9007FC905808953EF014CF6F
:102B200060E070E080E89FE308954FE79F775F9350
:102B30004F933F932F939ED02F913F914F915F9151
:102B400052DF05C019F40EF0F9CE42CFFDCE26DFDC
:102B5000C8F39638C0F707F80F92E8942BE33AEAE7
:102B600048EB5FE74EDF0F920F920F924DB75EB7C3
:102B70000F92C0D0ECE7F0E016D04F915F91EF914B
:102B8000FF91E595EE1FFF1F49F0FE57E0684427CF
:102B9000EE0F441FFA95E1F74195550B32D00F9097
:102BA00007FE26C00895DF93CF931F930F93FF92E4
:102BB000EF92DF927B018C01689405C0DA2EEF0161
:102BC0001EDFFE01E894A59125913591459155911F
:102BD000AEF3EF0162DDFE019701A801DA9479F707
:102BE000DF90EF90FF900F911F91CF91DF910895AB
:102BF0009B01AC0160E070E080E89FE3A5CD9ECE34
:102C0000ACC0CCDEE8F39923D9F3940F511DBBF38C
:102C10009150504094F059F0882332F0660F771F9E
:102C2000881F91505040C1F79E3F510544F7880FCF
:102C3000911D9695879597F908955F3FACF0983E62
:102C40009CF0BB27869577956795B79508F4B1609A
:102C50009395C1F7BB0F58F711F460FFE8CF6F5F92
:102C60007F4F8F4F9F4FE3CFB4CE0EF076C06CCE28
:102C7000689464CE93DEC8F39923D1F3C6F3DF934F
:102C8000CF931F930F93FF92C92FDD2788232AF03C
:102C90002197660F771F881FDAF720E030E040E8C1
:102CA0005FEB9FE3883920F0803E30F021968F77EC
:102CB000E3DCE4EAF0E003C0DFDCE1EDF0E073DF49
:102CC0008B01BE01EC01FB2E6F5771097595771FC3
:102CD000880B990BD4DD28E132E741E35FE38FDE17
:102CE000AF2D9801AE01FF900F911F91CF91DF9111
:102CF000D4DC3BCEFA01DC01AA0FBB1F9B01AC0167
:102D0000BF5728F422273327442750781FC0B751D4
:102D100088F4AB2F0024469537952795011CA39581
:102D2000D2F3002069F0220F331F441FB395DAF36A
:102D30000DD0A1CC61307105A0E88A07B94630F406
:102D40009B01AC016627772788279078309621F081
:102D5000208331834283538308959F3F31F0915004
:102D600020F4879577956795B795880F911D96956F
:102D7000879597F90895A1E21A2EAA1BBB1BFD01A6
:102D80000DC0AA1FBB1FEE1FFF1FA217B307E4074A
:102D9000F50720F0A21BB30BE40BF50B661F771FA2
:102DA000881F991F1A9469F7609570958095909582
:102DB0009B01AC01BD01CF0108952F923F924F922C
:102DC0005F926F927F928F929F92AF92BF92CF92BB
:102DD000DF92EF92FF920F931F93CF93DF93CDB7C4
:102DE000DEB7CA1BDB0B0FB6F894DEBF0FBECDBF3C
:102DF00009942A88398848885F846E847D848C840D
:102E00009B84AA84B984C884DF80EE80FD800C8115
:102E10001B81AA81B981CE0FD11D0FB6F894DEBFF8
:102E20000FBECDBFED010895283008F027E033270D
:102E3000DA01990F311D87FD9160009661057105DA
:102E400039F432602E5F3D9330E32A95E1F708951F
:102E50009F3F30F080387105610509F03C5F3C5FB1
:102E60003D93913008F08068911DDF93CF931F93BD
:102E70000F93FF92EF92192F987F9695E92F9695D1
:102E80009695E90FFF27E05AFE4F99273327EE2446
:102E9000FF24A701E70105900894079428F4360F52
:102EA000E71EF81E491F511D660F771F881F991FC7
:102EB0000694A1F70590079428F4E70EF81E491F21
:102EC000561FC11D770F881F991F661F0694A1F713
:102ED0000590079428F4F80E491F561FC71FD11DEF
:102EE000880F991F661F771F0694A1F70590079416
:102EF00020F4490F561FC71FD81F990F661F771F51
:102F0000881F0694A9F784911095177041F0D69503
:102F1000C79557954795F794E7941A95C1F7E6E05A
:102F2000F1E0689415901591359165919591059012
:102F30007FE27395E118F10A430B560BC90BD009D8
:102F4000C0F7E10CF11E431F561FC91FD01D7EF4B0
:102F5000703311F48A95E6CFE894015030F0080FF1
:102F60000AF40027021708F4202F2395022F7A3342
:102F700028F079E37D932A95E9F710C07D932A958F
:102F800089F6069497956795379517951794E118E4
:102F9000F10A430B560BC90BD00998F023957E918B
:102FA00073957A3308F070E37C932013B8F77E9121
:102FB00070617D9330F0839571E37D9370E32A9582
:102FC000E1F71124EF90FF900F911F91CF91DF91C6
:102FD000992787FD90950895FC01059061507040F8
:102FE0000110D8F7809590958E0F9F1F0895FC01D2
:102FF0006150704001900110D8F7809590958E0F28
:103000009F1F08950F931F93CF93DF938C01EB01C4
:103010008B8181FF1BC082FF0DC02E813F818C817F
:103020009D812817390764F4E881F9810193F983B8
:10303000E88306C0E885F985802F0995892B31F44E
:103040008E819F8101969F838E8302C00FEF1FEFB9
:10305000C801DF91CF911F910F910895A0E0B0E0DA
:10306000E4E3F8E10C94ED16FE013596619171915F
:1030700080916D0390916E03AF010E941F01209615
:10308000E2E00C940917AEE0B0E0E9E4F8E10C945A
:10309000EB160D891E8986E08C831A8309838FEFD6
:1030A0009FE79E838D839E01275E3F4FCE01019651
:1030B0006F89788DA9010E941F012F813885020F29
:1030C000131FF80110822E96E4E00C940717FA0102
:1030D000AA27283051F1203181F1E8946F936E7F57
:1030E0006E5F7F4F8F4F9F4FAF4FB1E03ED0B4E048
:1030F0003CD0670F781F891F9A1FA11D680F791F89
:103100008A1F911DA11D6A0F711D811D911DA11D99
:1031100020D009F468943F912AE0269F11243019A9
:10312000305D3193DEF6CF010895462F4770405D44
:103130004193B3E00FD0C9F7F6CF462F4F70405DF3
:103140004A3318F0495D31FD4052419302D0A9F74E
:10315000EACFB4E0A6959795879577956795BA9548
:10316000C9F700976105710508959B01AC010A2E0E
:1031700006945795479537952795BA95C9F7620FE5
:0E318000731F841F951FA01D0895F894FFCFA4
:10318E00582047733A202566203B200A0D0059200F
:10319E0047733A202566203B200A0D005A204773BC
:1031AE003A202566203B200A0D00456E636F64654C
:1031BE00722030203A25662064656772656573203B
:1031CE000A0D00456E636F6465722031203A2566E4
:1031DE002064656772656573200A0D0020495220D0
:1031EE0044697374616E63653A202000204952323F
:1031FE003A20256420200A0D00496E6974436F6DD4
:10320E00706C6574650053746174653A20484F4D57
:10321E0045200A0D0053776974636820533020747B
:10322E006F205374617274200A0D005374617465BB
:10323E003A2057414954200A0D0025640047524157
:10324E005350200A0D0057484943485F4D41535390
:10325E00200A0D004C6967687420576569676874A9
:10326E00200A0D0048656176792057656967687494
:10327E00200A0D004E4F4E45200A0D0044524F506D
:10328E005F4C49474854200A0D0044524F505F4846
:10329E0045415659200A0D00205570706572204A1E
:1032AE006F696E7420416E676C65202564200A0D6F
:1032BE0000204C6F776572204A6F696E7420416EE4
:1032CE00676C653A202564200A0D0053657473659A
:1032DE0072766F2825642C25303364290A0D000080
:1032EE0000A040AE47613ED74C4E3F00001041005B
:1032FE0000C8420000E6430080094400C00F44E8C5
:10330E0003850244020700030000000004000000D1
:10331E0000FA00713D6A40FA00B81E8540000016A2
:10332E004300007A430000AF43C8000000000200D3
:10333E00000000361300000000040000000003002F
:04334E00000000007B
:00000001FF
