:100000000C942B010C9448010C9448010C94480169
:100010000C9448010C9448010C9448010C9448013C
:100020000C9448010C9448010C9448010C9448012C
:100030000C9448010C9448010C9448010C9448011C
:100040000C9448010C9448010C94700E0C944801D7
:100050000C9448010C9448010C9448010C944801FC
:100060000C9448010C9448010C9448010C944801EC
:100070000C9448010C9448010C944801084AD73B61
:100080003BCE016E84BCBFFDC12F3D6C74319ABD67
:1000900056833DDA3D00C77F11BED9E4BB4C3E918B
:1000A0006BAAAABE000000803F072C7AA5BA6CC5D7
:1000B00090DA3B9365FC8BBC53F810FD3C56928361
:1000C0004DBD879D3AB63DCBC9BF5BBE73DA0FC944
:1000D0003F07634236B79BD8A71A39685618AEBA9D
:1000E000AB558C1D3CB7CC5763BD6DEDFD753EF631
:1000F000177231BF000000803F08000000BE92244C
:1001000049123EABAAAA2ABECDCCCC4C3E00000080
:1001100080BEABAAAAAA3E00000000BF000000807B
:100120003F0000000000084178D3BB4387D1133D56
:10013000190E3CC3BD4282AD2B3E68EC8276BED91F
:100140008FE1A93E4C80EFFFBE01C4FF7F3F00005E
:100150000000006E616E00696E660000407A10F368
:100160005A00A0724E18090010A5D4E80000E876E5
:1001700048170000E40B54020000CA9A3B0000003C
:10018000E1F505000080969800000040420F000055
:1001900000A08601000000102700000000E8030016
:1001A0000000006400000000000A000000000001E0
:1001B00000000000002C76D888DC674F0823DFC1E0
:1001C000DFAE59E1B1B796E5E3E453C63AE651999B
:1001D0007696E8E6C28426EB898C9B62ED407C6FC4
:1001E000FCEFBC9C9F40F2BAA56FA5F490055A2A7B
:1001F000F75C936B6CF9676DC11BFCE0E40D47FE87
:10020000F520E6B500D0ED902E030094357705007B
:1002100080841E080000204E0A000000C80C333302
:1002200033330F986E12831141EF8D2114893BE611
:100230005516CFFEE6DB18D1844B381BF77C1D909A
:100240001DA4BBE424203284725E228100C9F12403
:10025000ECA1E53D270011241FBECFEFD0E1DEBFAA
:10026000CDBF12E0A0E0B1E0E6E9F8E302C00590FE
:100270000D92AE3CB107D9F713E0AEECB2E001C08D
:100280001D92AF37B107E1F70E94AA0F0C94491CE9
:100290000C940000A1E1B0E0E0E5F1E00C94611AFB
:1002A0003C017F876E876A01FC0117821682838179
:1002B00081FD03C06FEF7FEF6FC39E012F5F3F4F44
:1002C000398B288BF3012381EE85FF8523FD8591F2
:1002D00023FF8191FF87EE87882309F45AC3853273
:1002E00051F4EE85FF8523FD859123FF8191FF87E2
:1002F000EE87853229F490E0B3010E94861BE2CF9D
:10030000982F10E0882499241032B0F49B3269F0C1
:100310009C3228F4903251F0933271F40BC09D322C
:1003200039F0903349F4116028C01260146025C080
:10033000186023C0106121C017FD2AC0892F805387
:100340008A3078F416FF06C0FAE09F9E902C1124A4
:10035000980E13C03AE0839E802C1124880E106200
:100360000CC09E3221F416FD14C3106406C09C36E6
:1003700011F4106802C0983659F4EE85FF8523FD0C
:10038000959123FF9191FF87EE87992309F0BCCFC8
:10039000892F8554833020F4812F8061905E07C0BF
:1003A000892F8556833008F09FC1812F8F7E86FD6F
:1003B00002C076E0972E6FE3F62EF822953619F4F8
:1003C000F0E4FF2A07C0963619F420E8F22A02C0AA
:1003D00091109A94F7FE0AC03BE3391518F45CE3D8
:1003E000B52E02C0B92CB39427E009C047E04915E7
:1003F00020F4BB2447E0942EF7CF292DBB24C6015F
:1004000004969D878C87F60160817181828193813A
:10041000AE014F5F5F4F0B2D0E94981A6C0109814E
:10042000202E332400FF04C003FD02C01DE209C0DA
:10043000F1FE02C01BE205C0F2FC02C010E001C0E8
:1004400010E2C1018C709070892BB9F1112311F465
:1004500083E001C084E0881510F088240AC0881A5F
:10046000F3FC07C080E290E0B3010E94861B8A94EF
:10047000C9F7112329F0812F90E0B3010E94861B58
:1004800023FE03C003E511E00EC007E511E00BC039
:10049000E114F10409F0805290E0B3010E94861B40
:1004A0000F5F1F4F05C0EF2CFF24F0E1EF22FF2468
:1004B000F8018491882361F714C1F7FE12C0BC0CC7
:1004C00024FE04C08A81813309F4BA941B141CF001
:1004D000BB24B3942DC0F8E0FB1550F538E0B32EE3
:1004E00027C0F6FC25C0892D90E08C159D054CF0A9
:1004F0002CEFC2162FEFD20624F030E8F32A01C009
:100500009A94992049F0E2E0F0E0EC0FFD1FE90D2C
:10051000F11D80818033A1F3F7FE0AC0B92CB3949A
:10052000892D90E0C816D90614F0992401C09C18B2
:10053000F7FC03C025E030E009C01C141D041CF0CA
:1005400021E030E003C096012F5F3F4F112311F0EF
:100550002F5F3F4F992029F0892D90E00196280FB9
:10056000391F882D90E02817390714F0882401C01E
:10057000821A4F2C5524C20189709070892B39F052
:1005800008C080E290E0B3010E94861B8A94882014
:10059000C1F7112329F0812F90E0B3010E94861B3F
:1005A00043FE07C008C080E390E0B3010E94861BB1
:1005B0008A948820C1F7F7FE46C08601D7FE02C0A4
:1005C00000E010E076010894E11CF11CE01AF10A49
:1005D00041E050E04C0F5D1FE40EF51E26014B1864
:1005E0005108892D90E0AA24BB24A81AB90A5FEF0C
:1005F0000F3F150729F48EE290E0B3010E94861B9D
:10060000C016D10634F0401651061CF4F701808163
:1006100001C080E3015010400894E11CF11C0A1550
:100620001B052CF090E0B3010E94861BE0CF0C1557
:100630001D0539F49A81963318F4953311F424FE8C
:1006400081E390E04BC08A81813309F00F7E90E016
:10065000B3010E94861B9920A1F08EE290E0B301C5
:100660000E94861B12E0E1E0F0E0EC0FFD1FE10FBD
:10067000F11D1F5F808190E0B3010E94861B9A9458
:1006800091F744FC03C085E690E002C085E490E069
:10069000B3010E94861BD7FC05C0C114D10441F4EC
:1006A00004FF06C0D094C194D108D3948DE201C058
:1006B0008BE290E0B3010E94861B80E305C08F5F50
:1006C00026EF3FEFC20ED31E3AE0C316D104BCF7AB
:1006D00090E0B3010E94861BC601C096B3010E9440
:1006E000861BCC84DD8452C1933631F0933799F068
:1006F000933509F059C023C0F601808189835E01DA
:100700000894A11CB11C22E030E0C20ED31E21E0EF
:10071000E22EF12C12C0F601A080B18016FD03C0BC
:100720006FEF7FEF02C0692D70E022E030E0C20E73
:10073000D31EC5010E947B1B7C011F7713C0F601ED
:10074000A080B18016FD03C06FEF7FEF02C0692D5E
:1007500070E022E030E0C20ED31EC5010E94701B83
:100760007C01106813FF07C01BC080E290E0B3015A
:100770000E94861B8A94882D90E0E816F906A8F35B
:100780000FC0F50117FD859117FF81915F0190E082
:10079000B3010E94861B81108A940894E108F10835
:1007A000E114F10471F7F2C0943611F0993689F52D
:1007B00017FF08C0F601208131814281538184E016
:1007C00090E00AC0F601808191819C01442737FDA9
:1007D0004095542F82E090E0C80ED91E9FE6F92E76
:1007E000F12257FF09C050954095309521953F4F14
:1007F0004F4F5F4F90E8F92ACA01B901AE014F5F30
:100800005F4F2AE030E00E94EB1BE82EE889EE1AE9
:1008100041C0953721F41F7E2AE030E01CC0197FCB
:100820009F3661F0903720F4983509F0B2C00FC0C0
:10083000903739F0983709F0ACC004C028E030E0B8
:100840000AC0106114FD146020E130E004C014FD02
:10085000166020E132E017FF08C0F6016081718167
:100860008281938144E050E008C0F601808191814B
:10087000BC0180E090E042E050E0C40ED51EAE0125
:100880004F5F5F4F0E94EB1BE82E5889E51A8FE7F8
:10089000F82EF122F6FE0BC08EEFF822E91438F4A0
:1008A000F4FE07C0F2FC05C09FEEF92202C01E2D27
:1008B00001C0192DF4FE0DC0FE01EE0DF11D808169
:1008C000803319F4E9EEFE2208C01F5FF2FE05C076
:1008D00003C08F2D867809F01F5F0F2DF3FC14C025
:1008E000F0FE0FC0181510F09E2C0BC09E2C980C1B
:1008F000911A182D06C080E290E0B3010E94861B79
:100900001F5F1815C0F304C0181510F4811A01C038
:10091000882404FF0FC080E390E0B3010E94861B8F
:1009200002FF1DC001FD03C088E790E00EC088E50E
:1009300090E00BC0802F867891F001FF02C08BE21F
:1009400001C080E2F7FC8DE290E0B3010E94861BBB
:1009500006C080E390E0B3010E94861B9A94E914DC
:10096000C0F3EA94E1E0F0E0EC0FFD1FEE0DF11DA5
:10097000808190E0B3010E94861BEE2091F706C0B3
:1009800080E290E0B3010E94861B8A948820C1F720
:1009900099CCF30166817781CB016196E2E10C94F9
:1009A0007D1A806480937C00EAE7F0E080818760B4
:1009B000808380818068808380818064808380E4FC
:1009C00080937B0011B80895807480937C00089513
:1009D00020917C0087709070287F282B20937C00CA
:1009E00080917A00806480937A0080917A0084FFFD
:1009F000FCCF80917A00806180937A00209178000A
:100A000030917900C9010895806480937C00089535
:100A10006F927F928F929F92AF92BF92CF92DF920E
:100A2000EF92FF920F931F935B016C01E0906602BF
:100A3000F09067020091680210916902A801970185
:100A40000E94281860906A0270906B0280906C027D
:100A500090906D02882374F0C601B501A80197013A
:100A60000E94FA15A40193010E949618AC01CB01D3
:100A7000DA010FC0C801B701A60195010E94FA155D
:100A8000A40193010E9496189B01AC01DA01C901EF
:100A9000B058BC01CD011F910F91FF90EF90DF90F6
:100AA000CF90BF90AF909F908F907F906F90089560
:100AB00020916E0230916F0240917002509171024C
:100AC0000E94961808951F93182F5F9886E00E9441
:100AD000B70A812F8295880F880F807C0E94B70A01
:100AE000182F80E00E94B70A5F9A512F40E0282F0C
:100AF00030E0242B352BC9011F9108952F923F928E
:100B00004F925F926F927F928F929F92AF92BF921D
:100B1000CF92DF92EF92FF920F931F9380E090E0CD
:100B20000E9463057C0181E090E00E9463055C0106
:100B300082E090E00E9463053C0120906E023090BC
:100B40006F02409070025090710200E010E0C80106
:100B5000B7010E945A17A20191010E949618162F00
:100B6000072FF82EE92ECC24DD24C601B5010E9402
:100B70005A17A20191010E949618D62EC72EB82EA0
:100B8000A92E88249924C401B3010E945A17A201F6
:100B900091010E949618562E472E382E292E212F6D
:100BA000302F4F2D5E2DB901CA010E9408053B016F
:100BB0004C012D2D3C2D4B2D5A2DB901CA010E94FF
:100BC00008055B016C01252D342D432D522DB901F3
:100BD000CA010E9408057B018C0100D000D000D022
:100BE00080E091E0EDB7FEB79283818363827482E7
:100BF000858296820E94B21B8EE091E0EDB7FEB72F
:100C000092838183A382B482C582D6820E94B21B62
:100C10008CE191E0EDB7FEB792838183E382F482A9
:100C2000058316830E94B21B8DB79EB706960FB63A
:100C3000F8949EBF0FBE8DBF1F910F91FF90EF9054
:100C4000DF90CF90BF90AF909F908F907F906F90EC
:100C50005F904F903F902F900895EF92FF920F93E7
:100C60001F93482FCB0120E16030720714F08FEF03
:100C70009FE07C010027F7FC0095102F80912B004E
:100C80008F7E80932B00842F80630E94B70AD80147
:100C9000C70124E0B695A795979587952A95D1F732
:100CA0000E94B70A8FE090E0A0E0B0E0E822F922CD
:100CB0000A231B238E2D8295807F0E94B70A809184
:100CC0002B00806180932B0080912B008F7E80937E
:100CD0002B0080912B00806180932B001F910F913E
:100CE000FF90EF90089581E090E00895009719F04B
:100CF0000197E1F40EC0809128008F7D8093280039
:100D000080E20E94B70A80912800806280932800C8
:100D10000895809128008F7E8093280080E20E94B1
:100D2000B70A8091280080618093280008958091FF
:100D300028008F7D8093280088E80E94B70A809160
:100D40002800806280932800809128008F7E809305
:100D5000280088E80E94B70A80912800806180936B
:100D600028000895FF920F931F93009729F0019791
:100D700069F140E050E055C0809128008F7D80935C
:100D8000280080E60E94B70A80E00E94B70A182F68
:100D900080E00E94B70A082F80E00E94B70AF82E70
:100DA00080E00E94B70A512F552740E0302F3327AB
:100DB00020E0422B532B90E0482B592B9F2D80E0B5
:100DC000482B592B80912800806229C080912800EF
:100DD0008F7E8093280080E60E94B70A80E00E9400
:100DE000B70A182F80E00E94B70A082F80E00E94FF
:100DF000B70AF82E80E00E94B70A512F552740E02D
:100E0000302F332720E0422B532B90E0482B592BD7
:100E10009F2D80E0482B592B809128008061809382
:100E20002800CA011F910F91FF9008950F931F93FF
:100E30008091270080628093270080912800806243
:100E40008093280080912700806180932700809103
:100E500028008061809328008091D2029091D30273
:100E6000892B79F480E090E00E94760681E090E0A2
:100E70000E94760681E090E09093D3028093D202A4
:100E80005DC080E090E00E94B2069093CF02809314
:100E9000CE0281E090E00E94B2069093D10280934E
:100EA000D00200D000D000D00DB71EB70F5F1F4F8B
:100EB0008AE291E0EDB7FEB7928381836091CE0222
:100EC0007091CF02882777FD8095982F0E945C173C
:100ED0002CE53FE842E45EE30E943318F8016283A8
:100EE0007383848395830E94B21B0DB71EB70F5F77
:100EF0001F4F83E491E0EDB7FEB792838183609149
:100F0000D0027091D102882777FD8095982F0E949A
:100F10005C172FE832EC45EF5DE30E943318F801CF
:100F200062837383848395830E94B21B8DB79EB7BF
:100F300006960FB6F8949EBF0FBE8DBF1F910F91FE
:100F40000895AA2797FDA095BA2FBC01CD010E9454
:100F50005C1722E23EE845EB5EEB0E94331820E08E
:100F600030E840E953E40E94FB150E942917CB01A9
:100F7000089590E00E94E804AA2797FDA095BA2F53
:100F8000BC01CD010E945C1722E23EE845EB5EEB1E
:100F90000E94331820E030E840E953E40E94FB153A
:100FA0000E942917CB010895CF92DF92EF92FF9212
:100FB0000F931F93DF93CF93CDB7DEB72A970FB66A
:100FC000F894DEBF0FBECDBF49835A836B837C8309
:100FD0008D83EE82FF82088719872A87842F0E94DB
:100FE000B9078E810E94B9077C0100D08CE591E0A1
:100FF000EDB7FEB7928381830E94B21B00D0CDB6BD
:10100000DEB60894C11CD11C8CE691E0EDB7FEB7AA
:10101000928381830027F7FC0095102FC801B70148
:101020000E945C1722E23EE845EB5EEB0E9433181B
:1010300020E030E840E953E40E94FB150E942917A4
:10104000F601738362830E94B21B0F900F900F9082
:101050000F902A960FB6F894DEBF0FBECDBFCF918A
:10106000DF911F910F91FF90EF90DF90CF90089547
:10107000DF93CF9300D000D00F92CDB7DEB7498376
:101080005A836B837C838D83822F90E00E94D104EE
:101090000F900F900F900F900F90CF91DF910895C8
:1010A0004F925F926F927F928F929F92AF92BF9278
:1010B000CF92DF92EF92FF920F931F934A015B0151
:1010C00028013901883421F08C3409F06AC035C018
:1010D000409346035093470360934803709349033A
:1010E00000934A0310934B0320934C0330934D031A
:1010F00040934E0350934F036093500370935103FA
:10110000C701B601A50194010E94C1166093EC02CB
:101110007093ED028093EE029093EF02C301B2014F
:10112000A50194010E94C1166093F0027093F10230
:101130008093F2029093F30234C040935203509391
:101140005303609354037093550300935603109315
:1011500057032093580330935903C0925A03D092F7
:101160005B03E0925C03F0925D03C701B601A50149
:1011700094010E94C1166093F4027093F50280936B
:10118000F6029093F702C301B201A50194010E94F7
:10119000C1166093F8027093F9028093FA0290935B
:1011A000FB021F910F91FF90EF90DF90CF90BF90C7
:1011B000AF909F908F907F906F905F904F90089529
:1011C0002F923F924F925F926F927F928F929F9257
:1011D000AF92BF92CF92DF92EF92FF920F931F9345
:1011E000DF93CF93CDB7DEB72C970FB6F894DEBF61
:1011F0000FBECDBF461B570B8A01222717FD209536
:10120000322F09831A832B833C838C3409F0ABC0C3
:10121000A090F402B090F502C090F602D090F702D0
:101220002090D4023090D5024090D6025090D70240
:101230006091E4027091E5028091E6029091E702EC
:101240000E945C176D837E838F8398876091F8027C
:101250007091F9028091FA029091FB0220E030E057
:1012600040E85FE30E94FB15A60195010E94FB1573
:101270007B018C0169817A818B819C810E945C1742
:101280009B01AC01C801B7010E9433183B014C011E
:10129000C601B50120E030E040E050EC0E94331878
:1012A00020E030E040E85FE30E94FA157B018C010A
:1012B000C201B1010E945C179B01AC01C801B701DA
:1012C0000E9433189B01AC01C401B3010E94FB15BD
:1012D0007B018C016091D8027091D9028091DA0271
:1012E0009091DB020E945C179B01AC01C601B50125
:1012F0000E9433189B01AC01C801B7010E94FB1585
:10130000209152033091530340915403509155035F
:101310000E9433189B01AC016D817E818F8198857D
:101320000E94FB150E9429179B01AC016093E40207
:101330007093E5028093E6029093E7022092D80230
:101340003092D9024092DA025092DB0289819A816E
:10135000AB81BC818093D4029093D502A093D60236
:10136000B093D702AAC0A090EC02B090ED02C0905A
:10137000EE02D090EF022090DC023090DD0240902F
:10138000DE025090DF026091E8027091E9028091E4
:10139000EA029091EB020E945C1769877A878B873B
:1013A0009C876091F0027091F1028091F20290911D
:1013B000F30220E030E040E85FE30E94FB15A60165
:1013C00095010E94FB157B018C0169817A818B81DB
:1013D0009C810E945C179B01AC01C801B7010E946F
:1013E00033183B014C01C601B50120E030E040E07C
:1013F00050EC0E94331820E030E040E85FE30E94A8
:10140000FA157B018C01C201B1010E945C179B019E
:10141000AC01C801B7010E9433189B01AC01C401A3
:10142000B3010E94FB157B018C016091E002709179
:10143000E1028091E2029091E3020E945C179B011D
:10144000AC01C601B5010E9433189B01AC01C80173
:10145000B7010E94FB15209146033091470340914C
:101460004803509149030E9433189B01AC016985E0
:101470007A858B859C850E94FB150E9429179B010C
:10148000AC016093E8027093E9028093EA029093C2
:10149000EB022092E0023092E1024092E20250928E
:1014A000E30289819A81AB81BC818093DC029093B5
:1014B000DD02A093DE02B093DF02213A9FE03907FC
:1014C00090E0490790E059072CF020EA3FE040E027
:1014D00050E00CC02036A0EF3A07AFEF4A07AFEF5D
:1014E0005A0724F420E630EF4FEF5FEFC9012C9646
:1014F0000FB6F894DEBF0FBECDBFCF91DF911F9125
:101500000F91FF90EF90DF90CF90BF90AF909F90A2
:101510008F907F906F905F904F903F902F900895A5
:1015200080912A00806880932A0080912B00806837
:1015300080932B008091240080628093240080910E
:1015400024008F7B80932400809124008068809306
:1015500024008091240080618093240080912A00DF
:10156000806180932A0080E58CBD1DBC08958EBDEE
:101570000DB407FEFDCF8EB508959B01AC0194E03C
:10158000220F331F441F551F9A95D1F760E070E476
:1015900089E191E00E943F1A21503040832F992722
:1015A00087FD9A958093CD002093CC0088E18093AD
:1015B000C90086E08093CA000895982F8091C800E2
:1015C00085FFFCCF9093CE0008958091C80087FFDF
:1015D000FCCF8091CE000895883439F08C3481F0AE
:1015E00060E070E080E090E01DC080E090E00E944C
:1015F000D10480E090E00E94040580E090E00AC001
:1016000081E090E00E94D10481E090E00E94040516
:1016100081E090E00E94E804A0E0B0E0BC01CD01D0
:101620000E945A1720E030E84FEF53E40E94FA1569
:1016300020E030E04DE453E40E94C11620E030E0A9
:101640004AE754E40E94331808958CE40E94EC0A9F
:1016500088E40E94EC0A0895EF92FF920F931F9383
:101660009A01AB018834D9F460E070E084EB92E435
:101670000E94FA1520E030E84AEC53E40E94331847
:1016800020E030E044EB52E40E94C1167B018C0163
:1016900060918C0270918D02655971401FC08C342D
:1016A00019F065E872E028C060E070E084EB92E435
:1016B0000E94FA1520E030E043EC53E40E94331816
:1016C00020E030E044EB52E40E94C1167B018C0123
:1016D00060918E0270918F0266587140882777FD65
:1016E0008095982F0E945C179B01AC01C801B7013F
:1016F0000E94FB150E942917CB011F910F91FF90AB
:10170000EF900895AF92BF92CF92DF92EF92FF9247
:101710000F931F93A0909E02B0909F02C090A002D2
:10172000D090A102E0909C02F0909D02AA2797FD24
:10173000A095BA2FBC01CD010E945C17A6019501AE
:101740000E9433185B016C010027F7FC0095102FF5
:10175000C801B7010E945C179B01AC01C601B5012D
:101760000E94FB150E942917CB011F910F91FF903A
:10177000EF90DF90CF90BF90AF900895AF92BF925F
:10178000CF92DF92EF92FF920F931F93A090A4024B
:10179000B090A502C090A602D090A702E090A2024D
:1017A000F090A302AA2797FDA095BA2FBC01CD0106
:1017B0000E945C17A60195010E9433185B016C0121
:1017C0000027F7FC0095102FC801B7010E945C1795
:1017D0009B01AC01C601B5010E94FB150E942917AF
:1017E000CB011F910F91FF90EF90DF90CF90BF90B2
:1017F000AF9008952F923F924F925F926F927F9297
:101800008F929F92AF92BF92CF92DF92EF92FF9210
:101810000F931F935C017B0184E190E0E80EF91EB9
:10182000AA9CB001AB9C700DBA9C700D1124685C31
:101830007F4AEE9C9001EF9C300DFE9C300D1124F0
:10184000620F731F882777FD8095982F0E945C1781
:1018500020E030E740EA56EC0E94C1163B014C0103
:10186000A40193010E9433189B01AC0160E070E079
:1018700080E89FE30E94FA150E94E6181B012C01E4
:101880000027F7FC0095102FC801B7010E945C17D4
:101890007B018C01CC24B7FCC094DC2CC601B501C3
:1018A0000E945C179B01AC01C801B7010E946E1633
:1018B0005B016C01C401B30120E030E046E153E478
:1018C0000E94331820E030E046E153E40E94FB150B
:1018D0007B018C01C201B10120E030E046E153E41C
:1018E0000E9433189B01AC01C801B7010E946E161B
:1018F0009B01AC01C601B5010E94FA15905820EE7B
:101900003EE245E652E40E9433189B01AC0160E0E0
:1019100070E080E090E00E94FA151F910F91FF9017
:10192000EF90DF90CF90BF90AF909F908F907F907F
:101930006F905F904F903F902F900895EF92FF929D
:101940000F931F939B012C5E3F4F889FB001899F8F
:10195000700D989F700D1124685C7F4AC901889FA3
:101960009001899F300D989F300D1124620F731FD5
:10197000882777FD8095982F0E945C1720E030E73C
:1019800040EA56EC0E94C1167B018C01A801970128
:101990000E9433189B01AC0160E070E080E89FE397
:1019A0000E94FA150E94E618A80197010E946E167F
:1019B00020EE3EE245E652E40E94331820E030E09B
:1019C00040E251E40E94FB151F910F91FF90EF90B0
:1019D0000895CF93DF93EB01883421F08C3409F024
:1019E00046C021C083E090E00E94E804AC0188E496
:1019F000BE010E94E008EC0197FD08C082E090E083
:101A0000BE010E942D0683E090E02DC082E090E0B0
:101A100060E070E00E942D06662777276C1B7D0B27
:101A200083E090E022C082E090E00E94E804AC01F4
:101A30008CE4BE010E94E008EC0197FD0AC080E042
:101A400090E060E070E00E942D0681E090E0BE0131
:101A50000CC066277727681B790B80E090E00E9416
:101A60002D0681E090E060E070E00E942D06DF919D
:101A7000CF910895AF92BF92CF92DF92EF92FF92F3
:101A80000F931F93DF93CF9300D0CDB7DEB727E03E
:101A900030E03A832983209840988091230080FD8C
:101AA00003C03A83298319C08091230081FD03C0BC
:101AB00086E090E010C08091230082FD03C085E0A5
:101AC00090E009C08091230083FD03C084E090E092
:101AD00002C088E090E09A83898389819A81863068
:101AE000910509F460C0873091053CF4843091057C
:101AF00061F0059709F0E7C051C08730910509F4FE
:101B000059C0089709F0DFC08EC083E090E00E94C2
:101B1000E80490938D0280938C0282E090E00E9412
:101B2000E80490938F0280938E0260919E027091E0
:101B30009F028091A0029091A102E0909C02F090FF
:101B40009D0220E030E040E251E40E9433185B0146
:101B50006C010027F7FC0095102FC801B7010E9407
:101B60005C179B01AC01C601B5010E94FB150E94E8
:101B7000291770935F0360935E036091A4027091D4
:101B8000A5028091A6029091A702E090A202F09097
:101B9000A30220E030E040E251E47DC080E090E02C
:101BA00064EB70E004C080E090E060E070E00E94D0
:101BB000981589C060919E0270919F028091A00249
:101BC0009091A102E0909C02F0909D0220E030E014
:101BD00044EB52E40E9433185B016C010027F7FCD0
:101BE0000095102FC801B7010E945C179B01AC0142
:101BF000C601B5010E94FB150E94291770935F036F
:101C000060935E036091A4027091A5028091A60288
:101C10009091A702E090A202F090A30220E030E0B1
:101C200040E050E038C060919E0270919F02809128
:101C3000A0029091A102E0909C02F0909D0220E011
:101C400030E044E352E40E9433185B016C0100274A
:101C5000F7FC0095102FC801B7010E945C179B018B
:101C6000AC01C601B5010E94FB150E9429177093B3
:101C70005F0360935E036091A4027091A50280915E
:101C8000A6029091A702E090A202F090A30220E0A9
:101C900030E044E352E40E9433185B016C010027FA
:101CA000F7FC0095102FC801B7010E945C179B013B
:101CB000AC01C601B5010E94FB150E942917709363
:101CC0006103609360030F900F90CF91DF911F919C
:101CD0000F91FF90EF90DF90CF90BF90AF9008955D
:101CE0001F920F920FB60F921124EF92FF920F9353
:101CF0001F932F933F934F935F936F937F938F9394
:101D00009F93AF93BF93EF93FF938091660390915E
:101D10006703A0916803B09169030196A11DB11DED
:101D20008093660390936703A0936803B09369035D
:101D300060916603709167038091680390916903D5
:101D4000E0907202F090730200917402109175029B
:101D50000E945A17A80197010E94281888230CF4A2
:101D600052C010926603109267031092680310929B
:101D700069038091FE029091FF02A0910003B0914F
:101D800001030196A11DB11D8093FE029093FF02F5
:101D9000A0930003B09301038091620390916303C9
:101DA000A0916403B09165030196A11DB11D8093BC
:101DB000620390936303A0936403B093650381E08F
:101DC00090E090930D0380930C030E94250B80916B
:101DD000380390913903892BB1F06091020370911F
:101DE0000303809104039091050320E030E040E874
:101DF0005FE30E94FB1560930203709303038093DB
:101E00000403909305038091620390916303A09172
:101E10006403B09165030A97A105B10570F0609164
:101E200060037091610388E40E94E90C60915E0395
:101E300070915F038CE40E94E90C60910203709141
:101E40000303809104039091050320917A0230915D
:101E50007B0240917C0250917D020E9428188823C9
:101E600034F081E090E0909313038093120360912B
:101E70000203709103038091040390910503209164
:101E80007E0230917F0240918002509181020E9437
:101E90002818882334F081E090E090931503809314
:101EA00014036091020370910303809104039091E5
:101EB0000503209182023091830240918402509167
:101EC00085020E942818882334F081E090E09093E6
:101ED00017038093160360910203709103038091AE
:101EE000040390910503209186023091870240916E
:101EF0008802509189020E9428188823B4F081E05A
:101F000090E0909319038093180310923903109274
:101F1000380380E090E0A0E0B0E08093020390936B
:101F20000303A0930403B0930503FF91EF91BF91C6
:101F3000AF919F918F917F916F915F914F913F9161
:101F40002F911F910F91FF90EF900F900FBE0F9068
:101F50001F9018952F923F924F925F926F927F92AF
:101F60008F929F92AF92BF92CF92DF92EF92FF92A9
:101F70000F931F93DF93CF93CDB7DEB72A970FB69A
:101F8000F894DEBF0FBECDBF0E94DA1560E072ECA0
:101F900081E090E00E94BD0ADE011196E9ECF2E0DA
:101FA00085E001900D928150E1F7DE011696E4EC98
:101FB000F2E085E001900D928150E1F749815A816C
:101FC0006B817C818D8123E00E9438084E815F8186
:101FD000688579858A8524E00E9438080E94900AE5
:101FE00080E090E060E070E040E050E00E94081582
:101FF00088E440E050E060EA71E40AE017ED23E293
:102000003CE30F2EFDECCF2EFCECDF2EFCECEF2E94
:10201000FDE3FF2EF02D0E9450088CE440E050E0DC
:1020200060EA71E40AE017ED23E23CE30E94500805
:1020300080912B00806180932B00789400D089E7F9
:1020400091E0EDB7FEB7928381830E94B21B0F909F
:102050000F9085E090E06AE070E00E94981533EE02
:10206000832E31E0932E21E1622E22E0722E96E83B
:10207000492E91E0592E85E9282E81E0382E809155
:102080000C0390910D03892BD1F38091FD028230D6
:1020900009F4EFC0833030F4882371F0813009F007
:1020A000F8C279C0843009F458C2843008F4ACC155
:1020B000853009F0EEC293C200D0EDB7FEB7528270
:1020C00041820E94B21BEDB7FEB7328221820E948C
:1020D000B21B60919E0270919F028091A00290912C
:1020E000A102E0909C02F0909D0220E030E044E3E9
:1020F00052E40E9433185B016C010027F7FC009545
:10210000102FC801B7010E945C179B01AC01C601EA
:10211000B5010E94FB150E94291770935F0360931D
:102120005E036091A4027091A5028091A602909135
:10213000A702E090A202F090A30220E030E044E386
:1021400052E40E9433185B016C010027F7FC0095F4
:10215000102FC801B7010E945C179B01AC01C6019A
:10216000B5010E94FB150E942917709361036093CB
:1021700060030F900F9080E090E060E070E00E94BC
:102180009815F8948091230080FD9EC2F1E0F093B1
:10219000FD02789499C200D02BEA31E0EDB7FEB78A
:1021A000328321830E94B21B0F900F9084E00E9423
:1021B000B907909378038093770380917703909188
:1021C000780300D000D02AEB31E0EDB7FEB73283C0
:1021D0002183948383830E94B21B209177033091E3
:1021E00078030F900F900F900F908091B402909110
:1021F000B5028217930724F032E03093FD0264C2E7
:1022000060919E0270919F028091A0029091A10224
:10221000E0909C02F0909D0220E030E044EB52E41C
:102220000E9433185B016C010027F7FC0095102F0A
:10223000C801B7010E945C179B01AC01C601B50142
:102240000E94FB150E94291770935F0360935E0341
:102250006091A4027091A5028091A6029091A702BC
:10226000E090A202F090A30220E030E040E050E0D5
:10227000A1C000D02DEB31E0EDB7FEB73283218352
:102280000E94B21B81E090E0909339038093380361
:1022900080917703909178030CE511E0081B190BEE
:1022A0000F900F90C80164E170E00E94FA0BC80122
:1022B00064E170E00E949E0C8091120390911303E0
:1022C000892BC9F560919E0270919F028091A002B6
:1022D0009091A102E0909C02F0909D0220E030E0FD
:1022E0004CE052E40E9433185B016C010027F7FCBC
:1022F0000095102FC801B7010E945C179B01AC012B
:10230000C601B5010E94FB150E94291770935F0357
:1023100060935E036091A4027091A5028091A60271
:102320009091A702E090A202F090A30220E030E09A
:102330004CE052E43FC08091140390911503892B27
:1023400009F051C060919E0270919F028091A0029D
:102350009091A102E0909C02F0909D0220E030E07C
:1023600040E451E40E9433185B016C010027F7FC44
:102370000095102FC801B7010E945C179B01AC01AA
:10238000C601B5010E94FB150E94291770935F03D7
:1023900060935E036091A4027091A5028091A602F1
:1023A0009091A702E090A202F090A30220E030E01A
:1023B00040E751E40E9433185B016C010027F7FCF1
:1023C0000095102FC801B7010E945C179B01AC015A
:1023D000C601B5010E94FB150E9429177093610385
:1023E0006093600371C18091160390911703892B4C
:1023F00039F480E090E064EB70E00E94981564C1CD
:1024000093E09093FD0260C100D026EC31E0EDB77F
:10241000FEB7328321830E94B21B60919E027091AD
:102420009F028091A0029091A102E0909C02F09006
:102430009D0220E030E044E352E40E9433185B0147
:102440006C010027F7FC0095102FC801B7010E940E
:102450005C179B01AC01C601B5010E94FB150E94EF
:10246000291770935F0360935E036091A4027091DB
:10247000A5028091A6029091A702E090A202F0909E
:10248000A30220E030E044E352E40E9433185B01F1
:102490006C010027F7FC0095102FC801B7010E94BE
:1024A0005C179B01AC01C601B5010E94FB150E949F
:1024B000291770936103609360030F900F9088E475
:1024C0000E94EC0A609332037093330380933403C9
:1024D0009093350300D000D000D024ED31E0EDB76B
:1024E000FEB73283218363837483858396830E943E
:1024F000B21B80911803909119032DB73EB72A5F44
:102500003F4F0FB6F8943EBF0FBE2DBF892B29F168
:1025100060913203709133038091340390913503BD
:102520000E94291764527F4F695B714048F484E030
:102530008093FD0200D0EDB7FEB7928281820AC07F
:10254000F5E0F093FD0200D023EF31E0EDB7FEB7E8
:10255000328321830E94B21B99C000D023E032E075
:10256000EDB7FEB7328321830E94B21B60919E02B9
:1025700070919F028091A0029091A102E0909C0234
:10258000F0909D0220E030E044EB52E40E943318CA
:102590005B016C010027F7FC0095102FC801B70103
:1025A0000E945C179B01AC01C601B5010E94FB159E
:1025B0000E94291770935F0360935E036091A402E9
:1025C0007091A5028091A6029091A702E090A202CC
:1025D000F090A30220E030E040E050E03FC000D0A7
:1025E000EDB7FEB7728261820E94B21B60919E02BB
:1025F00070919F028091A0029091A102E0909C02B4
:10260000F0909D0220E030E040E050E00E9433185E
:102610005B016C010027F7FC0095102FC801B70182
:102620000E945C179B01AC01C601B5010E94FB151D
:102630000E94291770935F0360935E036091A40268
:102640007091A5028091A6029091A702E090A2024B
:10265000F090A30220E030E044EB52E40E943318F3
:102660005B016C010027F7FC0095102FC801B70132
:102670000E945C179B01AC01C601B5010E94FB15CD
:102680000E94291770936103609360030F900F906D
:102690001BC081E090E02A960FB6F894DEBF0FBE13
:1026A000CDBFCF91DF911F910F91FF90EF90DF9001
:1026B000CF90BF90AF909F908F907F906F905F90E2
:1026C0004F903F902F9008951092FC02D8CC08951F
:1026D00008950895CF93DF93EB01892BC1F477FD23
:1026E00009C080E090E060E070E00E942D0681E08B
:1026F00090E020C081E090E060E070E00E942D0654
:10270000662777276C1B7D0B80E090E014C077FD77
:1027100009C083E090E060E070E00E942D0682E056
:1027200090E008C082E090E060E070E00E942D063A
:1027300083E090E0BE010E942D06DF91CF910895C5
:102740002F923F924F925F926F927F928F929F92C1
:10275000AF92BF92CF92DF92EF92FF920F931F93AF
:10276000DF93CF93CDB7DEB728970FB6F894DEBFCF
:102770000FBECDBF7B01AA2797FDA095BA2FBC0144
:10278000CD010E945C171B012C010E9424195B01E2
:102790006C012CEE3FEFE20EF31EB701882777FDA8
:1027A0008095982FE4E1F0E0EE0EFF1E0E945C178A
:1027B0000E9424199B01AC01C601B5010E94FB15C2
:1027C0003B014C0160E070E086E193E40E94241933
:1027D0005B016C01C401B301A60195010E94FA15C9
:1027E000A60195010E94FB1520E030E740EA56EC77
:1027F0000E94C1160E94EC156D837E838F8398879B
:102800000027F7FC0095102FC801B7010E945C1744
:102810009B01AC01C201B1010E946E1669837A83EB
:102820008B839C83C401B3010E94E6181B012C0119
:10283000C401B301A60195010E94FB15A6019501F3
:102840000E94FB157B018C01C201B10120E030E048
:1028500046E953E40E9433189B01AC01C801B7015B
:102860000E94C1160E94EC159B01AC0169817A811E
:102870008B819C810E94FB150E9429179B01AC0152
:102880008CE490E0B9010E946A136D817E818F8192
:10289000988590580E9429179B01AC0188E490E02C
:1028A000B9010E946A1328960FB6F894DEBF0FBED6
:1028B000CDBFCF91DF911F910F91FF90EF90DF90EF
:1028C000CF90BF90AF909F908F907F906F905F90D0
:1028D0004F903F902F900895835F9040AA2797FDD7
:1028E000A095BA2FBC01CD010E945C1729EE36E2FB
:1028F0004DE850E40E94C1160E942917CB010895AB
:10290000AA2797FDA095BA2FBC01CD010E945C17A4
:1029100025EE30ED4AE050E40E94331820E030E02C
:1029200042EE52E40E94FB150E942917CB01089544
:10293000EF92FF920F931F93DF93CF93CDB7DEB744
:102940002C970FB6F894DEBF0FBECDBF49835A83D4
:102950006B837C838D839E83EF82F88609871A8739
:102960002B873C8782E090E00E94E804182F092F13
:1029700083E090E00E94E804909341038093400339
:10298000812F902F0E948014812F902F0E946C1411
:102990008C0180914003909141030E948014909398
:1029A00043038093420380914003909141030E942E
:1029B0006C14909345038093440300D000D08FE1C2
:1029C00092E0EDB7FEB792838183148303830E9464
:1029D000B21B88E392E0EDB7FEB7928381838091CA
:1029E000440390914503948383830E94B21B0F900C
:1029F0000F900F900F902C960FB6F894DEBF0FBE7D
:102A0000CDBFCF91DF911F910F91FF90EF9008956F
:102A10009C01F8948130910569F082309105A9F00C
:102A20000097D9F416BC83E085BD81E080936E00E9
:102A300085BB13C0109285001092840081E08093C2
:102A4000810080936F0086BB08C01092B20081E0C5
:102A50008093B1008093700087BB6130710521F5D0
:102A60002130310569F022303105B1F0232BE1F43A
:102A700082E084BD15BC47BD80936E0085BB14C049
:102A800088E080938100509389004093880082E021
:102A900080936F0086BB08C082E08093B0004093B3
:102AA000B3008093700087BB78940895813039F02B
:102AB000813018F0823051F407C067BD08957093DB
:102AC00089006093880008956093B30008959B0186
:102AD000AC0184E0220F331F441F551F8A95D1F7A4
:102AE00060E070E489E191E00E943F1A215030409B
:102AF0003093C5002093C40088E18093C10086E034
:102B00008093C2000895982F8091C00085FFFCCF6C
:102B10009093C6000895FC0107C08091C00085FF16
:102B2000FCCF9093C600319690819923B1F7089518
:102B30000F931F93DF93CF93CDB7DEB764970FB694
:102B4000F894DEBF0FBECDBF2DB73EB72850304042
:102B50000FB6F8943EBF0FBE2DBFEDB7FEB731964E
:102B60008E010F5F1F4FADB7BEB712961C930E9329
:102B7000119722E532E03383228395838483778320
:102B800066830E94C71B2DB73EB7285F3F4F0FB625
:102B9000F8943EBF0FBE2DBFC8010E948B156496EE
:102BA0000FB6F894DEBF0FBECDBFCF91DF911F915E
:102BB0000F91089586EB92E090937C0380937B03C2
:102BC00060E072EC81E090E00E94671508950E9439
:102BD000DD0A80E090E008959F939F77A8D10F9041
:102BE00000203AF49058A2EA2AED3FE049E450E48C
:102BF00013D0F4C15058BB27AA270ED0EFC1E0D1A3
:102C000030F0E5D120F031F49F3F11F41EF4B0C153
:102C10000EF4E095E7FBA6C1E92FF1D180F3BA17D6
:102C2000620773078407950718F071F49EF509C2CF
:102C30000EF4E0950B2EBA2FA02D0B01B9019001D7
:102C40000C01CA01A0011124FF27591B99F0593F1B
:102C500050F4503E68F11A16F040A22F232F342F63
:102C60004427585FF3CF469537952795A795F040B1
:102C70005395C9F77EF41F16BA0B620B730B840BC6
:102C8000BAF09150A1F0FF0FBB1F661F771F881F7E
:102C9000C2F70EC0BA0F621F731F841F48F48795D6
:102CA00077956795B795F7959E3F08F0B3CF9395C5
:102CB000880F08F09927EE0F97958795089580D192
:102CC00058F080E891E009F49EEF81D128F040E8C7
:102CD00051E059F45EEF09C04BC1B3C1E92FE07870
:102CE0008ED168F3092E052AC1F326173707480746
:102CF000590738F00E2E07F8E02569F0E025E0646A
:102D00000AC0EF6307F8009407FADB01B9019D01DF
:102D1000DC01CA01AD01EF9343D060D10AD05F91CD
:102D2000552331F02BED3FE049E450FD49EC63CFF2
:102D30000895DF93DD27B92FBF7740E85FE31616CC
:102D4000170648075B0710F4D92F86D19F938F93FE
:102D50007F936F9379D2ECE7F0E00DD13FD12F91C3
:102D60003F914F915F918BD1DD2349F09058A2EABA
:102D70002AED3FE049EC5FE3D0785D274DDFDF913E
:102D80002DC10CD02BC123D140F01AD130F021F449
:102D90005F3F19F0E7C0511155C1EAC030D198F337
:102DA0009923C9F35523B1F3951B550BBB27AA27CC
:102DB00062177307840738F09F5F5F4F220F331F3E
:102DC000441FAA1FA9F333D00E2E3AF0E0E830D00A
:102DD00091505040E695001CCAF729D0FE2F27D00D
:102DE000660F771F881FBB1F261737074807AB07DB
:102DF000B0E809F0BB0B802DBF01FF2793585F4F50
:102E00002AF09E3F510568F0ADC01CC15F3FECF356
:102E1000983EDCF3869577956795B795F7959F5F14
:102E2000C9F7880F911D9695879597F90895E1E068
:102E3000660F771F881FBB1F621773078407BA07C7
:102E400020F0621B730B840BBA0BEE1F88F7E09522
:102E5000089504D06894B111F5C00895D8D088F0D1
:102E60009F5790F0B92F9927B751A0F0D1F0660F76
:102E7000771F881F991F1AF0BA95C9F712C0B13091
:102E800081F0DFD0B1E00895DCC0672F782F88276C
:102E9000B85F39F0B93FCCF3869577956795B395D0
:102EA000D9F73EF490958095709561957F4F8F4F3F
:102EB0009F4F0895E89409C097FB3EF49095809544
:102EC000709561957F4F8F4F9F4F9923A9F0F92FF0
:102ED00096E9BB279395F695879577956795B7956E
:102EE000F111F8CFFAF4BB0F11F460FF1BC06F5F54
:102EF0007F4F8F4F9F4F16C0882311F096E911C066
:102F0000772321F09EE8872F762F05C0662371F086
:102F100096E8862F70E060E02AF09A95660F771F9A
:102F2000881FDAF7880F9695879597F90895DF93AC
:102F3000CF931F930F938B01EC01E9EAF0E01BD0D4
:102F40004DD09801AE018B01EC0160E070E080E8AB
:102F50009FE350DE3BD19801AE010F911F91CF91BD
:102F6000DF918DC097F99F6780E870E060E0089579
:102F70009FEF80EC0895DF93CF931F930F93FF9201
:102F8000EF92DF927B018C01689405C0DA2EEF018D
:102F900076D0FE01E894A591259135914591559102
:102FA000AEF3EF0139DEFE019701A801DA9479F75B
:102FB000DF90EF90FF900F911F91CF91DF910895D7
:102FC00000240A9416161706180609060895002408
:102FD0000A9412161306140605060895092E039482
:102FE000000C11F4882352F0BB0F40F4BF2B11F4F6
:102FF00060FF04C06F5F7F4F8F4F9F4F089557FD55
:103000009058440F551F59F05F3F71F04795880F56
:1030100097FB991F61F09F3F79F0879508951216ED
:1030200013061406551FF2CF4695F1DF08C0161699
:1030300017061806991FF1CF86957105610508944A
:103040000895E894BB2766277727CB0197F9089561
:103050002FD108F48FEF08959B01AC0160E070E080
:1030600080E89FE38ECE0BD0B9CFAADF28F0AFDF88
:1030700018F0952309F076CF7BCF1124E3CFBFDF83
:10308000A0F3959FD1F3950F50E0551F629FF0017B
:10309000729FBB27F00DB11D639FAA27F00DB11DD4
:1030A000AA1F649F6627B00DA11D661F829F22275D
:1030B000B00DA11D621F739FB00DA11D621F839FE4
:1030C000A00D611D221F749F3327A00D611D231FBA
:1030D000849F600D211D822F762F6A2F11249F5708
:1030E00050408AF0E1F088234AF0EE0FFF1FBB1F2B
:1030F000661F771F881F91505040A9F79E3F5105CA
:1031000070F030CF9FCF5F3FECF3983EDCF38695B5
:1031100077956795B795F795E7959F5FC1F7FE2B74
:10312000880F911D9695879597F90895FA01EE0FEE
:10313000FF1F30962105310599F16115710561F484
:103140008038BFE39B0749F168949038810561F0AE
:103150008038BFEF9B0741F0992342F5FF3FE1051F
:103160003105210511F1E8940894E795D901AA23C6
:1031700029F4AB2FBE2FF85FD0F310C0FF5F70F4BF
:10318000A695E0F7F73950F019F0FF3A38F49F7739
:103190009F930CD00F9007FC905808953EF0E8CE16
:1031A00060E070E080E89FE308954FE79F775F93CA
:1031B0004F933F932F93F0D02F913F914F915F9179
:1031C00052DF4AC011F40EF4D3CE96C020DFD0F304
:1031D0009923D9F3CEF39F57550B87FF9BD000243B
:1031E000A0E640EA900180585695979528F4805CB7
:1031F000660F771F881F20F026173707480730F41F
:10320000621B730B840B202931294A2BA695179436
:103210000794202531254A2758F7660F771F881F06
:1032200020F026173707480730F4620B730B840B26
:10323000200D311D411DA09581F7B901842F9158B2
:10324000880F9695879508959B01AC010CCF19F4D2
:103250000EF088CEF6CE8CCEDADEC8F39638C0F704
:1032600007F80F92E8942BE33AEA48EB5FE709DFAF
:103270000F920F920F924DB75EB70F92CDD0E1ED46
:10328000F0E079DE4F915F91EF91FF91E595EE1FB0
:10329000FF1F49F0FE57E0684427EE0F441FFA95E0
:1032A000E1F74195550B3FD00F9007FED5CE08951D
:1032B000990F0008550FAA0BE0E8FEEF1616170647
:1032C000E807F907C0F012161306E407F50798F0AF
:1032D000621B730B840B950B39F40A2661F0232BC8
:1032E000242B252B21F408950A2609F4A140A69544
:1032F0008FEF811D811D08959F3F31F0915020F483
:10330000879577956795B795880F911D96958795C1
:1033100097F9089591505040660F771F881FD2F794
:10332000089520CEE9CF73DEE8F39923D9F3940F03
:10333000511DBBF39150504094F059F0882332F066
:10334000660F771F881F91505040C1F79E3F51056F
:1033500044F7880F911D9695879597F908955F3FDB
:10336000ACF0983E9CF0BB27869577956795B7950E
:1033700008F4B1609395C1F7BB0F58F711F460FFE3
:10338000E8CF6F5F7F4F8F4F9F4FE3CF5BCE0EF045
:10339000B3CFEECD6894E6CD3ADEC8F39923D1F3EE
:1033A000C6F3DF93CF931F930F93FF92C92FDD27AF
:1033B00088232AF02197660F771F881FDAF720E00D
:1033C00030E040E85FEB9FE3883920F0803E30F04A
:1033D00021968F7710DCE9EFF0E003C00CDCE6E229
:1033E000F1E0C9DD8B01BE01EC01FB2E6F577109C5
:1033F0007595771F880B990B5FDD28E132E741E374
:103400005FE33DDEAF2D9801AE01FF900F911F915C
:10341000CF91DF9101DCE2CDFA01DC01AA0FBB1FE5
:103420009B01AC01BF5728F422273327442750784B
:103430001FC0B75188F4AB2F0024469537952795C8
:10344000011CA395D2F3002069F0220F331F441F03
:10345000B395DAF30DD0CECB61307105A0E88A07C1
:10346000B94630F49B01AC0166277727882790780E
:10347000309621F020833183428353830895A1E263
:103480001A2EAA1BBB1BFD010DC0AA1FBB1FEE1FDE
:10349000FF1FA217B307E407F50720F0A21BB30B29
:1034A000E40BF50B661F771F881F991F1A9469F7A5
:1034B00060957095809590959B01AC01BD01CF0101
:1034C00008952F923F924F925F926F927F928F92C8
:1034D0009F92AF92BF92CF92DF92EF92FF920F93A3
:1034E0001F93CF93DF93CDB7DEB7CA1BDB0B0FB6AD
:1034F000F894DEBF0FBECDBF09942A88398848886A
:103500005F846E847D848C849B84AA84B984C884FF
:10351000DF80EE80FD800C811B81AA81B981CE0FF6
:10352000D11D0FB6F894DEBF0FBECDBFED010895DB
:10353000283008F027E03327DA01990F311D87FD85
:10354000916000966105710539F432602E5F3D93FC
:1035500030E32A95E1F708959F3F30F080387105F8
:10356000610509F03C5F3C5F3D93913008F0806855
:10357000911DDF93CF931F930F93FF92EF92192F1B
:10358000987F9695E92F96959695E90FFF27EB542E
:10359000FE4F99273327EE24FF24A701E70105906A
:1035A0000894079428F4360FE71EF81E491F511D92
:1035B000660F771F881F991F0694A1F7059007943F
:1035C00028F4E70EF81E491F561FC11D770F881FEC
:1035D000991F661F0694A1F70590079428F4F80E2A
:1035E000491F561FC71FD11D880F991F661F771FC0
:1035F0000694A1F70590079420F4490F561FC71FA2
:10360000D81F990F661F771F881F0694A9F784910A
:103610001095177041F0D695C79557954795F79433
:10362000E7941A95C1F7EBE5F1E0689415901591D0
:1036300035916591959105907FE27395E118F10AB6
:10364000430B560BC90BD009C0F7E10CF11E431F09
:10365000561FC91FD01D7EF4703311F48A95E6CF32
:10366000E894015030F0080F0AF40027021708F41C
:10367000202F2395022F7A3328F079E37D932A9522
:10368000E9F710C07D932A9589F60694979567957A
:10369000379517951794E118F10A430B560BC90B90
:1036A000D00998F023957E9173957A3308F070E3F2
:1036B0007C932013B8F77E9170617D9330F08395F1
:1036C00071E37D9370E32A95E1F71124EF90FF9069
:1036D0000F911F91CF91DF91992787FD90950895C4
:1036E000FC010590615070400110D8F780959095CD
:1036F0008E0F9F1F0895FC016150704001900110D2
:10370000D8F7809590958E0F9F1F08950F931F9364
:10371000CF93DF938C01EB018B8181FF1BC082FF74
:103720000DC02E813F818C819D812817390764F45B
:10373000E881F9810193F983E88306C0E885F9857A
:10374000802F0995892B31F48E819F8101969F836B
:103750008E8302C00FEF1FEFC801DF91CF911F9141
:103760000F910895A0E0B0E0E8EBFBE10C94711A32
:10377000FE0135966191719180917B0390917C035C
:10378000AF010E944A012096E2E00C948D1AAEE04F
:10379000B0E0EDECFBE10C946F1A0D891E8986E018
:1037A0008C831A8309838FEF9FE79E838D839E010D
:1037B000275E3F4FCE0101966F89788DA9010E9447
:1037C0004A012F813885020F131FF80110822E96AF
:1037D000E4E00C948B1AFA01AA27283051F1203129
:1037E00081F1E8946F936E7F6E5F7F4F8F4F9F4F95
:1037F000AF4FB1E03ED0B4E03CD0670F781F891FD7
:103800009A1FA11D680F791F8A1F911DA11D6A0FA4
:10381000711D811D911DA11D20D009F468943F9157
:103820002AE0269F11243019305D3193DEF6CF0156
:103830000895462F4770405D4193B3E00FD0C9F71C
:10384000F6CF462F4F70405D4A3318F0495D31FD89
:103850004052419302D0A9F7EACFB4E0A6959795DC
:10386000879577956795BA95C9F7009761057105B2
:1038700008959B01AC010A2E0694579547953795FC
:103880002795BA95C9F7620F731F841F951FA01D56
:063890000895F894FFCF3B
:10389600582047733A202566203B200A0D00592000
:1038A60047733A202566203B200A0D005A204773AD
:1038B6003A202566203B200A0D00456E636F64653D
:1038C600722030203A25662064656772656573202C
:1038D6000A0D00456E636F6465722031203A2566D5
:1038E6002064656772656573200A0D0020495220C1
:1038F60044697374616E63653A2020002049523230
:103906003A20256420200A0D00496E6974436F6DC4
:10391600706C6574650053746174653A20484F4D48
:1039260045200A0D0053776974636820533020746C
:103936006F205374617274200A0D005374617465AC
:103946003A2057414954200A0D0025640047524148
:103956005350200A0D0057484943485F4D41535381
:10396600200A0D0043757272656E743A2025662032
:103976000A0D004C6967687420576569676874208A
:103986000A0D004865617679205765696768742075
:103996000A0D0044524F505F4C49474854200A0DC7
:1039A6000044524F505F4845415659200A0D0020A9
:1039B6005570706572204A6F696E7420416E676C2F
:1039C60065202564200A0D00204C6F776572204A19
:1039D6006F696E7420416E676C653A202564200A13
:1039E6000D00536574736572766F2825642C253037
:1039F6003364290A0D000000A040AE47613ED74C53
:103A06004E3F000010410000C8420000E64300801F
:103A1600094400C00F4400002F44E8038502440215
:103A2600070003000000000400000000FA00713DDA
:103A36006A40FA00B81E85400000164300007A432B
:103A46000000AF4396000000000200000000E715EA
:0E3A560000000000040000000003000000005B
:00000001FF
