:100000000C9400010C941D010C941D010C941D0115
:100010000C941D010C941D010C941D010C941D01E8
:100020000C941D010C941D010C941D010C941D01D8
:100030000C941D010C941D010C941D010C941D01C8
:100040000C941D010C941D010C94C60A0C941D0106
:100050000C941D010C941D010C941D010C941D01A8
:100060000C941D010C941D010C941D010C941D0198
:100070000C941D010C941D010C941D010763423664
:10008000B79BD8A71A39685618AEBAAB558C1D3C29
:10009000B7CC5763BD6DEDFD753EF6177231BF00ED
:1000A0000000803F08000000BE922449123EABAA27
:1000B000AA2ABECDCCCC4C3E00000080BEABAAAA82
:1000C000AA3E00000000BF000000803F00000000CA
:1000D00000084178D3BB4387D1133D190E3CC3BD03
:1000E0004282AD2B3E68EC8276BED98FE1A93E4CB0
:1000F00080EFFFBE01C4FF7F3F00000000006E6183
:100100006E00696E660000407A10F35A00A0724ECD
:1001100018090010A5D4E80000E87648170000E4AC
:100120000B54020000CA9A3B000000E1F5050000F4
:1001300080969800000040420F000000A086010059
:100140000000102700000000E80300000000640029
:10015000000000000A000000000001000000000094
:100160002C76D888DC674F0823DFC1DFAE59E1B1B8
:10017000B796E5E3E453C63AE651997696E8E6C2C7
:100180008426EB898C9B62ED407C6FFCEFBC9C9FCE
:1001900040F2BAA56FA5F490055A2AF75C936B6CF0
:1001A000F9676DC11BFCE0E40D47FEF520E6B500E4
:1001B000D0ED902E0300943577050080841E080052
:1001C00000204E0A000000C80C333333330F986E02
:1001D00012831141EF8D2114893BE65516CFFEE6BF
:1001E000DB18D1844B381BF77C1D901DA4BBE42485
:1001F000203284725E228100C9F124ECA1E53D2702
:1002000011241FBECFEFD0E1DEBFCDBF12E0A0E0D2
:10021000B1E0ECEBF6E202C005900D92A230B1071E
:10022000D9F712E0A2E0B2E001C01D92A737B107F2
:10023000E1F70E94A70B0C945C130C940000A1E161
:10024000B0E0E5E2F1E00C9474113C017F876E8729
:100250006A01FC0117821682838181FD03C06FEF62
:100260007FEF6FC39E012F5F3F4F398B288BF301C8
:100270002381EE85FF8523FD859123FF8191FF87F3
:10028000EE87882309F45AC3853251F4EE85FF8541
:1002900023FD859123FF8191FF87EE87853229F425
:1002A00090E0B3010E949912E2CF982F10E08824C9
:1002B00099241032B0F49B3269F09C3228F49032C9
:1002C00051F0933271F40BC09D3239F0903349F400
:1002D000116028C01260146025C0186023C010612E
:1002E00021C017FD2AC0892F80538A3078F416FF69
:1002F00006C0FAE09F9E902C1124980E13C03AE09D
:10030000839E802C1124880E10620CC09E3221F432
:1003100016FD14C3106406C09C3611F4106802C0A8
:10032000983659F4EE85FF8523FD959123FF919131
:10033000FF87EE87992309F0BCCF892F855483303E
:1003400020F4812F8061905E07C0892F855683300D
:1003500008F09FC1812F8F7E86FD02C076E0972E28
:100360006FE3F62EF822953619F4F0E4FF2A07C061
:10037000963619F420E8F22A02C091109A94F7FEFA
:100380000AC03BE3391518F45CE3B52E02C0B92C62
:10039000B39427E009C047E0491520F4BB2447E0A7
:1003A000942EF7CF292DBB24C60104969D878C87F8
:1003B000F6016081718182819381AE014F5F5F4F51
:1003C0000B2D0E94AB116C010981202E332400FFFC
:1003D00004C003FD02C01DE209C0F1FE02C01BE221
:1003E00005C0F2FC02C010E001C010E2C1018C7037
:1003F0009070892BB9F1112311F483E001C084E0DE
:10040000881510F088240AC0881AF3FC07C080E21F
:1004100090E0B3010E9499128A94C9F7112329F040
:10042000812F90E0B3010E94991223FE03C00EEFCA
:1004300010E00EC002E011E00BC0E114F10409F07D
:10044000805290E0B3010E9499120F5F1F4F05C0C8
:10045000EF2CFF24F0E1EF22FF24F80184918823A0
:1004600061F714C1F7FE12C0BC0C24FE04C08A81DF
:10047000813309F4BA941B141CF0BB24B3942DC02F
:10048000F8E0FB1550F538E0B32E27C0F6FC25C088
:10049000892D90E08C159D054CF02CEFC2162FEFA6
:1004A000D20624F030E8F32A01C09A94992049F04A
:1004B000E2E0F0E0EC0FFD1FE90DF11D80818033DB
:1004C000A1F3F7FE0AC0B92CB394892D90E0C816A9
:1004D000D90614F0992401C09C18F7FC03C025E04C
:1004E00030E009C01C141D041CF021E030E003C002
:1004F00096012F5F3F4F112311F02F5F3F4F99203F
:1005000029F0892D90E00196280F391F882D90E061
:100510002817390714F0882401C0821A4F2C55245B
:10052000C20189709070892B39F008C080E290E098
:10053000B3010E9499128A948820C1F7112329F0EF
:10054000812F90E0B3010E94991243FE07C008C0BA
:1005500080E390E0B3010E9499128A948820C1F749
:10056000F7FE46C08601D7FE02C000E010E076012B
:100570000894E11CF11CE01AF10A41E050E04C0F34
:100580005D1FE40EF51E26014B185108892D90E0E1
:10059000AA24BB24A81AB90A5FEF0F3F150729F454
:1005A0008EE290E0B3010E949912C016D10634F099
:1005B000401651061CF4F701808101C080E3015010
:1005C00010400894E11CF11C0A151B052CF090E06A
:1005D000B3010E949912E0CF0C151D0539F49A81E0
:1005E000963318F4953311F424FE81E390E04BC068
:1005F0008A81813309F00F7E90E0B3010E94991245
:100600009920A1F08EE290E0B3010E94991212E0CD
:10061000E1E0F0E0EC0FFD1FE10FF11D1F5F8081B5
:1006200090E0B3010E9499129A9491F744FC03C0A0
:1006300085E690E002C085E490E0B3010E94991243
:10064000D7FC05C0C114D10441F404FF06C0D09406
:10065000C194D108D3948DE201C08BE290E0B30144
:100660000E94991280E305C08F5F26EF3FEFC20E14
:10067000D31E3AE0C316D104BCF790E0B3010E9448
:100680009912C601C096B3010E949912CC84DD84F0
:1006900052C1933631F0933799F0933509F059C030
:1006A00023C0F601808189835E010894A11CB11CDE
:1006B00022E030E0C20ED31E21E0E22EF12C12C067
:1006C000F601A080B18016FD03C06FEF7FEF02C07E
:1006D000692D70E022E030E0C20ED31EC5010E94F9
:1006E0008E127C011F7713C0F601A080B18016FD29
:1006F00003C06FEF7FEF02C0692D70E022E030E0B1
:10070000C20ED31EC5010E9483127C01106813FF24
:1007100007C01BC080E290E0B3010E9499128A9446
:10072000882D90E0E816F906A8F30FC0F50117FD33
:10073000859117FF81915F0190E0B3010E949912AA
:1007400081108A940894E108F108E114F10471F72A
:10075000F2C0943611F0993689F517FF08C0F601FA
:10076000208131814281538184E090E00AC0F6010A
:10077000808191819C01442737FD4095542F82E070
:1007800090E0C80ED91E9FE6F92EF12257FF09C04E
:1007900050954095309521953F4F4F4F5F4F90E8D2
:1007A000F92ACA01B901AE014F5F5F4F2AE030E07C
:1007B0000E94FE12E82EE889EE1A41C0953721F416
:1007C0001F7E2AE030E01CC0197F9F3661F0903711
:1007D00020F4983509F0B2C00FC0903739F098373F
:1007E00009F0ACC004C028E030E00AC0106114FD7C
:1007F000146020E130E004C014FD166020E132E016
:1008000017FF08C0F601608171818281938144E005
:1008100050E008C0F60180819181BC0180E090E049
:1008200042E050E0C40ED51EAE014F5F5F4F0E9404
:10083000FE12E82E5889E51A8FE7F82EF122F6FE0F
:100840000BC08EEFF822E91438F4F4FE07C0F2FC76
:1008500005C09FEEF92202C01E2D01C0192DF4FE25
:100860000DC0FE01EE0DF11D8081803319F4E9EE1B
:10087000FE2208C01F5FF2FE05C003C08F2D8678E0
:1008800009F01F5F0F2DF3FC14C0F0FE0FC0181508
:1008900010F09E2C0BC09E2C980C911A182D06C09F
:1008A00080E290E0B3010E9499121F5F1815C0F317
:1008B00004C0181510F4811A01C0882404FF0FC069
:1008C00080E390E0B3010E94991202FF1DC001FD78
:1008D00003C088E790E00EC088E590E00BC0802F51
:1008E000867891F001FF02C08BE201C080E2F7FC44
:1008F0008DE290E0B3010E94991206C080E390E07F
:10090000B3010E9499129A94E914C0F3EA94E1E0C9
:10091000F0E0EC0FFD1FEE0DF11D808190E0B301C2
:100920000E949912EE2091F706C080E290E0B30198
:100930000E9499128A948820C1F799CCF3016681AC
:100940007781CB016196E2E10C94901180648093F1
:100950007C00EAE7F0E080818760808380818068A6
:10096000808380818064808380E480937B0011B8E1
:100970000895807480937C00089520917C00877096
:100980009070287F282B20937C0080917A008064CF
:1009900080937A0080917A0084FFFCCF80917A0066
:1009A000806180937A002091780030917900C901AC
:1009B0000895806480937C0008956F927F928F9257
:1009C0009F92AF92BF92CF92DF92EF92FF920F93DE
:1009D0001F935B016C01E090D001F090D101009178
:1009E000D2011091D301A80197010E94860F609057
:1009F000D4017090D5018090D6019090D7018823C2
:100A000074F0C601B501A80197010E94D20DA4019E
:100A100093010E94ED0FAC01CB01DA010FC0C801B8
:100A2000B701A60195010E94D20DA40193010E9475
:100A3000ED0F9B01AC01DA01C901B058BC01CD0139
:100A40001F910F91FF90EF90DF90CF90BF90AF90EC
:100A50009F908F907F906F9008952091D801309152
:100A6000D9014091DA015091DB010E94ED0F089508
:100A70001F93182F5F9886E00E94DC08812F8295D3
:100A8000880F880F807C0E94DC08182F80E00E946D
:100A9000DC085F9A512F40E0282F30E0242B352BC3
:100AA000C9011F9108952F923F924F925F926F92CA
:100AB0007F928F929F92AF92BF92CF92DF92EF92EE
:100AC000FF920F931F9380E090E00E9438057C0115
:100AD00081E090E00E9438055C0182E090E00E9495
:100AE00038053C012090D8013090D9014090DA01BE
:100AF0005090DB0100E010E0C801B7010E94D40E65
:100B0000A20191010E94ED0F162F072FF82EE92E5A
:100B1000CC24DD24C601B5010E94D40EA2019101AE
:100B20000E94ED0FD62EC72EB82EA92E8824992408
:100B3000C401B3010E94D40EA20191010E94ED0FE5
:100B4000562E472E382E292E212F302F4F2D5E2D39
:100B5000B901CA010E94DD043B014C012D2D3C2D41
:100B60004B2D5A2DB901CA010E94DD045B016C01B5
:100B7000252D342D432D522DB901CA010E94DD04CB
:100B80007B018C0100D000D000D080E091E0EDB777
:100B9000FEB79283818363827482858296820E94EB
:100BA000C5128EE091E0EDB7FEB792838183A382F8
:100BB000B482C582D6820E94C5128CE191E0EDB765
:100BC000FEB792838183E382F482058316830E94B9
:100BD000C5128DB79EB706960FB6F8949EBF0FBE8E
:100BE0008DBF1F910F91FF90EF90DF90CF90BF903E
:100BF000AF909F908F907F906F905F904F903F90BD
:100C00002F900895EF92FF920F931F93482FCB01DF
:100C100020E16030720714F08FEF9FE07C01002725
:100C2000F7FC0095102F80912B008F7E80932B0076
:100C3000842F80630E94DC08D801C70124E0B695A8
:100C4000A795979587952A95D1F70E94DC088FE0A4
:100C500090E0A0E0B0E0E822F9220A231B238E2DC9
:100C60008295807F0E94DC0880912B0080618093B8
:100C70002B0080912B008F7E80932B0080912B0086
:100C8000806180932B001F910F91FF90EF9008954A
:100C900081E090E00895009719F00197E1F40EC00B
:100CA000809128008F7D8093280080E20E94DC08DC
:100CB0008091280080628093280008958091280008
:100CC0008F7E8093280080E20E94DC0880912800BB
:100CD0008061809328000895809128008F7D809303
:100CE000280088E80E94DC088091280080628093B8
:100CF0002800809128008F7E8093280088E80E9439
:100D0000DC08809128008061809328000895FF927C
:100D10000F931F93009729F0019769F140E050E08D
:100D200055C0809128008F7D8093280080E60E9426
:100D3000DC0880E00E94DC08182F80E00E94DC08BC
:100D4000082F80E00E94DC08F82E80E00E94DC087A
:100D5000512F552740E0302F332720E0422B532BD3
:100D600090E0482B592B9F2D80E0482B592B8091E8
:100D70002800806229C0809128008F7E80932800FF
:100D800080E60E94DC0880E00E94DC08182F80E0EA
:100D90000E94DC08082F80E00E94DC08F82E80E02A
:100DA0000E94DC08512F552740E0302F332720E0E8
:100DB000422B532B90E0482B592B9F2D80E0482B42
:100DC000592B80912800806180932800CA011F91CF
:100DD0000F91FF900895AF92BF92CF92DF92EF9262
:100DE000FF920F931F93A090DE01B090DF01C0909F
:100DF000E001D090E101E090DC01F090DD01AA2754
:100E000097FDA095BA2FBC01CD010E94D60EA60178
:100E100095010E948A0F5B016C010027F7FC009589
:100E2000102FC801B7010E94D60E9B01AC01C6016C
:100E3000B5010E94D30D0E94A30ECB011F910F910B
:100E4000FF90EF90DF90CF90BF90AF900895AF925A
:100E5000BF92CF92DF92EF92FF920F931F93A090D9
:100E6000E401B090E501C090E601D090E701E09088
:100E7000E201F090E301AA2797FDA095BA2FBC01EB
:100E8000CD010E94D60EA60195010E948A0F5B013A
:100E90006C010027F7FC0095102FC801B7010E94D4
:100EA000D60E9B01AC01C601B5010E94D30D0E9474
:100EB000A30ECB011F910F91FF90EF90DF90CF9089
:100EC000BF90AF900895CF93DF93EB01883421F06A
:100ED0008C3409F046C021C083E090E00E94BD043C
:100EE000AC0188E4BE010E94F607EC0197FD08C042
:100EF00082E090E0BE010E94020683E090E02DC0F7
:100F000082E090E060E070E00E94020666277727AA
:100F10006C1B7D0B83E090E022C082E090E00E9499
:100F2000BD04AC018CE4BE010E94F607EC0197FD04
:100F30000AC080E090E060E070E00E94020681E07C
:100F400090E0BE010CC066277727681B790B80E014
:100F500090E00E94020681E090E060E070E00E9474
:100F60000206DF91CF910895CF92DF92EF92FF9228
:100F70000F931F938823C9F4409334025093350292
:100F8000609336027093370200933802109339024F
:100F900020933A0230933B02C0923C02D0923D0231
:100FA000E0923E02F0923F021AC08130C1F44093B9
:100FB00048025093490260934A0270934B02009397
:100FC0004C0210934D0220934E0230934F02C09278
:100FD0005002D0925102E0925202F09253021F91BD
:100FE0000F91FF90EF90DF90CF9008952F923F9256
:100FF0004F925F926F927F928F929F92AF92BF9229
:10100000CF92DF92EF92FF920F931F93CF93DF93D4
:101010006A01882349F520903802309039024090C7
:101020003A0250903B0280903C0290903D02A0908A
:101030003E02B0903F02E0903402F0903502009101
:10104000360210913702A0914202B09143024091C2
:10105000320250913302E0914002F09141026090DF
:101060003002709031022AC0813041F520904C024C
:1010700030904D0240904E0250904F0280905002AE
:1010800090905102A0905202B0905302E09048021A
:10109000F090490200914A0210914B02A091560231
:1010A000B09157024091460250914702E09154029C
:1010B000F091550260904402709045029B012C19FA
:1010C0003D092E173F0734F4EA01C20FD31FCA1798
:1010D000DB070CF0EA01B901882777FD8095982F8E
:1010E0000E94D60EA80197010E948A0F7B018C01F5
:1010F000C618D708B601882777FD8095982F0E94DB
:10110000D60EA50194010E948A0F9B01AC01C80173
:10111000B7010E94D30D7B018C01BE01882777FDAA
:101120008095982F0E94D60EA20191010E948A0FED
:101130009B01AC01C801B7010E94D30D0E94A30E10
:10114000CB01DF91CF911F910F91FF90EF90DF9036
:10115000CF90BF90AF909F908F907F906F905F9057
:101160004F903F902F90089580912A00806880933F
:101170002A0080912B00806880932B0080912400AE
:10118000806280932400809124008F7B80932400D0
:1011900080912400806880932400809124008061E5
:1011A0008093240080912A00806180932A0080E54A
:1011B0008CBD81E08DBD08958EBD0DB407FEFDCFC1
:1011C0008EB508959B01AC0194E0220F331F441F9C
:1011D000551F9A95D1F760E070E489E191E00E9493
:1011E000521121503040832F992787FD9A95809383
:1011F000CD002093CC0088E18093C90086E08093E5
:10120000CA000895982F8091C80085FFFCCF909365
:10121000CE0008958091C80087FFFCCF8091CE005A
:10122000089582E090E00E94BD04909303028093B1
:10123000020283E090E00E94BD0490930902809333
:10124000080280910202909103020E94D60C9093B2
:1012500005028093040280910202909103020E9491
:10126000C20C90930702809306028091080290912D
:1012700009020E94D60C90930B0280930A0280917F
:101280000802909109020E94C20C90930D02809373
:101290000C0200D000D08AE291E0EDB7FEB7928355
:1012A00081838091060290910702948383830E9438
:1012B000C51283E491E0EDB7FEB7928381838091FC
:1012C0000C0290910D02948383830E94C5120F90AB
:1012D0000F900F900F9008952098409880912300D0
:1012E00080FD03C087E090E017C08091230081FD5E
:1012F00003C086E090E010C08091230082FD03C00F
:1013000085E090E009C08091230083FD03C084E064
:1013100090E002C088E090E09093F1018093F001AA
:101320002091F0013091F10100D000D08DE591E0E5
:10133000EDB7FEB792838183348323830E94C51265
:101340008091F0019091F1010F900F900F900F900C
:1013500086309105C9F1873091053CF484309105C0
:1013600059F0059709F05CC024C087309105B9F1A8
:10137000089709F055C044C08AE590E00E94EB064A
:10138000909359028093580280E090E00E942707D2
:1013900090935B0280935A0280E090E00E944B069B
:1013A00081E090E00E944B061092250210922402E8
:1013B000089584EC9FEF0E94EB069093590280936E
:1013C000580282EE9FEF15C08CE390E00E94EB067E
:1013D00090935902809358028EE190E00AC08AE50A
:1013E00090E00E94EB0690935902809358028AE5A0
:1013F00090E00E94270790935B0280935A02089521
:101400008DE290E00E94EB0690935902809358027F
:101410008DE290E00E94270790935B0280935A022E
:1014200008950F931F938091270080628093270077
:10143000809128008062809328008091270080613D
:1014400080932700809128008061809328008091FC
:10145000260290912702892B79F480E090E00E9487
:101460004B0681E090E00E944B0681E090E0909373
:1014700027028093260287C080E090E00E948706C2
:10148000909323028093220281E090E00E948706DD
:10149000909325028093240200D000D000D00DB795
:1014A0001EB70F5F1F4F8BE691E0EDB7FEB792833B
:1014B00081836091220270912302882777FD8095B5
:1014C000982F0E94D60E2CE53FE842E45EE30E948E
:1014D0008A0FF80162837383848395830E94C51207
:1014E0000DB71EB70F5F1F4F84E891E0EDB7FEB751
:1014F000928381836091240270912502882777FD71
:101500008095982F0E94D60E2FE832EC45EF5DE3D0
:101510000E948A0FF80162837383848395830E94FB
:10152000C5120DB71EB70F5F1F4F8DE991E0EDB7E4
:10153000FEB792838183209122023091230288E5B5
:1015400092E0289FB001299F700D389F700D1124E3
:10155000882777FD8095982F0E94D60E20E030E4F2
:101560004CE656E40E943B0EF80162837383848349
:1015700095830E94C5128DB79EB706960FB6F89454
:101580009EBF0FBE8DBF1F910F9108951F920F92A6
:101590000FB60F921124EF92FF920F931F932F9388
:1015A0003F934F935F936F937F938F939F93AF93EB
:1015B000BF93EF93FF9380912C0290912D0201969F
:1015C00090932D0280932C02809128029091290201
:1015D000A0912A02B0912B020196A11DB11D80930A
:1015E000280290932902A0932A02B0932B02209103
:1015F0002C0230912D028091F2019091F301281775
:10160000390754F081E090E090932F0280932E02EE
:1016100010922D0210922C02809160029091610232
:10162000A0916202B09163020196A11DB11D809349
:10163000600290936102A0936202B0936302609192
:101640006002709161028091620290916302E09069
:10165000E801F090E9010091EA011091EB010E948C
:10166000D40EA80197010E94860F88230CF45AC05B
:101670001092600210926102109262021092630254
:1016800080911E0290911F02A0912002B091210230
:101690000196A11DB11D80931E0290931F02A0937D
:1016A0002002B093210280915C0290915D02A09192
:1016B0005E02B0915F020196A11DB11D80935C0294
:1016C00090935D02A0935E02B0935F0280915C02F2
:1016D00090915D02A0915E02B0915F020A97A10510
:1016E000B10500F160915A0270915B0288E490E0CC
:1016F0000E94630760915802709159028CE490E057
:101700000E9463070E9453050E9411090E94110A5A
:101710000E946C0910925C0210925D0210925E02AF
:1017200010925F02FF91EF91BF91AF919F918F91C6
:101730007F916F915F914F913F912F911F910F91E9
:10174000FF90EF900F900FBE0F901F901895CF92C3
:10175000DF92EF92FF920F931F9378940E944D0DAA
:1017600060E072EC81E090E00E94E20880E090E0AE
:1017700060E070E040E050E00E94EE0C80E090E01D
:101780000E94A60400D084EB91E0EDB7FEB79283EF
:1017900081830E94C5120F900F900E94B4080E948E
:1017A0006C0688E440E050E060EA71E40AE017ED7E
:1017B00023E23CE30F2EFDECCF2EFCECDF2EFCEC05
:1017C000EF2EFDE3FF2EF02D0E94B4078CE440E0E5
:1017D00050E060EA71E40AE017ED23E23CE30E9486
:1017E000B407FFCF0895089508950895CF93DF9328
:1017F000EB01892BC1F477FD09C080E090E060E047
:1018000070E00E94020681E090E020C081E090E05C
:1018100060E070E00E940206662777276C1B7D0B54
:1018200080E090E014C077FD09C083E090E060E0C4
:1018300070E00E94020682E090E008C082E090E042
:1018400060E070E00E94020683E090E0BE010E942A
:101850000206DF91CF9108958FEF84B908951AB8E9
:101860008FEF8BB90895AF92BF92CF92DF92EF9234
:10187000FF920F931F935B016C018FEF85B9C60137
:10188000B50120E030E040E955E40E948A0F7B0179
:101890008C0120E030E040E85FE30E94370E8823AF
:1018A0001CF461E070E024C0C801B70120E03FEF04
:1018B0004FE757E40E94860F1816B4F4C601B5012D
:1018C00020E030E040E251E40E948A0F0E94A80E1E
:1018D0008CEC91E005C0FC013197F1F7615070404C
:1018E00061157105C1F707C0C801B7010E94A80EB4
:1018F000CB010197F1F715B8C801B70120E030E03E
:1019000040E85FE30E94370E88231CF461E070E03A
:1019100024C0C801B70120E03FEF4FE757E40E9421
:10192000860F1816B4F4C601B50120E030E040E29D
:1019300051E40E948A0F0E94A80E8CEC91E005C031
:10194000FC013197F1F76150704061157105C1F7E5
:1019500007C0C801B7010E94A80ECB010197F1F79B
:101960001F910F91FF90EF90DF90CF90BF90AF90BD
:10197000089589B120E030E08F3F11F021E030E0A0
:10198000C9010895835F9040AA2797FDA095BA2FBB
:10199000BC01CD010E94D60E29EE36E24DE850E49E
:1019A0000E943B0E0E94A30ECB010895AA2797FD2B
:1019B000A095BA2FBC01CD010E94D60E25EE30EDC8
:1019C0004AE050E40E948A0F20E030E042EE52E408
:1019D0000E94D30D0E94A30ECB0108959C01F894A0
:1019E0008130910569F082309105A9F00097D9F412
:1019F00016BC83E085BD81E080936E0085BB13C07B
:101A0000109285001092840081E080938100809381
:101A10006F0086BB08C01092B20081E08093B100D5
:101A20008093700087BB6130710521F5213031054D
:101A300069F022303105B1F0232BE1F482E084BD5E
:101A400015BC47BD80936E0085BB14C088E08093B1
:101A50008100509389004093880082E080936F005A
:101A600086BB08C082E08093B0004093B3008093AF
:101A7000700087BB78940895813039F0813018F078
:101A8000823051F407C067BD089570938900609358
:101A9000880008956093B300089584EF91E09093D7
:101AA00074028093730260E072EC81E090E00E9427
:101AB0005F0D08950E94020980E090E008959B0167
:101AC000AC0184E0220F331F441F551F8A95D1F7C4
:101AD00060E070E489E191E00E94521121503040B1
:101AE0003093C5002093C40088E18093C10086E054
:101AF0008093C2000895982F8091C00085FFFCCF8D
:101B00009093C6000895FC0107C08091C00085FF36
:101B1000FCCF9093C600319690819923B1F7089538
:101B20000F931F93DF93CF93CDB7DEB764970FB6B4
:101B3000F894DEBF0FBECDBF2DB73EB72850304062
:101B40000FB6F8943EBF0FBE2DBFEDB7FEB731966E
:101B50008E010F5F1F4FADB7BEB712961C930E9349
:101B600011972CEB31E03383228395838483778331
:101B700066830E94DA122DB73EB7285F3F4F0FB63B
:101B8000F8943EBF0FBE2DBFC8010E94830D64961E
:101B90000FB6F894DEBF0FBECDBFCF91DF911F917E
:101BA0000F9108955058BB27AA270ED075C166D152
:101BB00030F06BD120F031F49F3F11F41EF45BC183
:101BC0000EF4E095E7FB51C1E92F77D180F3BA1706
:101BD000620773078407950718F071F49EF58FC1AB
:101BE0000EF4E0950B2EBA2FA02D0B01B901900138
:101BF0000C01CA01A0011124FF27591B99F0593F7C
:101C000050F4503E68F11A16F040A22F232F342FC3
:101C10004427585FF3CF469537952795A795F04011
:101C20005395C9F77EF41F16BA0B620B730B840B26
:101C3000BAF09150A1F0FF0FBB1F661F771F881FDE
:101C4000C2F70EC0BA0F621F731F841F48F4879536
:101C500077956795B795F7959E3F08F0B3CF939525
:101C6000880F08F09927EE0F979587950895D9D09A
:101C700008F481E008950CD00FC107D140F0FED0E8
:101C800030F021F45F3F19F0F0C0511139C1F3C0B9
:101C900014D198F39923C9F35523B1F3951B550B30
:101CA000BB27AA2762177307840738F09F5F5F4F2F
:101CB000220F331F441FAA1FA9F333D00E2E3AF070
:101CC000E0E830D091505040E695001CCAF729D08A
:101CD000FE2F27D0660F771F881FBB1F26173707D9
:101CE0004807AB07B0E809F0BB0B802DBF01FF2709
:101CF00093585F4F2AF09E3F510568F0B6C000C16F
:101D00005F3FECF3983EDCF3869577956795B79542
:101D1000F7959F5FC9F7880F911D9695879597F95D
:101D20000895E1E0660F771F881FBB1F62177307D6
:101D30008407BA0720F0621B730B840BBA0BEE1FEB
:101D400088F7E095089504D06894B111D9C008953A
:101D5000BCD088F09F5790F0B92F9927B751A0F0C9
:101D6000D1F0660F771F881F991F1AF0BA95C9F72F
:101D700012C0B13081F0C3D0B1E00895C0C0672F68
:101D8000782F8827B85F39F0B93FCCF386957795DF
:101D90006795B395D9F73EF49095809570956195C8
:101DA0007F4F8F4F9F4F0895E89409C097FB3EF4F3
:101DB00090958095709561957F4F8F4F9F4F992398
:101DC000A9F0F92F96E9BB279395F6958795779516
:101DD0006795B795F111F8CFFAF4BB0F11F460FFD6
:101DE0001BC06F5F7F4F8F4F9F4F16C0882311F02E
:101DF00096E911C0772321F09EE8872F762F05C042
:101E0000662371F096E8862F70E060E02AF09A95DC
:101E1000660F771F881FDAF7880F9695879597F9D1
:101E20000895990F0008550FAA0BE0E8FEEF16166B
:101E30001706E807F907C0F012161306E407F507BE
:101E400098F0621B730B840B950B39F40A2661F032
:101E5000232B242B252B21F408950A2609F4A140D5
:101E6000A6958FEF811D811D089597F99F6780E8E2
:101E700070E060E008959FEF80EC089500240A94DC
:101E80001616170618060906089500240A94121655
:101E90001306140605060895092E0394000C11F488
:101EA000882352F0BB0F40F4BF2B11F460FF04C035
:101EB0006F5F7F4F8F4F9F4F089557FD9058440F8E
:101EC000551F59F05F3F71F04795880F97FB991F99
:101ED00061F09F3F79F08795089512161306140656
:101EE000551FF2CF4695F1DF08C0161617061806E3
:101EF000991FF1CF86957105610508940895E894BE
:101F0000BB2766277727CB0197F908958ADF08F466
:101F10008FEF08950BD0C0CFB1DF28F0B6DF18F0F7
:101F2000952309F0A2CFA7CF1124EACFC6DFA0F3F3
:101F3000959FD1F3950F50E0551F629FF001729F5E
:101F4000BB27F00DB11D639FAA27F00DB11DAA1F7D
:101F5000649F6627B00DA11D661F829F2227B00DCA
:101F6000A11D621F739FB00DA11D621F839FA00D55
:101F7000611D221F749F3327A00D611D231F849FA5
:101F8000600D211D822F762F6A2F11249F575040FC
:101F90008AF0E1F088234AF0EE0FFF1FBB1F661F97
:101FA000771F881F91505040A9F79E3F510570F050
:101FB0005CCFA6CF5F3FECF3983EDCF38695779538
:101FC0006795B795F795E7959F5FC1F7FE2B880F4B
:101FD000911D9695879597F90895FA01EE0FFF1FC9
:101FE00030962105310599F16115710561F480384C
:101FF000BFE39B0749F168949038810561F0803810
:10200000BFEF9B0741F0992342F5FF3FE105310502
:10201000210511F1E8940894E795D901AA2329F440
:10202000AB2FBE2FF85FD0F310C0FF5F70F4A69502
:10203000E0F7F73950F019F0FF3A38F49F779F93A3
:102040000CD00F9007FC905808953EF014CF60E03C
:1020500070E080E89FE308954FE79F775F934F9389
:102060003F932F939ED02F913F914F915F9152DFDD
:1020700005C019F40EF0F9CE42CFFDCE26DFC8F32D
:102080009638C0F707F80F92E8942BE33AEA48EB4A
:102090005FE74EDF0F920F920F924DB75EB70F9230
:1020A000C0D0ECE7F0E016D04F915F91EF91FF9137
:1020B000E595EE1FFF1F49F0FE57E0684427EE0F3D
:1020C000441FFA95E1F74195550B32D00F9007FE6A
:1020D00026C00895DF93CF931F930F93FF92EF9243
:1020E000DF927B018C01689405C0DA2EEF011EDFC0
:1020F000FE01E894A5912591359145915591AEF356
:10210000EF0162DDFE019701A801DA9479F7DF9013
:10211000EF90FF900F911F91CF91DF9108959B0158
:10212000AC0160E070E080E89FE3A5CD9ECEACC03E
:10213000CCDEE8F39923D9F3940F511DBBF39150F2
:10214000504094F059F0882332F0660F771F881FB3
:1021500091505040C1F79E3F510544F7880F911DA3
:102160009695879597F908955F3FACF0983E9CF05F
:10217000BB27869577956795B79508F4B1609395D9
:10218000C1F7BB0F58F711F460FFE8CF6F5F7F4FC7
:102190008F4F9F4FE3CFB4CE0EF076C06CCE6894D5
:1021A00064CE93DEC8F39923D1F3C6F3DF93CF93C4
:1021B0001F930F93FF92C92FDD2788232AF02197C1
:1021C000660F771F881FDAF720E030E040E85FEB0A
:1021D0009FE3883920F0803E30F021968F77E3DC52
:1021E000E4EAF0E003C0DFDCE1EDF0E073DF8B0157
:1021F000BE01EC01FB2E6F5771097595771F880B97
:10220000990BD4DD28E132E741E35FE38FDEAF2DA8
:102210009801AE01FF900F911F91CF91DF91D4DC17
:102220003BCEFA01DC01AA0FBB1F9B01AC01BF57DB
:1022300028F422273327442750781FC0B75188F449
:10224000AB2F0024469537952795011CA395D2F313
:10225000002069F0220F331F441FB395DAF30DD02D
:10226000A1CC61307105A0E88A07B94630F49B0122
:10227000AC016627772788279078309621F0208355
:1022800031834283538308959F3F31F0915020F46E
:10229000879577956795B795880F911D9695879542
:1022A00097F90895A1E21A2EAA1BBB1BFD010DC0D0
:1022B000AA1FBB1FEE1FFF1FA217B307E407F507F6
:1022C00020F0A21BB30BE40BF50B661F771F881FD2
:1022D000991F1A9469F760957095809590959B0168
:1022E000AC01BD01CF0108952F923F924F925F92B2
:1022F0006F927F928F929F92AF92BF92CF92DF9216
:10230000EF92FF920F931F93CF93DF93CDB7DEB77A
:10231000CA1BDB0B0FB6F894DEBF0FBECDBF09940E
:102320002A88398848885F846E847D848C849B8465
:10233000AA84B984C884DF80EE80FD800C811B8173
:10234000AA81B981CE0FD11D0FB6F894DEBF0FBEA2
:10235000CDBFED010895283008F027E03327DA01DA
:10236000990F311D87FD916000966105710539F463
:1023700032602E5F3D9330E32A95E1F708959F3F49
:1023800030F080387105610509F03C5F3C5F3D939A
:10239000913008F08068911DDF93CF931F930F93C6
:1023A000FF92EF92192F987F9695E92F9695969523
:1023B000E90FFF27E05AFE4F99273327EE24FF2429
:1023C000A701E70105900894079428F4360FE71E4B
:1023D000F81E491F511D660F771F881F991F06940D
:1023E000A1F70590079428F4E70EF81E491F561F21
:1023F000C11D770F881F991F661F0694A1F70590CE
:10240000079428F4F80E491F561FC71FD11D880FC7
:10241000991F661F771F0694A1F70590079420F473
:10242000490F561FC71FD81F990F661F771F881F98
:102430000694A9F784911095177041F0D695C79529
:1024400057954795F794E7941A95C1F7E6E0F1E0C0
:1024500068941590159135916591959105907FE25D
:102460007395E118F10A430B560BC90BD009C0F75D
:10247000E10CF11E431F561FC91FD01D7EF470339F
:1024800011F48A95E6CFE894015030F0080F0AF471
:102490000027021708F4202F2395022F7A3328F003
:1024A00079E37D932A95E9F710C07D932A9589F603
:1024B000069497956795379517951794E118F10A43
:1024C000430B560BC90BD00998F023957E91739559
:1024D0007A3308F070E37C932013B8F77E91706133
:1024E0007D9330F0839571E37D9370E32A95E1F756
:1024F0001124EF90FF900F911F91CF91DF919927B9
:1025000087FD90950895FC01059061507040011081
:10251000D8F7809590958E0F9F1F0895FC0161500C
:10252000704001900110D8F7809590958E0F9F1FF5
:1025300008950F931F93CF93DF938C01EB018B8151
:1025400081FF1BC082FF0DC02E813F818C819D8148
:102550002817390764F4E881F9810193F983E88346
:1025600006C0E885F985802F0995892B31F48E8185
:102570009F8101969F838E8302C00FEF1FEFC801DA
:10258000DF91CF911F910F910895A0E0B0E0EBECA7
:10259000F2E10C948411FE01359661917191809164
:1025A000730290917402AF010E941F012096E2E035
:1025B0000C94A011AEE0B0E0E0EEF2E10C948211D8
:1025C0000D891E8986E08C831A8309838FEF9FE72C
:1025D0009E838D839E01275E3F4FCE0101966F89BA
:1025E000788DA9010E941F012F813885020F131FCA
:1025F000F80110822E96E4E00C949E11FA01AA27AD
:10260000283051F1203181F1E8946F936E7F6E5F35
:102610007F4F8F4F9F4FAF4FB1E03ED0B4E03CD0E3
:10262000670F781F891F9A1FA11D680F791F8A1FC6
:10263000911DA11D6A0F711D811D911DA11D20D02D
:1026400009F468943F912AE0269F11243019305DE7
:102650003193DEF6CF010895462F4770405D4193D8
:10266000B3E00FD0C9F7F6CF462F4F70405D4A3325
:1026700018F0495D31FD4052419302D0A9F7EACFED
:10268000B4E0A6959795879577956795BA95C9F71C
:1026900000976105710508959B01AC010A2E06940F
:1026A0005795479537952795BA95C9F7620F731FC8
:0C26B000841F951FA01D0895F894FFCF13
:1026BC00582047733A202566203B200A0D005920EC
:1026CC0047733A202566203B200A0D005A20477399
:1026DC003A202566203B200A0D002055707065724B
:1026EC00204A6F696E7420416E676C6520256420EA
:1026FC000A0D00204C6F776572204A6F696E74204A
:10270C00416E676C653A202564200A0D0062757471
:10271C00746F6E3A202564200A0D00456E636F6459
:10272C0065722030203A2566206465677265657392
:10273C00200A0D00456E636F6465722031203A25C6
:10274C00662064656772656573200A0D00456E63CB
:10275C006F6465722030203A25662073706565645D
:10276C00200A0D0054455354200A0D005365747310
:10277C006572766F2825642C25303364290A0D0088
:10278C000000A040AE47613ED74C4E3FFA00713D71
:10279C006A40FA00B81E8540000010410000C84293
:1027AC000700E80300000002000000005A0D0000C2
:0227BC0000001B
:00000001FF
