:100000000C9400010C941D010C941D010C941D0115
:100010000C941D010C941D010C941D010C941D01E8
:100020000C941D010C941D010C941D010C941D01D8
:100030000C941D010C941D010C941D010C941D01C8
:100040000C941D010C941D010C94AE080C941D0120
:100050000C941D010C941D010C941D010C941D01A8
:100060000C941D010C941D010C941D010C941D0198
:100070000C941D010C941D010C941D010763423664
:10008000B79BD8A71A39685618AEBAAB558C1D3C29
:10009000B7CC5763BD6DEDFD753EF6177231BF00ED
:1000A0000000803F08000000BE922449123EABAA27
:1000B000AA2ABECDCCCC4C3E00000080BEABAAAA82
:1000C000AA3E00000000BF000000803F00000000CA
:1000D00000084178D3BB4387D1133D190E3CC3BD03
:1000E0004282AD2B3E68EC8276BED98FE1A93E4CB0
:1000F00080EFFFBE01C4FF7F3F00000000006E6183
:100100006E00696E660000407A10F35A00A0724ECD
:1001100018090010A5D4E80000E87648170000E4AC
:100120000B54020000CA9A3B000000E1F5050000F4
:1001300080969800000040420F000000A086010059
:100140000000102700000000E80300000000640029
:10015000000000000A000000000001000000000094
:100160002C76D888DC674F0823DFC1DFAE59E1B1B8
:10017000B796E5E3E453C63AE651997696E8E6C2C7
:100180008426EB898C9B62ED407C6FFCEFBC9C9FCE
:1001900040F2BAA56FA5F490055A2AF75C936B6CF0
:1001A000F9676DC11BFCE0E40D47FEF520E6B500E4
:1001B000D0ED902E0300943577050080841E080052
:1001C00000204E0A000000C80C333333330F986E02
:1001D00012831141EF8D2114893BE65516CFFEE6BF
:1001E000DB18D1844B381BF77C1D901DA4BBE42485
:1001F000203284725E228100C9F124ECA1E53D2702
:1002000011241FBECFEFD0E1DEBFCDBF11E0A0E0D3
:10021000B1E0E6E3F2E202C005900D92A838B10722
:10022000D9F711E0A8E8B1E001C01D92A63CB107E2
:10023000E1F70E947D090C9419110C940000A1E1D2
:10024000B0E0E5E2F1E00C942A0F3C017F876E8775
:100250006A01FC0117821682838181FD03C06FEF62
:100260007FEF6FC39E012F5F3F4F398B288BF301C8
:100270002381EE85FF8523FD859123FF8191FF87F3
:10028000EE87882309F45AC3853251F4EE85FF8541
:1002900023FD859123FF8191FF87EE87853229F425
:1002A00090E0B3010E944F10E2CF982F10E0882415
:1002B00099241032B0F49B3269F09C3228F49032C9
:1002C00051F0933271F40BC09D3239F0903349F400
:1002D000116028C01260146025C0186023C010612E
:1002E00021C017FD2AC0892F80538A3078F416FF69
:1002F00006C0FAE09F9E902C1124980E13C03AE09D
:10030000839E802C1124880E10620CC09E3221F432
:1003100016FD14C3106406C09C3611F4106802C0A8
:10032000983659F4EE85FF8523FD959123FF919131
:10033000FF87EE87992309F0BCCF892F855483303E
:1003400020F4812F8061905E07C0892F855683300D
:1003500008F09FC1812F8F7E86FD02C076E0972E28
:100360006FE3F62EF822953619F4F0E4FF2A07C061
:10037000963619F420E8F22A02C091109A94F7FEFA
:100380000AC03BE3391518F45CE3B52E02C0B92C62
:10039000B39427E009C047E0491520F4BB2447E0A7
:1003A000942EF7CF292DBB24C60104969D878C87F8
:1003B000F6016081718182819381AE014F5F5F4F51
:1003C0000B2D0E94610F6C010981202E332400FF48
:1003D00004C003FD02C01DE209C0F1FE02C01BE221
:1003E00005C0F2FC02C010E001C010E2C1018C7037
:1003F0009070892BB9F1112311F483E001C084E0DE
:10040000881510F088240AC0881AF3FC07C080E21F
:1004100090E0B3010E944F108A94C9F7112329F08C
:10042000812F90E0B3010E944F1023FE03C00EEF16
:1004300010E00EC002E011E00BC0E114F10409F07D
:10044000805290E0B3010E944F100F5F1F4F05C014
:10045000EF2CFF24F0E1EF22FF24F80184918823A0
:1004600061F714C1F7FE12C0BC0C24FE04C08A81DF
:10047000813309F4BA941B141CF0BB24B3942DC02F
:10048000F8E0FB1550F538E0B32E27C0F6FC25C088
:10049000892D90E08C159D054CF02CEFC2162FEFA6
:1004A000D20624F030E8F32A01C09A94992049F04A
:1004B000E2E0F0E0EC0FFD1FE90DF11D80818033DB
:1004C000A1F3F7FE0AC0B92CB394892D90E0C816A9
:1004D000D90614F0992401C09C18F7FC03C025E04C
:1004E00030E009C01C141D041CF021E030E003C002
:1004F00096012F5F3F4F112311F02F5F3F4F99203F
:1005000029F0892D90E00196280F391F882D90E061
:100510002817390714F0882401C0821A4F2C55245B
:10052000C20189709070892B39F008C080E290E098
:10053000B3010E944F108A948820C1F7112329F03B
:10054000812F90E0B3010E944F1043FE07C008C006
:1005500080E390E0B3010E944F108A948820C1F795
:10056000F7FE46C08601D7FE02C000E010E076012B
:100570000894E11CF11CE01AF10A41E050E04C0F34
:100580005D1FE40EF51E26014B185108892D90E0E1
:10059000AA24BB24A81AB90A5FEF0F3F150729F454
:1005A0008EE290E0B3010E944F10C016D10634F0E5
:1005B000401651061CF4F701808101C080E3015010
:1005C00010400894E11CF11C0A151B052CF090E06A
:1005D000B3010E944F10E0CF0C151D0539F49A812C
:1005E000963318F4953311F424FE81E390E04BC068
:1005F0008A81813309F00F7E90E0B3010E944F1091
:100600009920A1F08EE290E0B3010E944F1012E019
:10061000E1E0F0E0EC0FFD1FE10FF11D1F5F8081B5
:1006200090E0B3010E944F109A9491F744FC03C0EC
:1006300085E690E002C085E490E0B3010E944F108F
:10064000D7FC05C0C114D10441F404FF06C0D09406
:10065000C194D108D3948DE201C08BE290E0B30144
:100660000E944F1080E305C08F5F26EF3FEFC20E60
:10067000D31E3AE0C316D104BCF790E0B3010E9448
:100680004F10C601C096B3010E944F10CC84DD8488
:1006900052C1933631F0933799F0933509F059C030
:1006A00023C0F601808189835E010894A11CB11CDE
:1006B00022E030E0C20ED31E21E0E22EF12C12C067
:1006C000F601A080B18016FD03C06FEF7FEF02C07E
:1006D000692D70E022E030E0C20ED31EC5010E94F9
:1006E00044107C011F7713C0F601A080B18016FD75
:1006F00003C06FEF7FEF02C0692D70E022E030E0B1
:10070000C20ED31EC5010E9439107C01106813FF70
:1007100007C01BC080E290E0B3010E944F108A9492
:10072000882D90E0E816F906A8F30FC0F50117FD33
:10073000859117FF81915F0190E0B3010E944F10F6
:1007400081108A940894E108F108E114F10471F72A
:10075000F2C0943611F0993689F517FF08C0F601FA
:10076000208131814281538184E090E00AC0F6010A
:10077000808191819C01442737FD4095542F82E070
:1007800090E0C80ED91E9FE6F92EF12257FF09C04E
:1007900050954095309521953F4F4F4F5F4F90E8D2
:1007A000F92ACA01B901AE014F5F5F4F2AE030E07C
:1007B0000E94BB10E82EE889EE1A41C0953721F45B
:1007C0001F7E2AE030E01CC0197F9F3661F0903711
:1007D00020F4983509F0B2C00FC0903739F098373F
:1007E00009F0ACC004C028E030E00AC0106114FD7C
:1007F000146020E130E004C014FD166020E132E016
:1008000017FF08C0F601608171818281938144E005
:1008100050E008C0F60180819181BC0180E090E049
:1008200042E050E0C40ED51EAE014F5F5F4F0E9404
:10083000BB10E82E5889E51A8FE7F82EF122F6FE54
:100840000BC08EEFF822E91438F4F4FE07C0F2FC76
:1008500005C09FEEF92202C01E2D01C0192DF4FE25
:100860000DC0FE01EE0DF11D8081803319F4E9EE1B
:10087000FE2208C01F5FF2FE05C003C08F2D8678E0
:1008800009F01F5F0F2DF3FC14C0F0FE0FC0181508
:1008900010F09E2C0BC09E2C980C911A182D06C09F
:1008A00080E290E0B3010E944F101F5F1815C0F363
:1008B00004C0181510F4811A01C0882404FF0FC069
:1008C00080E390E0B3010E944F1002FF1DC001FDC4
:1008D00003C088E790E00EC088E590E00BC0802F51
:1008E000867891F001FF02C08BE201C080E2F7FC44
:1008F0008DE290E0B3010E944F1006C080E390E0CB
:10090000B3010E944F109A94E914C0F3EA94E1E015
:10091000F0E0EC0FFD1FEE0DF11D808190E0B301C2
:100920000E944F10EE2091F706C080E290E0B301E4
:100930000E944F108A948820C1F799CCF3016681F8
:100940007781CB016196E2E10C94460F806480933D
:100950007C00EAE7F0E080818760808380818068A6
:10096000808380818064808380E480937B0011B8E1
:100970000895807480937C00089520917C00877096
:100980009070287F282B20937C0080917A008064CF
:1009900080937A0080917A0084FFFCCF80917A0066
:1009A000806180937A002091780030917900C901AC
:1009B0000895806480937C0008956F927F928F9257
:1009C0009F92AF92BF92CF92DF92EF92FF920F93DE
:1009D0001F935B016C01E0906C01F0906D01009140
:1009E0006E0110916F01A80197010E943C0D60906B
:1009F0007001709071018090720190907301882352
:100A000074F0C601B501A80197010E94880BA401EA
:100A100093010E94A30DAC01CB01DA010FC0C80104
:100A2000B701A60195010E94880BA40193010E94C1
:100A3000A30D9B01AC01DA01C901B058BC01CD0185
:100A40001F910F91FF90EF90DF90CF90BF90AF90EC
:100A50009F908F907F906F900895209174013091B6
:100A6000750140917601509177010E94A30D089580
:100A70001F93182F5F9886E00E947908812F829536
:100A8000880F880F807C0E947908182F80E00E94D0
:100A900079085F9A512F40E0282F30E0242B352B26
:100AA000C9011F9108952F923F924F925F926F92CA
:100AB0007F928F929F92AF92BF92CF92DF92EF92EE
:100AC000FF920F931F93DF93CF9300D000D000D0FD
:100AD000CDB7DEB79E838D8380E090E00E9438051D
:100AE0007C0181E090E00E9438055C0182E090E0AA
:100AF0000E9438053C0120907401309075014090AF
:100B000076015090770100E010E0C801B7010E9423
:100B10008A0CA20191010E94A30D162F072FF82E17
:100B2000E92ECC24DD24C601B5010E948A0CA20165
:100B300091010E94A30DD62EC72EB82EA92E88246F
:100B40009924C401B3010E948A0CA20191010E9460
:100B5000A30D962E872E782E692E212F302F4F2D04
:100B60005E2DB901CA010E94DD0469837A838B83FB
:100B70009C832D2D3C2D4B2D5A2DB901CA010E946D
:100B8000DD041B012C01292D382D472D562DB901CF
:100B9000CA010E94DD046B017C018D819E81892B3D
:100BA00009F47EC000D000D000D080E091E0ADB765
:100BB000BEB712969C938E93119789819A81AB81CF
:100BC000BC81EDB7FEB783839483A583B6830E946F
:100BD0007B108DB79EB706960FB6F8949EBF0FBEDA
:100BE0008DBF8BE390E00E94901000D009E011E0EF
:100BF000ADB7BEB712961C930E9311970E947B104F
:100C000000D000D08CE091E0EDB7FEB792838183F5
:100C1000ADB7BEB713962D923D924D925C9216974A
:100C20000E947B10EDB7FEB736960FB6F894FEBF64
:100C30000FBEEDBF8BE390E00E94901000D0ADB7E7
:100C4000BEB712961C930E9311970E947B1000D092
:100C500000D085E191E0EDB7FEB792838183ADB717
:100C6000BEB71396CD92DD92ED92FC9216970E943C
:100C70007B10EDB7FEB736960FB6F894FEBF0FBEE9
:100C8000EDBF8BE390E00E94901000D0ADB7BEB7EF
:100C900012961C930E9311970E947B100F900F9049
:100CA00026960FB6F894DEBF0FBECDBFCF91DF9171
:100CB0001F910F91FF90EF90DF90CF90BF90AF907A
:100CC0009F908F907F906F905F904F903F902F906C
:100CD0000895EF92FF920F931F93482FCB0120E1CD
:100CE0006030720714F08FEF9FE07C010027F7FC63
:100CF0000095102F80912B008F7E80932B00842FE6
:100D000080630E947908D801C70124E0B695A795B1
:100D1000979587952A95D1F70E9479088FE090E002
:100D2000A0E0B0E0E822F9220A231B238E2D829551
:100D3000807F0E94790880912B00806180932B0036
:100D400080912B008F7E80932B0080912B008061FF
:100D500080932B001F910F91FF90EF90089581E0F9
:100D600090E00895009719F00197E1F40EC080918A
:100D700028008F7D8093280080E20E94790880916E
:100D800028008062809328000895809128008F7E3B
:100D90008093280080E20E94790880912800806179
:100DA000809328000895809128008F7D80932800EB
:100DB00088E80E947908809128008062809328004A
:100DC000809128008F7E8093280088E80E9479080F
:100DD000809128008061809328000895FF920F93EE
:100DE0001F93009729F0019769F140E050E055C04A
:100DF000809128008F7D8093280080E60E947908EA
:100E000080E00E947908182F80E00E947908082F5E
:100E100080E00E947908F82E80E00E947908512F26
:100E2000552740E0302F332720E0422B532B90E012
:100E3000482B592B9F2D80E0482B592B809128005F
:100E4000806229C0809128008F7E8093280080E6F0
:100E50000E94790880E00E947908182F80E00E94A3
:100E60007908082F80E00E947908F82E80E00E941F
:100E70007908512F552740E0302F332720E0422BAF
:100E8000532B90E0482B592B9F2D80E0482B592B5A
:100E900080912800806180932800CA011F910F91E2
:100EA000FF900895CF92DF92EF92FF920F931F93DE
:100EB0008823C9F440939C0150939D0160939E0147
:100EC00070939F010093A0011093A1012093A201B0
:100ED0003093A301C092A401D092A501E092A60193
:100EE000F092A7011AC08130C1F44093B001509331
:100EF000B1016093B2017093B3010093B4011093F8
:100F0000B5012093B6013093B701C092B801D092D9
:100F1000B901E092BA01F092BB011F910F91FF90CD
:100F2000EF90DF90CF9008952F923F924F925F9273
:100F30006F927F928F929F92AF92BF92CF92DF92E9
:100F4000EF92FF920F931F93CF93DF936A01882351
:100F500049F52090A0013090A1014090A20150904D
:100F6000A3018090A4019090A501A090A601B0904B
:100F7000A701E0909C01F0909D0100919E011091CD
:100F80009F01A091AA01B091AB0140919A015091AB
:100F90009B01E091A801F091A901609098017090E7
:100FA00099012AC0813041F52090B4013090B501FB
:100FB0004090B6015090B7018090B8019090B9016F
:100FC000A090BA01B090BB01E090B001F090B101E7
:100FD0000091B2011091B301A091BE01B091BF0187
:100FE0004091AE015091AF01E091BC01F091BD0183
:100FF0006090AC017090AD019B012C193D092E173A
:101000003F0734F4EA01C20FD31FCA17DB070CF005
:10101000EA01B901882777FD8095982F0E948C0CF2
:10102000A80197010E94400D7B018C01C618D708CA
:10103000B601882777FD8095982F0E948C0CA5011A
:1010400094010E94400D9B01AC01C801B7010E94B0
:10105000890B7B018C01BE01882777FD8095982F35
:101060000E948C0CA20191010E94400D9B01AC01D9
:10107000C801B7010E94890B0E94590CCB01DF9176
:10108000CF911F910F91FF90EF90DF90CF90BF9085
:10109000AF909F908F907F906F905F904F903F9018
:1010A0002F90089580912A00806880932A00809173
:1010B0002B00806880932B008091240080628093B5
:1010C0002400809124008F7B809324008091240051
:1010D00080688093240080912400806180932400A4
:1010E00080912A00806180932A0083E58CBD1DBC1D
:1010F00008958EBD0DB407FEFDCF8EB508959B01FA
:10110000AC0194E0220F331F441F551F9A95D1F76D
:1011100060E070E489E191E00E94080F21503040C6
:10112000832F992787FD9A958093CD002093CC003B
:1011300088E18093C90086E08093CA000895982FC3
:101140008091C80085FFFCCF9093CE0008958091D8
:10115000C80087FFFCCF8091CE0008951F920F92A8
:101160000FB60F9211242F933F938F939F938091EB
:10117000940190919501019690939501809394012B
:10118000209194013091950180917801909179019D
:101190002817390754F081E090E0909397018093ED
:1011A000960110929501109294019F918F913F9119
:1011B0002F910F900FBE0F901F9018954F925F9236
:1011C0006F927F928F929F92AF92BF92CF92DF9257
:1011D000EF92FF920F931F93CF93DF93809127009D
:1011E000806280932700809128008062809328008D
:1011F0008091270080618093270080912800806182
:101200008093280000D08EE191E0EDB7FEB7928385
:1012100081830E947B100F900F9080E090E00E94ED
:10122000B20681E090E00E94B20620E137E296E249
:10123000492E91E0592E8FE3682E81E0782ECCEC78
:10124000D1E005C0CE010197F1F7215030402115C2
:101250003105C1F780E090E00E94EE067C0181E05C
:1012600090E00E94EE065C0100D000D000D08DB668
:101270009EB60894811C911CEDB7FEB75282418244
:101280000027F7FC0095102FC801B7010E948C0CB5
:101290002CE53FE842E45EE30E94400DF4016283E6
:1012A0007383848395830E947B100DB71EB70F5FF5
:1012B0001F4FEDB7FEB772826182CC24B7FCC09499
:1012C000DC2CC601B5010E948C0C2FE832EC45EFF6
:1012D0005DE30E94400DF8016283738384839583EC
:1012E0000E947B1020E137E28DB79EB706960FB6BD
:1012F000F8949EBF0FBE8DBFA5CF78940E94030BBC
:1013000060E072EC81E090E00E947F0880E090E075
:1013100060E070E040E050E00E94A40A00D08EE15E
:1013200091E0EDB7FEB7928381830E947B100F900E
:101330000F900E94520880E090E060E070E040E092
:1013400050E00E94A40A0E94D3060E94DE08FDCF4E
:101350000895089508950895CF93DF93EB01892BA5
:10136000C1F477FD09C080E090E060E070E00E9489
:10137000690681E090E020C081E090E060E070E0EC
:101380000E946906662777276C1B7D0B80E090E042
:1013900014C077FD09C083E090E060E070E00E9437
:1013A000690682E090E008C082E090E060E070E0D2
:1013B0000E94690683E090E0BE010E946906DF9109
:1013C000CF9108958FEF84B908951AB88FEF8BB934
:1013D0000895AF92BF92CF92DF92EF92FF920F9358
:1013E0001F935B016C018FEF85B9C601B50120E049
:1013F00030E040E955E40E94400D7B018C0120E083
:1014000030E040E85FE30E94ED0B88231CF461E0CC
:1014100070E024C0C801B70120E03FEF4FE757E478
:101420000E943C0D1816B4F4C601B50120E030E06E
:1014300040E251E40E94400D0E945E0C8CEC91E071
:1014400005C0FC013197F1F76150704061157105DD
:10145000C1F707C0C801B7010E945E0CCB0101971C
:10146000F1F715B8C801B70120E030E040E85FE3CC
:101470000E94ED0B88231CF461E070E024C0C801D9
:10148000B70120E03FEF4FE757E40E943C0D1816EC
:10149000B4F4C601B50120E030E040E251E40E941E
:1014A000400D0E945E0C8CEC91E005C0FC01319770
:1014B000F1F76150704061157105C1F707C0C801AF
:1014C000B7010E945E0CCB010197F1F71F910F91BC
:1014D000FF90EF90DF90CF90BF90AF90089589B1CB
:1014E00020E030E08F3F11F021E030E0C9010895A5
:1014F000835F9040AA2797FDA095BA2FBC01CD012C
:101500000E948C0C29EE36E24DE850E40E94F10B6B
:101510000E94590CCB010895AA2797FDA095BA2FD8
:10152000BC01CD010E948C0C25EE30ED4AE050E468
:101530000E94400D20E030E042EE52E40E94890B10
:101540000E94590CCB0108959C01F89481309105BB
:1015500069F082309105A9F00097D9F416BC83E0B8
:1015600085BD81E080936E0085BB13C0109285001D
:101570001092840081E08093810080936F0086BB8D
:1015800008C01092B20081E08093B1008093700097
:1015900087BB6130710521F52130310569F02230BA
:1015A0003105B1F0232BE1F482E084BD15BC47BDC9
:1015B00080936E0085BB14C088E0809381005093B7
:1015C00089004093880082E080936F0086BB08C04A
:1015D00082E08093B0004093B3008093700087BB9B
:1015E00078940895813039F0813018F0823051F4C8
:1015F00007C067BD089570938900609388000895BF
:101600006093B30008958AE791E09093C3018093BB
:10161000C20160E072EC81E090E00E94150B089539
:101620000E949F0880E090E008959B01AC0184E057
:10163000220F331F441F551F8A95D1F760E070E4D5
:1016400089E191E00E94080F215030403093C5009D
:101650002093C40088E18093C10086E08093C2009B
:101660000895982F8091C00085FFFCCF9093C6000D
:101670000895FC0107C08091C00085FFFCCF9093C6
:10168000C600319690819923B1F708950F931F9367
:10169000DF93CF93CDB7DEB764970FB6F894DEBF74
:1016A0000FBECDBF2DB73EB7285030400FB6F894CF
:1016B0003EBF0FBE2DBFEDB7FEB731968E010F5F57
:1016C0001F4FADB7BEB712961C930E93119728E526
:1016D00031E03383228395838483778366830E94FA
:1016E00097102DB73EB7285F3F4F0FB6F8943EBF17
:1016F0000FBE2DBFC8010E94390B64960FB6F89437
:10170000DEBF0FBECDBFCF91DF911F910F91089526
:101710005058BB27AA270ED075C166D130F06BD1C7
:1017200020F031F49F3F11F41EF45BC10EF4E095FC
:10173000E7FB51C1E92F77D180F3BA17620773072E
:101740008407950718F071F49EF58FC10EF4E095AB
:101750000B2EBA2FA02D0B01B90190010C01CA016B
:10176000A0011124FF27591B99F0593F50F4503E16
:1017700068F11A16F040A22F232F342F4427585F08
:10178000F3CF469537952795A795F0405395C9F720
:101790007EF41F16BA0B620B730B840BBAF09150D8
:1017A000A1F0FF0FBB1F661F771F881FC2F70EC077
:1017B000BA0F621F731F841F48F48795779567954A
:1017C000B795F7959E3F08F0B3CF9395880F08F033
:1017D0009927EE0F979587950895D9D008F481E061
:1017E00008950CD00FC107D140F0FED030F021F4A5
:1017F0005F3F19F0F0C0511139C1F3C014D198F313
:101800009923C9F35523B1F3951B550BBB27AA2781
:1018100062177307840738F09F5F5F4F220F331FF3
:10182000441FAA1FA9F333D00E2E3AF0E0E830D0BF
:1018300091505040E695001CCAF729D0FE2F27D0C2
:10184000660F771F881FBB1F261737074807AB0790
:10185000B0E809F0BB0B802DBF01FF2793585F4F05
:101860002AF09E3F510568F0B6C000C15F3FECF31F
:10187000983EDCF3869577956795B795F7959F5FCA
:10188000C9F7880F911D9695879597F90895E1E01E
:10189000660F771F881FBB1F621773078407BA077D
:1018A00020F0621B730B840BBA0BEE1F88F7E095D8
:1018B000089504D06894B111D9C00895BCD088F0BF
:1018C0009F5790F0B92F9927B751A0F0D1F0660F2C
:1018D000771F881F991F1AF0BA95C9F712C0B13047
:1018E00081F0C3D0B1E00895C0C0672F782F88275A
:1018F000B85F39F0B93FCCF3869577956795B39586
:10190000D9F73EF490958095709561957F4F8F4FF4
:101910009F4F0895E89409C097FB3EF490958095F9
:10192000709561957F4F8F4F9F4F9923A9F0F92FA5
:1019300096E9BB279395F695879577956795B79523
:10194000F111F8CFFAF4BB0F11F460FF1BC06F5F09
:101950007F4F8F4F9F4F16C0882311F096E911C01B
:10196000772321F09EE8872F762F05C0662371F03C
:1019700096E8862F70E060E02AF09A95660F771F50
:10198000881FDAF7880F9695879597F90895990F2C
:101990000008550FAA0BE0E8FEEF16161706E80739
:1019A000F907C0F012161306E407F50798F0621B5A
:1019B000730B840B950B39F40A2661F0232B242B2F
:1019C000252B21F408950A2609F4A140A6958FEF4E
:1019D000811D811D089597F99F6780E870E060E0A0
:1019E00008959FEF80EC089500240A9416161706B8
:1019F00018060906089500240A9412161306140600
:101A000005060895092E0394000C11F4882352F062
:101A1000BB0F40F4BF2B11F460FF04C06F5F7F4F1A
:101A20008F4F9F4F089557FD9058440F551F59F001
:101A30005F3F71F04795880F97FB991F61F09F3FBB
:101A400079F087950895121613061406551FF2CFE4
:101A50004695F1DF08C0161617061806991FF1CF34
:101A600086957105610508940895E894BB2766275B
:101A70007727CB0197F908958ADF08F48FEF08954F
:101A80000BD0C0CFB1DF28F0B6DF18F0952309F0F6
:101A9000A2CFA7CF1124EACFC6DFA0F3959FD1F341
:101AA000950F50E0551F629FF001729FBB27F00D0C
:101AB000B11D639FAA27F00DB11DAA1F649F662761
:101AC000B00DA11D661F829F2227B00DA11D621FB0
:101AD000739FB00DA11D621F839FA00D611D221F6A
:101AE000749F3327A00D611D231F849F600D211D4E
:101AF000822F762F6A2F11249F5750408AF0E1F0F1
:101B000088234AF0EE0FFF1FBB1F661F771F881F39
:101B100091505040A9F79E3F510570F05CCFA6CF81
:101B20005F3FECF3983EDCF3869577956795B79524
:101B3000F795E7959F5FC1F7FE2B880F911D96954E
:101B4000879597F90895FA01EE0FFF1F309621054A
:101B5000310599F16115710561F48038BFE39B0788
:101B600049F168949038810561F08038BFEF9B0798
:101B700041F0992342F5FF3FE1053105210511F1BF
:101B8000E8940894E795D901AA2329F4AB2FBE2F36
:101B9000F85FD0F310C0FF5F70F4A695E0F7F73957
:101BA00050F019F0FF3A38F49F779F930CD00F90C4
:101BB00007FC905808953EF014CF60E070E080E894
:101BC0009FE308954FE79F775F934F933F932F9342
:101BD0009ED02F913F914F915F9152DF05C019F434
:101BE0000EF0F9CE42CFFDCE26DFC8F39638C0F70F
:101BF00007F80F92E8942BE33AEA48EB5FE74EDFF1
:101C00000F920F920F924DB75EB70F92C0D0ECE7D4
:101C1000F0E016D04F915F91EF91FF91E595EE1FA7
:101C2000FF1F49F0FE57E0684427EE0F441FFA9566
:101C3000E1F74195550B32D00F9007FE26C008956D
:101C4000DF93CF931F930F93FF92EF92DF927B016D
:101C50008C01689405C0DA2EEF011EDFFE01E894C6
:101C6000A5912591359145915591AEF3EF0162DD36
:101C7000FE019701A801DA9479F7DF90EF90FF90C9
:101C80000F911F91CF91DF9108959B01AC0160E00E
:101C900070E080E89FE3A5CD9ECEACC0CCDEE8F33B
:101CA0009923D9F3940F511DBBF39150504094F0F8
:101CB00059F0882332F0660F771F881F91505040EB
:101CC000C1F79E3F510544F7880F911D9695879562
:101CD00097F908955F3FACF0983E9CF0BB2786953E
:101CE00077956795B79508F4B1609395C1F7BB0FE9
:101CF00058F711F460FFE8CF6F5F7F4F8F4F9F4F12
:101D0000E3CFB4CE0EF076C06CCE689464CE93DE92
:101D1000C8F39923D1F3C6F3DF93CF931F930F93A7
:101D2000FF92C92FDD2788232AF02197660F771F9E
:101D3000881FDAF720E030E040E85FEB9FE3883966
:101D400020F0803E30F021968F77E3DCE4EAF0E08B
:101D500003C0DFDCE1EDF0E073DF8B01BE01EC01DD
:101D6000FB2E6F5771097595771F880B990BD4DD82
:101D700028E132E741E35FE38FDEAF2D9801AE014A
:101D8000FF900F911F91CF91DF91D4DC3BCEFA01F0
:101D9000DC01AA0FBB1F9B01AC01BF5728F422270F
:101DA0003327442750781FC0B75188F4AB2F002445
:101DB000469537952795011CA395D2F3002069F02D
:101DC000220F331F441FB395DAF30DD0A1CC61303D
:101DD0007105A0E88A07B94630F49B01AC0166277B
:101DE000772788279078309621F0208331834283AB
:101DF000538308959F3F31F0915020F48795779554
:101E00006795B795880F911D9695879597F90895D1
:101E1000A1E21A2EAA1BBB1BFD010DC0AA1FBB1FEE
:101E2000EE1FFF1FA217B307E407F50720F0A21B60
:101E3000B30BE40BF50B661F771F881F991F1A94CD
:101E400069F760957095809590959B01AC01BD01F7
:101E5000CF0108952F923F924F925F926F927F929F
:101E60008F929F92AF92BF92CF92DF92EF92FF92AA
:101E70000F931F93CF93DF93CDB7DEB7CA1BDB0B56
:101E80000FB6F894DEBF0FBECDBF09942A883988FB
:101E900048885F846E847D848C849B84AA84B98402
:101EA000C884DF80EE80FD800C811B81AA81B9810E
:101EB000CE0FD11D0FB6F894DEBF0FBECDBFED0122
:101EC0000895283008F027E03327DA01990F311DF3
:101ED00087FD916000966105710539F432602E5FCF
:101EE0003D9330E32A95E1F708959F3F30F0803825
:101EF0007105610509F03C5F3C5F3D93913008F04E
:101F00008068911DDF93CF931F930F93FF92EF9201
:101F1000192F987F9695E92F96959695E90FFF27AB
:101F2000E05AFE4F99273327EE24FF24A701E7014B
:101F300005900894079428F4360FE71EF81E491FF1
:101F4000511D660F771F881F991F0694A1F70590F2
:101F5000079428F4E70EF81E491F561FC11D770F7E
:101F6000881F991F661F0694A1F70590079428F40F
:101F7000F80E491F561FC71FD11D880F991F661FD6
:101F8000771F0694A1F70590079420F4490F561F78
:101F9000C71FD81F990F661F771F881F0694A9F7C0
:101FA00084911095177041F0D695C7955795479530
:101FB000F794E7941A95C1F7E6E0F1E0689415907C
:101FC000159135916591959105907FE27395E11892
:101FD000F10A430B560BC90BD009C0F7E10CF11EF7
:101FE000431F561FC91FD01D7EF4703311F48A950C
:101FF000E6CFE894015030F0080F0AF400270217EA
:1020000008F4202F2395022F7A3328F079E37D936B
:102010002A95E9F710C07D932A9589F6069497953D
:102020006795379517951794E118F10A430B560BEE
:10203000C90BD00998F023957E9173957A3308F0F7
:1020400070E37C932013B8F77E9170617D9330F03C
:10205000839571E37D9370E32A95E1F71124EF9066
:10206000FF900F911F91CF91DF91992787FD909558
:102070000895FC010590615070400110D8F78095DB
:1020800090958E0F9F1F0895FC0161507040019044
:102090000110D8F7809590958E0F9F1F08950F938C
:1020A0001F93CF93DF938C01EB018B8181FF1BC0CA
:1020B00082FF0DC02E813F818C819D8128173907B9
:1020C00064F4E881F9810193F983E88306C0E88527
:1020D000F985802F0995892B31F48E819F81019696
:1020E0009F838E8302C00FEF1FEFC801DF91CF9156
:1020F0001F910F910895A0E0B0E0E1E8F0E10C94A9
:102100003A0FFE013596619171918091C2019091D3
:10211000C301AF010E941F012096E2E00C94560F0C
:102120006091C2017091C3010E944F100895AEE00A
:10213000B0E0EDE9F0E10C94380F0D891E8986E0DE
:102140008C831A8309838FEF9FE79E838D839E0183
:10215000275E3F4FCE0101966F89788DA9010E94BD
:102160001F012F813885020F131FF80110822E9650
:10217000E4E00C94540FFA01AA27283051F12031E1
:1021800081F1E8946F936E7F6E5F7F4F8F4F9F4F0B
:10219000AF4FB1E03ED0B4E03CD0670F781F891F4D
:1021A0009A1FA11D680F791F8A1F911DA11D6A0F1B
:1021B000711D811D911DA11D20D009F468943F91CE
:1021C0002AE0269F11243019305D3193DEF6CF01CD
:1021D0000895462F4770405D4193B3E00FD0C9F793
:1021E000F6CF462F4F70405D4A3318F0495D31FD00
:1021F0004052419302D0A9F7EACFB4E0A695979553
:10220000879577956795BA95C9F700976105710528
:1022100008959B01AC010A2E069457954795379572
:102220002795BA95C9F7620F731F841F951FA01DCC
:062230000895F894FFCFB1
:10223600582047733A202566000A0D005920477337
:102246003A202566005A2047733A202566005445F1
:102256005354200A0D00456E636F6465722030206A
:102266003A25662064656772656573200A0D004528
:102276006E636F6465722031203A25662064656757
:1022860072656573200A0D00536574736572766F07
:102296002825642C25303364290A0D000000A0404F
:1022A600AE47613ED74C4E3FE803000000020000F7
:0822B6000000100B0000000005
:00000001FF
