:100000000C94BF000C94DC000C94DC000C94DC001D
:100010000C94DC000C94DC000C94DC000C94DC00F0
:100020000C94DC000C94DC000C94DC000C94DC00E0
:100030000C94DC000C94DC000C94DC000C94DC00D0
:100040000C94DC000C94DC000C94330A0C94DC005F
:100050000C94DC000C94DC000C94DC000C94DC00B0
:100060000C94DC000C94DC000C94DC000C94DC00A0
:100070000C94DC000C94DC000C94DC006E616E00CF
:10008000696E660000407A10F35A00A0724E18099B
:100090000010A5D4E80000E87648170000E40B54EF
:1000A000020000CA9A3B000000E1F50500008096BE
:1000B0009800000040420F000000A08601000000F0
:1000C000102700000000E8030000000064000000AA
:1000D00000000A00000000000100000000002C7673
:1000E000D888DC674F0823DFC1DFAE59E1B1B7968E
:1000F000E5E3E453C63AE651997696E8E6C28426EB
:10010000EB898C9B62ED407C6FFCEFBC9C9F40F2C6
:10011000BAA56FA5F490055A2AF75C936B6CF96742
:100120006DC11BFCE0E40D47FEF520E6B500D0ED07
:10013000902E0300943577050080841E080000206F
:100140004E0A000000C80C333333330F986E12830D
:100150001141EF8D2114893BE65516CFFEE6DB18E1
:10016000D1844B381BF77C1D901DA4BBE4242032A6
:1001700084725E228100C9F124ECA1E53D2711249F
:100180001FBECFEFD0E1DEBFCDBF11E0A0E0B1E0F8
:10019000E8E4FBE102C005900D92A233B107D9F764
:1001A00011E0A2E3B1E001C01D92A134B107E1F773
:1001B0000E946A0A0C94A20D0C940000EF92FF9228
:1001C0000F931F937B018C0120E030E040E05FE45F
:1001D0000E94DE0388238CF0C801B70120E030E0E4
:1001E00040E05FE40E9456020E943E049B01AC0185
:1001F000205030404040504806C0C801B7010E941E
:100200003E049B01AC01B901CA011F910F91FF90FF
:10021000EF900895A0E0B0E0E0E1F1E00C94BA0BBB
:10022000DC012B01FA019C91923008F439C1EB01F9
:100230008881823008F433C1943069F4843009F045
:100240002FC111969C9111978981981709F428C1A3
:10025000ACE1B1E025C1843009F421C18230A9F4B8
:10026000923009F01DC19A01AD0188E0EA010990C0
:10027000AE01E90109929E018150C1F7E201898135
:1002800011969C918923818308C1923009F407C19A
:1002900012962D903C901397EB018A819B811496C6
:1002A000AD90BD90CD90DC901797EC80FD800E81D5
:1002B0001F819101281B390BB90137FF04C0662744
:1002C0007727621B730B603271050CF061C0121648
:1002D00013066CF537014801062E04C096948794E6
:1002E000779467940A94D2F721E030E040E050E040
:1002F00004C0220F331F441F551F6A95D2F72150A7
:100300003040404050402E213F21402351232115B1
:1003100031054105510521F021E030E040E050E099
:1003200079018A01E628F728082919293CC0232BDE
:10033000D1F1260E371E35014601062E04C09694D3
:100340008794779467940A94D2F721E030E040E0F4
:1003500050E004C0220F331F441F551F6A95D2F787
:1003600021503040404050402A213B214C215D210A
:10037000211531054105510521F021E030E040E033
:1003800050E059016A01A628B728C828D9280BC00F
:10039000821593052CF01C01AA24BB24650103C01F
:1003A000EE24FF24870111969C91D20111968C9125
:1003B000981709F445C0992339F0A80197012A1923
:1003C0003B094C095D0906C0A60195012E193F099C
:1003D000400B510B57FD08C01182338222822483C7
:1003E0003583468357831DC081E081833382228217
:1003F00088279927DC01821B930BA40BB50B848300
:100400009583A683B7830DC0220F331F441F551F4A
:100410002483358346835783828193810197938315
:1004200082832481358146815781DA01C901019790
:10043000A109B1098F5F9F4FAF4FBF4328F30BC096
:10044000918333822282EA0CFB1C0C1D1D1DE48269
:10045000F5820683178383E080832481358146817A
:10046000578157FF1AC0C901AA2797FDA095BA2F37
:1004700081709070A070B07056954795379527950C
:10048000822B932BA42BB52B84839583A683B783D0
:1004900082819381019693838283DF0101C0D2011F
:1004A000CD01CDB7DEB7E2E10C94D60BA0E2B0E00F
:1004B000ECE5F2E00C94C60B69837A838B839C8312
:1004C0002D833E834F835887E9E0EE2EF12CEC0E0E
:1004D000FD1ECE010196B7010E9467058E010F5ED9
:1004E0001F4FCE010596B8010E9467058A8991E0E9
:1004F00089278A8BC701B801AE01475E5F4F0E9412
:100500000A010E949204A096E6E00C94E20BA0E29D
:10051000B0E0EDE8F2E00C94C60B69837A838B833C
:100520009C832D833E834F835887F9E0EF2EF12C77
:10053000EC0EFD1ECE010196B7010E9467058E01EB
:100540000F5E1F4FCE010596B8010E946705C701D7
:10055000B801AE01475E5F4F0E940A010E949204FB
:10056000A096E6E00C94E20BA0E2B0E0EAEBF2E049
:100570000C94BA0B69837A838B839C832D833E838F
:100580004F835887CE010196BE01675F7F4F0E945F
:100590006705CE010596BE016F5E7F4F0E9467051D
:1005A0009985923088F089898230C8F0943019F4A6
:1005B000823051F404C0843029F4923081F48CE10B
:1005C00091E0C6C0923049F420E09A858A89981358
:1005D00021E02A87CE010996BBC0823049F420E091
:1005E0009A858A89981321E02A8BCE014196B0C062
:1005F0002D843E844F8458886D887E888F88988C9F
:10060000EE24FF248701AA24BB24650140E050E0CA
:1006100060E070E0E0E0F0E0C10181709070892B53
:10062000E9F0E60CF71C081D191D9A01AB012A0D13
:100630003B1D4C1D5D1D80E090E0A0E0B0E0E614A5
:10064000F7040805190520F481E090E0A0E0B0E08F
:10065000BA01A901480F591F6A1F7B1FAA0CBB1CB6
:10066000CC1CDD1C97FE08C081E090E0A0E0B0E06B
:10067000A82AB92ACA2ADB2A3196E032F10549F0C4
:10068000660C771C881C991C5694479437942794C1
:10069000C3CFFA85EA892B893C898B859C85280FF5
:1006A000391F2E5F3F4F17C0CA0181709070892B90
:1006B00061F016950795F794E79480E090E0A0E04C
:1006C000B0E8E82AF92A0A2B1B2B769567955795EF
:1006D00047952F5F3F4F77FDE7CF0CC0440F551F65
:1006E000661F771F17FD4160EE0CFF1C001F111FD6
:1006F00021503040403090E0590790E0690790E485
:10070000790760F32B8F3C8FDB01CA018F779070E4
:10071000A070B07080349105A105B10561F447FD6A
:100720000AC0E114F1040105110529F0405C5F4F96
:100730006F4F7F4F40781A8EFE1711F081E08A8F3D
:100740004D8F5E8F6F8F78A383E0898FCE0149969E
:100750000E949204A096E2E10C94D60BA8E1B0E0CE
:10076000E4EBF3E00C94C60B69837A838B839C8360
:100770002D833E834F83588789E0E82EF12CEC0EC1
:10078000FD1ECE010196B7010E9467058E010F5E26
:100790001F4FCE010596B8010E94670589858230FA
:1007A00040F08989823028F0C701B8010E94DF0536
:1007B00001C08FEF6896E6E00C94E20BA8E1B0E090
:1007C000E4EEF3E00C94C60B69837A838B839C83FD
:1007D0002D833E834F83588789E0E82EF12CEC0E61
:1007E000FD1ECE010196B7010E9467058E010F5EC6
:1007F0001F4FCE010596B8010E946705898582309A
:1008000040F08989823028F0C701B8010E94DF05D5
:1008100001C08FEF6896E6E00C94E20BA8E1B0E02F
:10082000E4E1F4E00C94C60B69837A838B839C83A8
:100830002D833E834F83588789E0E82EF12CEC0E00
:10084000FD1ECE010196B7010E9467058E010F5E65
:100850001F4FCE010596B8010E9467058985823039
:1008600040F08989823028F0C701B8010E94DF0575
:1008700001C081E06896E6E00C94E20BACE0B0E0E9
:10088000E4E4F4E00C94CA0B69837A838B839C8341
:10089000CE010196BE016B5F7F4F0E9467058D817F
:1008A000823061F1823050F1843021F48E818823CE
:1008B00051F12EC02F81388537FD20C06E812F3138
:1008C00031051CF06623F9F023C08EE190E0821B15
:1008D000930B29853A854B855C8504C056954795D1
:1008E000379527958A95D2F76623B1F050954095B4
:1008F000309521953F4F4F4F5F4F0EC020E030E0C5
:1009000040E050E009C02FEF3FEF4FEF5FE704C03A
:1009100020E030E040E050E8B901CA012C96E2E066
:100920000C94E60BDF92EF92FF920F931F93FC0162
:10093000E480F58006811781D1808081823048F47F
:1009400080E090E0A0E1B0E0E82AF92A0A2B1B2B16
:10095000A5C0843009F49FC0823021F4EE24FF2426
:10096000870105C0E114F1040105110519F4E0E067
:10097000F0E096C0628173819FEF623879070CF0D6
:100980005BC022E83FEF261B370B2A3131052CF0E4
:1009900020E030E040E050E02AC0B801A701022E7C
:1009A00004C076956795579547950A94D2F781E0EC
:1009B00090E0A0E0B0E004C0880F991FAA1FBB1F01
:1009C0002A95D2F70197A109B1098E219F21A02371
:1009D000B1230097A105B10521F081E090E0A0E0EE
:1009E000B0E09A01AB01282B392B4A2B5B2BDA01A3
:1009F000C9018F779070A070B07080349105A10507
:100A0000B10539F427FF09C0205C3F4F4F4F5F4FBE
:100A100004C0215C3F4F4F4F5F4FE0E0F0E02030DB
:100A2000A0E03A07A0E04A07A0E45A0710F0E1E08E
:100A3000F0E079018A0127C06038710564F5FB0197
:100A4000E158FF4FD801C7018F779070A070B07048
:100A500080349105A105B10539F4E7FE0DC080E4AD
:100A600090E0A0E0B0E004C08FE390E0A0E0B0E050
:100A7000E80EF91E0A1F1B1F17FF05C016950795E4
:100A8000F794E794319687E016950795F794E794E5
:100A90008A95D1F705C0EE24FF248701EFEFF0E03F
:100AA0006E2F679566276795902F9F77D794DD24E3
:100AB000D7948E2F8695492F462B582F5D29B70145
:100AC000CA011F910F91FF90EF90DF900895FC01F4
:100AD000DB01408151812281622F6F7770E0221FFC
:100AE0002227221F9381892F880F822B282F30E005
:100AF000991F9927991F11969C93119721153105DC
:100B0000A9F5411551056105710511F482E037C061
:100B100082E89FEF13969C938E9312979A01AB01F4
:100B200067E0220F331F441F551F6A95D1F783E0FA
:100B30008C930DC0220F331F441F551F12968D91A9
:100B40009C911397019713969C938E931297203044
:100B500080E0380780E0480780E4580758F314968F
:100B60002D933D934D935C93179708952F3F310537
:100B700079F4411551056105710519F484E08C93F0
:100B8000089564FF03C081E08C9312C01C9210C0D2
:100B90002F57304013963C932E93129783E08C93FB
:100BA00087E0440F551F661F771F8A95D1F7706441
:100BB00014964D935D936D937C93179708951F93AF
:100BC000DC01FB019C91923008F447C080818230A7
:100BD00008F443C0943051F411961C91843099F577
:100BE0008181682F70E0611B71093FC0843021F062
:100BF000923031F48230B9F18181882389F12DC09E
:100C000011961C9111978230F1F081811817D9F457
:100C100012962D913C9113978281938182179307AD
:100C200094F028173907BCF014968D919D910D9082
:100C3000BC91A02D24813581468157812817390721
:100C40004A075B0718F4112341F00AC08217930783
:100C5000A407B50740F4112319F061E070E005C066
:100C60006FEF7FEF02C060E070E0CB011F9108954D
:100C7000A1E1B0E0EEE3F6E00C94BA0B3C017F8713
:100C80006E876A01FC0117821682838181FD03C091
:100C90006FEF7FEF6FC39E012F5F3F4F398B288B24
:100CA000F3012381EE85FF8523FD859123FF81914B
:100CB000FF87EE87882309F45AC3853251F4EE8505
:100CC000FF8523FD859123FF8191FF87EE87853284
:100CD00029F490E0B3010E94DF0CE2CF982F10E0DE
:100CE000882499241032B0F49B3269F09C3228F4A5
:100CF000903251F0933271F40BC09D3239F0903341
:100D000049F4116028C01260146025C0186023C027
:100D1000106121C017FD2AC0892F80538A3078F4D2
:100D200016FF06C0FAE09F9E902C1124980E13C067
:100D30003AE0839E802C1124880E10620CC09E32F3
:100D400021F416FD14C3106406C09C3611F410681B
:100D500002C0983659F4EE85FF8523FD959123FF57
:100D60009191FF87EE87992309F0BCCF892F855495
:100D7000833020F4812F8061905E07C0892F8556D3
:100D8000833008F09FC1812F8F7E86FD02C076E000
:100D9000972E6FE3F62EF822953619F4F0E4FF2A29
:100DA00007C0963619F420E8F22A02C091109A94EE
:100DB000F7FE0AC03BE3391518F45CE3B52E02C018
:100DC000B92CB39427E009C047E0491520F4BB24AF
:100DD00047E0942EF7CF292DBB24C60104969D87AA
:100DE0008C87F6016081718182819381AE014F5FB2
:100DF0005F4F0B2D0E94F10B6C010981202E3324D3
:100E000000FF04C003FD02C01DE209C0F1FE02C0E4
:100E10001BE205C0F2FC02C010E001C010E2C101FB
:100E20008C709070892BB9F1112311F483E001C00B
:100E300084E0881510F088240AC0881AF3FC07C0E3
:100E400080E290E0B3010E94DF0C8A94C9F711237D
:100E500029F0812F90E0B3010E94DF0C23FE03C034
:100E60000CE710E00EC000E810E00BC0E114F10444
:100E700009F0805290E0B3010E94DF0C0F5F1F4F1A
:100E800005C0EF2CFF24F0E1EF22FF24F80184914C
:100E9000882361F714C1F7FE12C0BC0C24FE04C005
:100EA0008A81813309F4BA941B141CF0BB24B394D7
:100EB0002DC0F8E0FB1550F538E0B32E27C0F6FC46
:100EC00025C0892D90E08C159D054CF02CEFC216A5
:100ED0002FEFD20624F030E8F32A01C09A9499202B
:100EE00049F0E2E0F0E0EC0FFD1FE90DF11D80811B
:100EF0008033A1F3F7FE0AC0B92CB394892D90E09A
:100F0000C816D90614F0992401C09C18F7FC03C038
:100F100025E030E009C01C141D041CF021E030E085
:100F200003C096012F5F3F4F112311F02F5F3F4FFA
:100F3000992029F0892D90E00196280F391F882DDE
:100F400090E02817390714F0882401C0821A4F2C2A
:100F50005524C20189709070892B39F008C080E255
:100F600090E0B3010E94DF0C8A948820C1F711231E
:100F700029F0812F90E0B3010E94DF0C43FE07C0EF
:100F800008C080E390E0B3010E94DF0C8A948820BF
:100F9000C1F7F7FE46C08601D7FE02C000E010E0B0
:100FA00076010894E11CF11CE01AF10A41E050E0DE
:100FB0004C0F5D1FE40EF51E26014B185108892DBC
:100FC00090E0AA24BB24A81AB90A5FEF0F3F1507C7
:100FD00029F48EE290E0B3010E94DF0CC016D10626
:100FE00034F0401651061CF4F701808101C080E303
:100FF000015010400894E11CF11C0A151B052CF04F
:1010000090E0B3010E94DF0CE0CF0C151D0539F410
:101010009A81963318F4953311F424FE81E390E01D
:101020004BC08A81813309F00F7E90E0B3010E94AA
:10103000DF0C9920A1F08EE290E0B3010E94DF0C5A
:1010400012E0E1E0F0E0EC0FFD1FE10FF11D1F5F8A
:10105000808190E0B3010E94DF0C9A9491F744FCE8
:1010600003C085E690E002C085E490E0B3010E94F1
:10107000DF0CD7FC05C0C114D10441F404FF06C045
:10108000D094C194D108D3948DE201C08BE290E05A
:10109000B3010E94DF0C80E305C08F5F26EF3FEFB6
:1010A000C20ED31E3AE0C316D104BCF790E0B301E0
:1010B0000E94DF0CC601C096B3010E94DF0CCC84F5
:1010C000DD8452C1933631F0933799F0933509F0AE
:1010D00059C023C0F601808189835E010894A11C58
:1010E000B11C22E030E0C20ED31E21E0E22EF12C32
:1010F00012C0F601A080B18016FD03C06FEF7FEF34
:1011000002C0692D70E022E030E0C20ED31EC5019E
:101110000E94D40C7C011F7713C0F601A080B1801F
:1011200016FD03C06FEF7FEF02C0692D70E022E073
:1011300030E0C20ED31EC5010E94C90C7C011068AC
:1011400013FF07C01BC080E290E0B3010E94DF0CD8
:101150008A94882D90E0E816F906A8F30FC0F501EF
:1011600017FD859117FF81915F0190E0B3010E9407
:10117000DF0C81108A940894E108F108E114F1046D
:1011800071F7F2C0943611F0993689F517FF08C04F
:10119000F601208131814281538184E090E00AC0D0
:1011A000F601808191819C01442737FD4095542FA1
:1011B00082E090E0C80ED91E9FE6F92EF12257FF7B
:1011C00009C050954095309521953F4F4F4F5F4F47
:1011D00090E8F92ACA01B901AE014F5F5F4F2AE0DA
:1011E00030E00E94440DE82EE889EE1A41C09537A0
:1011F00021F41F7E2AE030E01CC0197F9F3661F089
:10120000903720F4983509F0B2C00FC0903739F00C
:10121000983709F0ACC004C028E030E00AC0106183
:1012200014FD146020E130E004C014FD166020E1DC
:1012300032E017FF08C0F6016081718182819381DD
:1012400044E050E008C0F60180819181BC0180E05B
:1012500090E042E050E0C40ED51EAE014F5F5F4FFC
:101260000E94440DE82E5889E51A8FE7F82EF122E6
:10127000F6FE0BC08EEFF822E91438F4F4FE07C036
:10128000F2FC05C09FEEF92202C01E2D01C0192DEF
:10129000F4FE0DC0FE01EE0DF11D8081803319F4C6
:1012A000E9EEFE2208C01F5FF2FE05C003C08F2DCD
:1012B000867809F01F5F0F2DF3FC14C0F0FE0FC0FD
:1012C000181510F09E2C0BC09E2C980C911A182DFE
:1012D00006C080E290E0B3010E94DF0C1F5F18158A
:1012E000C0F304C0181510F4811A01C0882404FF4B
:1012F0000FC080E390E0B3010E94DF0C02FF1DC02D
:1013000001FD03C088E790E00EC088E590E00BC0C7
:10131000802F867891F001FF02C08BE201C080E24D
:10132000F7FC8DE290E0B3010E94DF0C06C080E381
:1013300090E0B3010E94DF0C9A94E914C0F3EA94A0
:10134000E1E0F0E0EC0FFD1FEE0DF11D808190E07B
:10135000B3010E94DF0CEE2091F706C080E290E01E
:10136000B3010E94DF0C8A948820C1F799CCF30165
:1013700066817781CB016196E2E10C94D60B272F31
:10138000382F492F55272093CD006093CC0088E15A
:101390008093C9008EE08093CA000895982F8091B1
:1013A000C80085FFFCCF9093CE0008958091C800BF
:1013B00087FFFCCF8091CE000895FF920F931F937B
:1013C000CF93DF930E94130B60E072EC81E090E01A
:1013D0000E94BF098FEF84B9FF24FA94CCECD1E0CE
:1013E00000E011E0F5B888E893E1FE013197F1F7EC
:1013F0000197D9F715B888E893E1FE013197F1F725
:101400000197D9F700D0EDB7FEB7128301830E9490
:101410000B0D0F900F90E6CF80E090E0A0E0B0E0E1
:101420008093320190933301A0933401B09335013E
:1014300080E090E0A8ECB2E480933601909337010D
:10144000A0933801B093390110923A0108959FEFAB
:1014500080913A01882319F08130D1F702C015B884
:10146000F7CF95B9F5CF1F920F920FB60F921124B7
:101470008F9380913A01882319F410923A0103C0A6
:1014800081E080933A018F910F900FBE0F901F90D3
:1014900018950E94FD0A019759F4609136017091E8
:1014A000370180913801909139010E94770A08959F
:1014B0008FEF85B908950E94700A0E94730A0E94F6
:1014C0000C0A80E090E060E070E048EE53E00E949B
:1014D000060B08950E945B0A78940E94270AFDCFAC
:1014E0008FEF84B908951AB88FEF8BB90895AF9232
:1014F000BF92CF92DF92EF92FF920F931F935B0107
:101500006C018FEF85B9C601B50120E030E040E9FC
:1015100055E40E94B4027B018C0120E030E040E8F9
:101520005FE30E940E0488231CF461E070E024C095
:10153000C801B70120E03FEF4FE757E40E94AE0338
:101540001816B4F4C601B50120E030E040E251E4E1
:101550000E94B4020E94DE008CEC91E005C0FC0108
:101560003197F1F76150704061157105C1F707C0FF
:10157000C801B7010E94DE00CB010197F1F715B851
:10158000C801B70120E030E040E85FE30E940E04AC
:1015900088231CF461E070E024C0C801B70120E09A
:1015A0003FEF4FE757E40E94AE031816B4F4C601AC
:1015B000B50120E030E040E251E40E94B4020E9414
:1015C000DE008CEC91E005C0FC013197F1F7615031
:1015D000704061157105C1F707C0C801B7010E94CD
:1015E000DE00CB010197F1F71F910F91FF90EF9073
:1015F000DF90CF90BF90AF90089589B120E030E0A8
:101600008F3F11F021E030E0C9010895892B49F4A2
:1016100084B5846084BD80916E00816080936E008B
:1016200016BC0895089584E291E090933E01809362
:101630003D0160E072EC81E090E00E94250B08958E
:101640000E94CE0980E090E008959B01AC0184E007
:10165000220F331F441F551F8A95D1F760E070E4B5
:1016600089E191E00E94980B215030403093C500F1
:101670002093C40088E18093C10086E08093C2007B
:101680000895982F8091C00085FFFCCF9093C600ED
:101690000895FC0107C08091C00085FFFCCF9093A6
:1016A000C600319690819923B1F708950F931F9347
:1016B000DF93CF93CDB7DEB764970FB6F894DEBF54
:1016C0000FBECDBF2DB73EB7285030400FB6F894AF
:1016D0003EBF0FBE2DBFEDB7FEB731968E010F5F37
:1016E0001F4FADB7BEB712961C930E93119728E00B
:1016F00031E03383228395838483778366830E94DA
:10170000200D2DB73EB7285F3F4F0FB6F8943EBF70
:101710000FBE2DBFC8010E94490B64960FB6F89406
:10172000DEBF0FBECDBFCF91DF911F910F91089506
:10173000A1E21A2EAA1BBB1BFD010DC0AA1FBB1FD5
:10174000EE1FFF1FA217B307E407F50720F0A21B47
:10175000B30BE40BF50B661F771F881F991F1A94B4
:1017600069F760957095809590959B01AC01BD01DE
:10177000CF0108952F923F924F925F926F927F9286
:101780008F929F92AF92BF92CF92DF92EF92FF9291
:101790000F931F93CF93DF93CDB7DEB7CA1BDB0B3D
:1017A0000FB6F894DEBF0FBECDBF09942A883988E2
:1017B00048885F846E847D848C849B84AA84B984E9
:1017C000C884DF80EE80FD800C811B81AA81B981F5
:1017D000CE0FD11D0FB6F894DEBF0FBECDBFED0109
:1017E0000895283008F027E03327DA01990F311DDA
:1017F00087FD916000966105710539F432602E5FB6
:101800003D9330E32A95E1F708959F3F30F080380B
:101810007105610509F03C5F3C5F3D93913008F034
:101820008068911DDF93CF931F930F93FF92EF92E8
:10183000192F987F9695E92F96959695E90FFF2792
:10184000E252FF4F99273327EE24FF24A701E70137
:1018500005900894079428F4360FE71EF81E491FD8
:10186000511D660F771F881F991F0694A1F70590D9
:10187000079428F4E70EF81E491F561FC11D770F65
:10188000881F991F661F0694A1F70590079428F4F6
:10189000F80E491F561FC71FD11D880F991F661FBD
:1018A000771F0694A1F70590079420F4490F561F5F
:1018B000C71FD81F990F661F771F881F0694A9F7A7
:1018C00084911095177041F0D695C7955795479517
:1018D000F794E7941A95C1F7E4E8F0E0689415905E
:1018E000159135916591959105907FE27395E11879
:1018F000F10A430B560BC90BD009C0F7E10CF11EDE
:10190000431F561FC91FD01D7EF4703311F48A95F2
:10191000E6CFE894015030F0080F0AF400270217D0
:1019200008F4202F2395022F7A3328F079E37D9352
:101930002A95E9F710C07D932A9589F60694979524
:101940006795379517951794E118F10A430B560BD5
:10195000C90BD00998F023957E9173957A3308F0DE
:1019600070E37C932013B8F77E9170617D9330F023
:10197000839571E37D9370E32A95E1F71124EF904D
:10198000FF900F911F91CF91DF91992787FD90953F
:101990000895FC010590615070400110D8F78095C2
:1019A00090958E0F9F1F0895FC016150704001902B
:1019B0000110D8F7809590958E0F9F1F08950F9373
:1019C0001F93CF93DF938C01EB018B8181FF1BC0B1
:1019D00082FF0DC02E813F818C819D8128173907A0
:1019E00064F4E881F9810193F983E88306C0E8850E
:1019F000F985802F0995892B31F48E819F8101967D
:101A00009F838E8302C00FEF1FEFC801DF91CF913C
:101A10001F910F910895A0E0B0E0E1E1FDE00C948A
:101A2000CA0BFE0135966191719180913D019091B3
:101A30003E01AF010E9438062096E2E00C94E60BCE
:101A4000AEE0B0E0E6E2FDE00C94C80B0D891E8923
:101A500086E08C831A8309838FEF9FE79E838D83B3
:101A60009E01275E3F4FCE0101966F89788DA901B7
:101A70000E9438062F813885020F131FF80110824B
:101A80002E96E4E00C94E40BFA01AA27283051F1D9
:101A9000203181F1E8946F936E7F6E5F7F4F8F4F9F
:101AA0009F4FAF4FB1E03ED0B4E03CD0670F781FFE
:101AB000891F9A1FA11D680F791F8A1F911DA11DE3
:101AC0006A0F711D811D911DA11D20D009F468941C
:101AD0003F912AE0269F11243019305D3193DEF6C4
:101AE000CF010895462F4770405D4193B3E00FD07A
:101AF000C9F7F6CF462F4F70405D4A3318F0495D65
:101B000031FD4052419302D0A9F7EACFB4E0A69547
:101B10009795879577956795BA95C9F70097610569
:101B2000710508959B01AC010A2E069457954795BF
:101B300037952795BA95C9F7620F731F841F951FB4
:081B4000A01D0895F894FFCFE9
:101B480048656C6C6F0A0D00536574736572766F27
:101B58002825642C25303364290A0D000000000074
:101B6800000000000000000200000000200B000040
:021B780000006B
:00000001FF
